:1000000000800020BD010000590900001109000016
:100010001109000011090000110900001109000078
:100020001109000011090000110900005909000020
:100030005909000011090000591F00005D1F000050
:100040005909000059090000590900005909000028
:100050005909000059090000590900005909000018
:100060005909000059090000590900005909000008
:1000700059090000590900005909000059090000F8
:1000800059090000590900005909000059090000E8
:1000900059090000590900005909000059090000D8
:1000A00059090000590900005909000059090000C8
:1000B00059090000590900005909000059090000B8
:1000C00059090000590900005909000059090000A8
:1000D0005909000059090000590900005909000098
:1000E0005909000059090000590900005909000088
:1000F0005909000059090000590900005909000078
:100100005909000059090000590900005909000067
:100110005909000059090000590900005909000057
:100120005909000059090000590900005909000047
:100130005909000059090000590900005909000037
:100140005909000059090000590900005909000027
:100150005909000059090000590900005909000017
:1001600059090000390D0000590900005909000023
:1001700059090000590900005909000059090000F7
:1001800059090000590900005909000059090000E7
:1001900059090000590900005909000059090000D7
:1001A00059090000590900005909000059090000C7
:1001B000590900005909000059090000564B4CF23A
:1001C000205210B51A804DF628121A8000BF00BFC9
:1001D00000F0C6FB514B4FF010621A60504A9A6013
:1001E000504ADA60504A136813F4807304D14F49BF
:1001F0000B604FF4A85313604D4B1A78110703D5C9
:100200001A7842F008021A704A4B4B492A221A7097
:100210004A4A4B4B8B4204D252F8040F43F8040B6A
:10022000F8E7484B484900228B4202D243F8042B9E
:10023000FAE74649464A002352F8230041F82300D2
:1002400001336F2BF8D1434B434A802103F8011B44
:100250009342FBD1414B3D4A1A60414B8A221A70AE
:10026000A3F5805324225A70A0221A709A7992071B
:10027000FCD59A79D406FCD43A4A937903F00C035E
:10028000082B384BF9D103221A7140225A719A79FE
:100290009006FCD5334A9179324B4906FBD5324A58
:1002A000324911600221516020221A709A7902F0BD
:1002B0000C020C2AFAD12E4B2E4A1A602E4B2F4AD2
:1002C0001A6000225A60072243F8042C2C4AC3F813
:1002D0000C2D62B600F006FC144B1B68DA0705D53E
:1002E000284800F097FB284B284A1A60284B1B78B7
:1002F0005B0609D5244C254B22689A4204D121483B
:1003000000F088FB0023236000F030FB02F0E4FAE9
:1003100001F088FEFEE700BF0E200540308004405B
:10032000823F04000100002B10D0034014D0034092
:1003300002D0074000E00740A495FF1F14340000DE
:10034000308CFF1FA495FF1FE498FF1F0082FF1F42
:100350000000000000E400E05FE400E008ED00E0E1
:100360000050064000400640448004400000030165
:1003700004800440C010050014E000E0FF76010096
:100380000000202039FA22631CE00340A5C3945AE0
:1003900000F00740FFFFFFFFFFFFFFFFFFFFFFFF32
:1003A000FFFFFFFFFFFFFFFFFFFFFFFFFFFFFFFF5D
:1003B000FFFFFFFFFFFFFFFFFFFFFFFFFFFFFFFF4D
:1003C000FFFFFFFFFFFFFFFFFFFFFFFFFFFFFFFF3D
:1003D000FFFFFFFFFFFFFFFFFFFFFFFFFFFFFFFF2D
:1003E000FFFFFFFFFFFFFFFFFFFFFFFFFFFFFFFF1D
:1003F000FFFFFFFFFFFFFFFFFFFFFFFFFFFFFFFF0D
:10040000FFFFFFFFFFFFFFFFFFFFFFFFDEF9FFFF23
:1004100010B5054C237833B9044B13B10448AFF33E
:1004200000800123237010BDA495FF1F0000000071
:1004300018340000084B10B51BB108490848AFF349
:1004400000800848036803B910BD074B002BFBD0A0
:10045000BDE81040184700BF00000000A895FF1F2E
:1004600018340000A495FF1F00000000F8B500211B
:100470000E2000F0E3FA104B1B7803B9F8BD0F48CB
:100480000F4A04680F4D104F40F2EE2613783BB12F
:100490002B78DB0704D5036839685B1A0E2B0AD862
:1004A000036811781B1B19B1B3F5FA6FEED9F8BDCB
:1004B000B342EBD9F8BDF8BD308CFF1FD095FF1FBC
:1004C000C496FF1F4097FF1FDC98FF1F2DE9F041E6
:1004D000394C3A4E236882B04FF480680093009DF7
:1004E000002723680193019B5B1B312B4FF00E000B
:1004F0000DD800F08FF9B0F5806F3060F1D28742EF
:1005000003D3804528BF8046EBE70746E9E7C8EB01
:10051000070002F00DF82A492A4D2B4E01F056FF34
:100520002A4902F05DF82A4902F00EF9294901F042
:100530004FFF02F0A5F92B683060984204460AD0BC
:10054000254B264A1B681268D21A19D1244801F09B
:10055000F1F833682B60002001F054F90028FAD13B
:10056000204B1B7833B121461F4801F053FD1E4834
:1005700001F0FCFC022000F067FA02B0BDE8F08157
:10058000C31A02EBD271C3EBC31303EB610303FB8A
:1005900002F1002993FBF2F3B8BF03F1FF33002B04
:1005A00001DA1248D3E77F2BA8BF7F231B060F4831
:1005B00003F0FE431843CAE7D095FF1FC095FF1F05
:1005C0000000A0413C8CFF1FC495FF1F0000224289
:1005D00000005C4400004642348CFF1F388CFF1F33
:1005E0000BB0103F308CFF1F4C8CFF1F0BB0100066
:1005F000374A384913681B06FCD40B6813F0800394
:10060000F8D172B634490A78002A5FD0334A3448A8
:10061000F0B4344C176806682568D4680C303E4442
:10062000143200681268304F35442C442044024490
:10063000C2F34E022D4E2E482E4D2F4C42F4004256
:100640003A60376806682D682C4A24680C303E44AE
:10065000006812682A4F35442C4420440244C2F3F7
:100660004E02284E2848294D294C42F400423A6057
:10067000376806682D68274A24680C303E440068B5
:100680001268254F35442C4420440244C2F34E02E4
:10069000224E2348234D244C42F400423A603768EE
:1006A00006682D68214A24680C303E4400681268B0
:1006B00035442C4420440244C2F34E021C4842F408
:1006C000004202600B7062B6F0BC704762B67047C1
:1006D00024B0034024B00B40C995FF1F38B003403D
:1006E0003CB0034040B003402CB0034058B003403E
:1006F0005CB0034060B0034064B003406CB00340A2
:1007000030B0034038B00B403CB00B4040B00B4021
:1007100044B00B404CB00B402CB00B4058B00B40D9
:100720005CB00B4060B00B4064B00B406CB00B4051
:1007300030B00B4030B42948294A2A4B2A4D602456
:10074000E121047011701B78284C082B30D00A2B43
:100750002748284937D00C2B0CBF35223D221223C5
:100760002A60236002600B60234B24491B78244AD3
:10077000BBB101230B601360224B23491B78234A32
:10078000012B26D9042B0FD9082B1ED9102B94BF6F
:10079000862387230B6013601D4B01221A7030BC27
:1007A00070470B601360E7E784230B601360F3E787
:1007B00000F58E200F490830012213232A602360A0
:1007C00002600B60D0E73922F7E785230B601360E6
:1007D000E2E780230B601360DEE700BF00400740C4
:1007E00001400740408CFF1F08B003400CB003409D
:1007F00008B00B400CB00B40CC95FF1F20B003405D
:1008000020B00B40418CFF1F24B0034024B00B40AC
:10081000C995FF1F28282FD8334B2DE9F0411E5CC6
:10082000FF2E2BD0314B1B78002B2AD132062CD433
:1008300072B62F4D2F4C2F46012326602B7062B6C7
:1008400072B623681B060CD43B781BB9F4E72B78EF
:10085000002BF1D062B601F001FC72B623681806D5
:10086000F5D5254B1B6800222A7062B6234A107802
:1008700043FA00F0BDE8F081002070470020BDE899
:10088000F081FFF7B5FE3206D2D572B61C4DDFF807
:100890007C801C4C06F04007FFB206F03F06D8F8FB
:1008A0000030DFB123F01003C8F8003001232660C8
:1008B000134A2B7062B672B6236819060CD41378EB
:1008C0001BB9ECE72B78002BE9D062B601F0C6FB30
:1008D00072B623681B06F5D50B4BC3E743F0100334
:1008E000C8F80030E2E700BF2C320000C995FF1FB6
:1008F000CB95FF1F00B0034010B00340C895FF1F09
:10090000CA95FF1F00B00B4010B00B400CB00B405D
:1009100008B5104C08E0236859050DD423681A0562
:100920000FD42368DB0411D423685803F3D500F0F7
:1009300003FA23685905F1D500F00EF823681A056B
:10094000EFD500F009F82368DB04EDD500F004F8DA
:10095000EAE700BF3480044008B5FFF7D9FF00BFC5
:10096000014B10221A80704700200540704700BFDD
:10097000094908B50B6830B16A461844A2F580529F
:10098000904202D20860184608BD01F09FFF0C2378
:1009900003604FF0FF3008BD448CFF1F1C4A02EB80
:1009A000C00301295B6811D004291BD052F8300024
:1009B000002280F8802229B1022920D0032922D0E8
:1009C0001A6070474FF480721A60704752F8300016
:1009D0004FF4A27280F880121A601A6822F0200286
:1009E0001A60704752F830104FF4A272012081F85B
:1009F00080021A601A6842F020021A60704740F2C2
:100A000003121A6070474FF481721A60704700BF7A
:100A10005832000030B4054B054D064C0022102121
:100A20001A602A602060196030BC704714D00340FF
:100A300004D0034000D00340704700BF212801D8F4
:100A4000FFF7ACBF704700BF2DE9F843054672B60B
:100A5000204F214B214A1B683C68126862B6520144
:100A600002D5322B88BF013495B3C3F5BB331C4E7E
:100A7000DFF86490DFF86480FF334FF47A72A6FBEE
:100A8000031302FB04F404EB931472B6D9F80010BC
:100A90003A68D8F800E062B6C1F5BB33FF33A6FB75
:100AA00003031EF0806FC4EB93134FF47A7002D0EF
:100AB000322988BF013200FB0233B3F57A7F04D3B9
:100AC000013D05D004F57A74DFE701F0C7FADCE7F1
:100AD000BDE8F883D095FF1F18E000E004ED00E0CA
:100AE000ABAAAAAAF8B52E4B2E49DFF8D4E0DFF85E
:100AF000D4C02D4E2D4D2E4C2E4A2F4F4FF40000BA
:100B000018604FF0807018604FF0007018604FF060
:100B1000806018604FF00060186000200860282393
:100B20004BF6FF71CCF80010CEF800303360136044
:100B30002B6023603B60B3629362092245F8242C4A
:100B4000C4F8D80F05F57F65C7F8D41F07F5FF2750
:100B500007F5FA67C6F8F83F2B6006F5FF26C4F8DC
:100B6000D42F05F5FD2504F5FF24386006F2F47650
:100B70001248316005F5FF6504F5FD642B602360C4
:100B80000260FFF7D7FDFFF757FF1420FFF75CFF68
:100B900000F00CFD4FF48C70BDE8F840FFF754BF37
:100BA00008E100E0048003401480034024800340F7
:100BB0002C8003401C8003403480034000800B40A5
:100BC0000C80034008800340431E042B14D872B6E7
:100BD0000A4951F8230068B170B4094C058834F80B
:100BE0001320466841F82360521B24F8132062B694
:100BF00070BC704762B67047002070473096FF1F88
:100C00009C97FF1F013804280BD872B6074B53F886
:100C1000203043B100205B680130002BFBD162B66D
:100C20007047002070471846F9E700BF8896FF1FFD
:100C3000F0B472B61A491B4E012311F8014B194F3B
:100C40009A00240742F0010505D556F8324064B1F8
:100C500056F83520BAB10133062BEED162B6124BED
:100C600000221A70F0BC00F01BBD0F4C0F4D217814
:100C700007EB4313083001395860217047F83250B0
:100C800062B6F0BC7047084A0949137807EBC504FF
:100C90000830013B6060137047F8351062B6F0E72A
:100CA000943300000080FF1FB996FF1F88004000AA
:100CB000C8004000431E042B1DD81B4A400140F0D1
:100CC000100030B4104472B6184CE25C032A1BD8F2
:100CD000DFE802F00212151703220D88E25410F02B
:100CE000080F14BFC823882343EA05430831416035
:100CF000036062B630BC704708300222EDE705227F
:100D0000EBE708300422E8E7094A52F8230038B13B
:100D1000084A52F82300416042F8231062B6E9E71E
:100D200042F82310034AF7E70080FF1FC896FF1F11
:100D30008896FF1F9C96FF1F2DE9F04FDFF818B330
:100D4000DFF818A387B044E0AE4F4FEA930807EBF3
:100D5000C809013ED9F8042003F00803F6B2A2F155
:100D6000080003F0FF04002B40F0058157F83830ED
:100D70001B0C99B222F8081C002B00F0F380A24B48
:100D800022F8064C42F8044C53F82620002A00F0C2
:100D90006E819E4D55F8263058609D4C45F82600D2
:100DA00034F81630194424F8161000F059FC0028C5
:100DB00000F05681974A984B19F0080F00F108008F
:100DC00018BF1346C9F8040047F8383008238BF8D9
:100DD00000309BF80040E4B261071DD58F4B1B78B3
:100DE000BBB18F490A7802F0FF032AB1013BDBB2A5
:100DF0000B70002B00F0B4838A490A7802F0FF03DD
:100E00002AB1013BDBB20B70002B00F0F88000F040
:100E1000DFFC04238BF8003004F0080303F0FF022A
:100E2000002B00F0D5809AF80030DBB21E098BD180
:100E30009C08DFF8D09159F8342009EBC401C2F3C3
:100E40008302013A49680C2A7DD8DFE802F08080ED
:100E50007C7C7C7C7C7C447C7C7C07000868724DBC
:100E60006C4F4A68714B49F8347081B2704E6A60B9
:100E700040F2816400222860A1424FF00100C9F8CD
:100E8000102001931A60C9F81820307000F2F38026
:100E9000B1F5D06F80F03383B1F5817F00F0CE8261
:100EA00000F24C81802900F02482822940F08D825A
:100EB000A98801F07F01052900F287825D4F5E4C11
:100EC00089000F44227062703A78970740F13283AC
:100ED0002070022011E2554B01931A684AB3574B18
:100EE0005749534E18880C7837784028054684F0C7
:100EF000010E28BF402544F00204002F81F800E0D5
:100F0000A0EB050009EBC40E0CBF8821C82180B2FC
:100F100087F0010741EA0541CEF8042018803770B8
:100F20002A4449F8341010B9402D18BF0022019B03
:100F30001A603D4B1A88B2F5A06F04D100219A784F
:100F40005970404B1A70404A012313703EE7364AED
:100F5000158842F22100854200F05A812D4A49F855
:100F60003420F0E72B4A2C4B19F0080F18BF13461A
:100F700047F838302AE700F093FB344A344952F8F6
:100F80002630002B00F0348158688C5D42F8260032
:100F900003F10802C9F80420032C05D8DFE804F0A7
:100FA000120F150204228A551A8819F0080F0CBF77
:100FB0008823C82343EA024347F8383006E7022271
:100FC0008A55F1E703228A55EEE705228A55EBE7B9
:100FD000E00700F15781210600F18181A20706D5C3
:100FE0001C4A1D4913780220DBB213700870E30617
:100FF00002D5194B10221A7007B0BDE8F08F00F02F
:1010000065FF04E70080FF1F3096FF1FD895FF1F84
:101010009C97FF1FC800400088004000C496FF1F37
:101020004596FF1F3097FF1FB096FF1FD495FF1FF7
:101030004496FF1FC0200740BC96FF1FEC95FF1F82
:10104000B896FF1F98200740942007408896FF1FFE
:10105000C896FF1F88200740802007409020074047
:10106000B64A47F83800137801331370AEE643F8F8
:101070002600B34D91E642F22104A14200F0B48073
:1010800000F2ED80B1F5086F00F05381B1F5106FFB
:1010900040F09B81AB4AA9781170AB4D042402E06B
:1010A0000134182C0CD059F834301A06F8D505EB59
:1010B000C40301345868083800F0F2FA182CF2D151
:1010C000A249A34BA34A0291A3499D4DA34C059667
:1010D000039504944FF000080E4615461C46206800
:1010E00028B1476800F0DCFA3846002FF9D1002318
:1010F0002360039B28681A46002342F8283028B151
:10110000476800F0CDFA3846002FF9D100222A6056
:10111000029A33781146002241F8042B049A029176
:10112000023B4FF0000122F81810032B00F29A81C5
:10113000DFE813F0C7019501C701950140F20232C3
:10114000914240F03781A98801F07F01052900F222
:101150003C816A88002A40F03881814C89000C4427
:101160008046217841F002012170002002908446DF
:10117000864604467B490D7845F0020709EBC70314
:10118000B8F1000F5C600CBF8824C82444EA0C034B
:1011900085F0010449F8373032700C706A4F724B99
:1011A000DFF8C0C1002840F01781BEF1400F1BD10D
:1011B00044F0020409EBC403029FDFF88CE15F6096
:1011C000002A40F01E81020442F0880286F8008066
:1011D0000D7007444EF834203B46402804D10020CF
:1011E000624A019910800B60614A01231370AAE6DC
:1011F0008B5D032B00F21B8101A252F823F000BF8C
:10120000CD0D0000CD0D0000D3120000D91200005A
:10121000928862B9574ACD1D11F8013B02F8013F8F
:101220008D42F9D1544A1268862A00F0BF804D4998
:101230004D4E0878327840F0020580F001000870C9
:1012400009EBC501002A4FF00000486082F001025E
:101250000CBF8821C82149F8351032707EE642F271
:101260002124A14240F0AD80A988002940F060818E
:10127000424F434A434C3F68AD78176080460A4668
:10128000257072E73A49304B3F48364EDFF8D0C000
:101290003E4DDFF810E13E4F02240C703D4C1860CB
:1012A0005C6098603C48D8601A619A610D23327086
:1012B0003A4C8CF800303A4EFF232B7001209F25CA
:1012C0008EF800303A7033702570087007B0BDE8B2
:1012D000F08F00238B5579E501238B5576E5204966
:1012E000304B80220D2008701A70A2077FF57FAE68
:1012F00076E62D4C022022706270EA88824280F0ED
:10130000308118490D78402A45F00207964609EBCE
:10131000C70028BF4FF0400E04EB0E034460029359
:10132000CEEB02004FEA0E4C4FF001080022C82419
:101330002CE7044A1C4C12782270DEE7B996FF1F96
:10134000D895FF1FC496FF1F0080FF1F9C96FF1FAC
:101350003096FF1F8896FF1FC896FF1F9C97FF1FA0
:10136000C0200740B896FF1F4496FF1FEC95FF1F53
:1013700094200740D398FF1FD498FF1FD095FF1FDC
:10138000DC98FF1F4097FF1F88004000882007401F
:1013900098200740F095FF1F4896FF1F84200740C4
:1013A0008C20074080200740BC96FF1F754A0F2104
:1013B00011703CE7B1F5A06F07D100224FF0010892
:1013C000D3E642F221329142F7D06F4B0F221A70CE
:1013D0006E4A01231370B6E540287FF6E9AE44F06B
:1013E000020407EBC401029E4E60AAB183F800809C
:1013F000674A8CF8005033464038403347F8342071
:10140000EEE6029B86F80080020442F0C8020D70EE
:1014100003444EF83420E0E683F80080029B5D4AE6
:101420008CF800504038403347F83420D8E619F0A3
:10143000080F0CBF022303238B55C7E4A98801F0D2
:101440007F010529C1D86A88002ABED14E4C890087
:101450000C448046217821F00201217085E64FF08E
:101460000103337008F10108B8F1050F04F1040419
:1014700005F1040506F101067FF431AE464B059EE9
:10148000464D474F002119704FF0010817F8013BF6
:1014900005F8043B1B0718D44FEA880444F0020205
:1014A00044F00304002349F8323049F834303D4B0E
:1014B0009D4208F10108E9D196F8008088F0010208
:1014C00053E64FF000033370CCE700F0C9F8002872
:1014D0003CD009EB48134FEA8804083058602D4B84
:1014E00049F8343000F0BCF830B344F0010309EBA4
:1014F000C30208305060264A49F83320CEE72A4A12
:101500005468002C3FF461AF6888AF8804E00C3267
:101510005468002C3FF459AF13888342F7D15388A5
:10152000BB42F4D1000A03280CBF20781089E4E6FE
:1015300080461AE60220E0E6174B44F001021B78D1
:1015400049F83200144A01331370A7E7124B124ACC
:101550001B784FEA8804013349F834001370C1E75F
:1015600000BE4028864628BF4FF0400E04EB0E0315
:10157000CEEB00004FEA0E4C029300224FF0010820
:10158000F8E500BF4596FF1FC020074094200740A4
:10159000C800400088004000B996FF1FC4200740E3
:1015A00094330000D82007409C3300002DE9F0411F
:1015B00000F0C4FE00231F491A4601EBC30041F8A6
:1015C00033200133182B42604FF000041948F4D146
:1015D000194A1A4F13681A491A4D1B4EDFF874C086
:1015E000DFF874E0DFF8748043F480231360C0F305
:1015F00007233B70C0F307430B70000EFF2302F577
:1016000028322870D4328CF80030104D8EF800301B
:101610000F483370012388F80030702681F850405D
:101620004FF40074102107F8183C2E7004601170FC
:10163000BDE8F0810080FF1F348004409C200740FB
:10164000B0200740B42007401020074049E400E0E4
:1016500008E100E0802007408820074094200740F0
:1016600072B60D480268B2FA82F31D2B10DC4FF0FF
:101670000041D94022EA0102026062B6074803EB4A
:10168000C303DB00C2180021C150104651607047EF
:1016900062B60020704700BF488CFF1FBC83FF1F4D
:1016A0000D4B0E4AC31AA2FB03231B091D2B0CD89A
:1016B0000B4A127852B972B60A484FF000410268DC
:1016C00021FA03F31A43026062B67047064A1278A1
:1016D000002AF0D0FFF7ACBABC83FF1F398EE33885
:1016E000B996FF1F488CFF1FC496FF1F38B50E4BDD
:1016F0000E4C1B68218805468BB1B1F5917F05D250
:101700000B4A4B1C55549BB2238038BD002208481D
:1017100098470021064A55540123238038BDB1F56E
:10172000917FEDD338BD00BFF496FF1FAA97FF1F2E
:10173000B097FF1F2DE9F843214E224F3168012356
:1017400080463B70B1B1204D4B8801EB83020133E1
:1017500000240F2BC2F808802C7004D84B80002383
:101760003B70BDE8F88340230B800420FFF7A2FA0A
:101770003460F4E7DFF8549099F80030002BF0D093
:10178000114D45F6215408E0013C12D02B7883B965
:1017900000F064FC99F800307BB10420FFF732FAC6
:1017A0000528F1D8FFF75CFF014630600028EBD038
:1017B000CAE701232B70BDE8F883BDE8F88300BFBA
:1017C0001097FF1FE496FF1F1497FF1FC496FF1F7B
:1017D00070B50A4C257845B9094E3168012323704C
:1017E00009B14B8813B90023237070BD9B000B8097
:1017F0000420FFF75FFA3560F5E700BFE496FF1FAE
:101800001097FF1F2DE9F041AD4E33680746002BBE
:1018100000F092801D885A88910803EB8101043200
:10182000AA428C6842D25A8004F00F064FEA14286C
:10183000A449A6F1080208F00F00C4F30313062A16
:1018400000F101050B701AD9B31E012B5FFA88F065
:101850004ED9052E48D0042E00F0A481731F022B10
:101860007FD90F2E0ED1F72842D8F02802D0964B00
:101870001B883BB1FFF73AFF0020BDE8F08127B19C
:10188000BD4202D00020BDE8F081082EC4F303332E
:1018900000F08780092E11D00A2E40F094800A2B88
:1018A000F0D18A4B8A4A1B68A02181E01846FFF7D5
:1018B000F7FE0520FFF788F93060B5E7092BE1D185
:1018C000270E00F07B81834B814A1B689021C4F373
:1018D00007461170EDB2FCB2002B00F09D8022464D
:1018E00031462846984797E0F02843D9F72841D059
:1018F000F1380E28C6D801A353F820F0B31A00001F
:10190000971A0000851A000085180000851800004D
:10191000771A000085180000571B0000851800008A
:10192000211B00003B1B00005F1A0000851800000F
:10193000471A00002B1A0000674B1B78002BA1D020
:101940000520FFF741F90346306000289AD005884A
:10195000002D7FF460AFFFF7A3FE35602846BDE899
:10196000F081FFF7C3FEC4F30740FFF7BFFE072E69
:1019700002D1200EFFF7BAFE534B584A1988584837
:101980001468584D524A017000270E0AF0201F803B
:101990002E7010700CB301225348A0470120BDE8FF
:1019A000F081082B7FF46EAF504B494A1B688021B1
:1019B000C4F307461170EDB2240E6BB328462246DD
:1019C0003146984728E00B2E11D10B2B7FF45AAFEC
:1019D000474B3F4A1B68B021EAE7464B1B68002B88
:1019E00000F0FB80404898470120BDE8F0810C2EB4
:1019F00040F000810C2B7FF445AF3F4B344A1B680D
:101A0000C0211170EDB2C4F30746002B00F0C8806E
:101A100028463146240E98473849314A314B0D70DB
:101A200016701C700120BDE8F081354B1B68002B3F
:101A300000F0D6809847C4F30746254BEDB2240E3C
:101A400083F80080E8E72F4B1B68002BF2D12E4B68
:101A50001B68A3B1FE209847C4F30746EDE72B4B64
:101A60001B68002BE6D1284B1B6843B1FC2098472C
:101A7000C4F30746E1E7264B1B68002BDAD1C4F319
:101A80000746DAE7234B1B68C4F30746002BD4D084
:101A900030469847D1E7204B1A68002AEFD0260C31
:101AA000630C06F07F0003F47E531843F6B29047B0
:101AB000C3E71A4B1B68C4F30746002BE8D1BCE709
:101AC0001C97FF1FAE97FF1FAA97FF1FF896FF1FD7
:101AD000A897FF1F2C97FF1FC496FF1FF496FF1FA8
:101AE000AC97FF1FAD97FF1FB097FF1F2497FF1FF5
:101AF0002897FF1F0C97FF1FE896FF1FAF97FF1F48
:101B0000D496FF1FD896FF1FDC96FF1F1897FF1F64
:101B10000897FF1F2097FF1FF096FF1F0497FF1FD6
:101B20003F4B1B68002B85D13E4B1B68002BA6D07A
:101B3000FA209847C4F307467FE73B4B1B68002B0E
:101B40007FF478AF374B1B68002B98D0FB20984769
:101B5000C4F3074671E7354B1B68002B7FF46AAF6F
:101B6000304B1B68002B8AD0F8209847C4F30746F7
:101B700063E70E2B7FF486AE2D4A2E4B1268E021D0
:101B80001970002A47D0260C610C06F07F0301F47F
:101B90007E511943EDB2A1F5005128469047F6B2A7
:101BA000240E39E7FFF7A2FDC4F30740FFF79EFDBF
:101BB000200EFFF79BFD0020BDE8F0811E4B1D4A63
:101BC0001B6880211170EDB2C4F3074683B1314622
:101BD00028463A4698473C461EE70120BDE8F0817A
:101BE000104B1B68002B3FF44AAFFF20984746E795
:101BF0001C4611E70D2EBCD10D2B7FF443AE0F4BCD
:101C00000C4A1B68D0211170EDB2C4F30746002BBB
:101C10007FF4FEAEC4E7C4F30746EDB2240EFBE644
:101C20000097FF1FDC96FF1FE096FF1FD096FF1F57
:101C3000EC96FF1FA897FF1F2497FF1FFC96FF1F1E
:101C400038B50F4D286878B143880288C118013330
:101C500093420C7A02D24380204638BDFFF720FD24
:101C6000002320462B6038BD064B1B782BB1022089
:101C7000FEF7AAFF28600028E6D14FF0FF3038BDFC
:101C80003C97FF1FC496FF1F10B5094C206818B180
:101C900043881844007A10BD064B1B782BB10220F4
:101CA000FEF792FF20600028F2D14FF0FF3010BD08
:101CB0003C97FF1FC496FF1F044B054A1B685088C2
:101CC0001BB11A885B88D31A184470473C97FF1FD2
:101CD0009C97FF1F0B4B1B789BB110B50A4C2068DB
:101CE00048B1FFF7DDFC002302202360FEF76CFF04
:101CF00030B1FFF7D5FC0220FEF766FF0028F8D1CF
:101D000010BD7047C496FF1F3C97FF1F2DE9F04F91
:101D1000DFF8F89083B0012289F80020019169B3BF
:101D2000DFF8EC80364F019E8346D8F80000B0B350
:101D3000344D4488C4F14001B14228BF314604EB20
:101D4000010E00221FFA8EFE2A70761AA0F802E019
:101D500000F1080251B1013C224459441BF8014BE7
:101D600002F8014F8B45F9D1B0F802E0BEF13F0F08
:101D70000BD8254A05211170002ED6D101980023D9
:101D800089F8003003B0BDE8F08F402202800146A0
:101D90000320FEF78FFF0022C8F80020E9E73A7819
:101DA0002AB3184D4AF2F9244FF0010A07E0013C2A
:101DB00016D02A78A2B900F051F93A78BAB10320C6
:101DC000FEF720FF0728F2D889F800A0FFF748FCAB
:101DD000C8F800000028ACD10C4B013C1870E8D1C9
:101DE00001234FF0FF302B7003B0BDE8F08F0023CC
:101DF0004FF0FF3089F8003003B0BDE8F08F00BF2E
:101E0000C496FF1F3897FF1F3097FF1F3197FF1FA2
:101E10003497FF1F00B583B002AB012103F8010D19
:101E20001846FFF773FF03B05DF804FB38B50E4D9D
:101E30000E4C28680123237028B1408800232370AA
:101E4000C0F1400038BD0A4B1B7813B90020207048
:101E500038BD0320FEF7D6FE0728F7D8FFF700FCB1
:101E600028600028E9D1F1E73497FF1F3197FF1F61
:101E7000C496FF1FF8B5114B1B788BB1104E114D56
:101E8000346801272F7064B10F4A638800271770E8
:101E9000214623800320FEF70DFF376000232B70BF
:101EA000F8BDFFF7DDFB084B28B1014603201C708D
:101EB000FEF700FFF2E71F70F0E700BFC496FF1FB8
:101EC0003497FF1F3197FF1F3097FF1F38B50E4B18
:101ED0001B7873B90D4C216861B103F0FF054B8885
:101EE0000B800320FEF7E6FE256038BD084B01227B
:101EF0001A7038BDFFF7B4FB0028F7D00146BDE8E3
:101F000038400320FEF7D6BE3197FF1F3497FF1FDE
:101F10003097FF1F70B5EFF3108272B60C4C20683B
:101F200080B10C4E00254369236073B19D6102B9F5
:101F300062B6457783689847EFF3108272B62068DF
:101F40000028F0D102B962B670BD3360EFE700BF80
:101F50004497FF1F4897FF1FFFF7DCBF024A136833
:101F600001331360704700BFD095FF1F30B50446A2
:101F700083B002252A4601A8054900F0E5F8236848
:101F80002A4601A95B682046984703B030BD00BFD0
:101F900068330000F0B507468BB0002A33D0012A21
:101FA00008BF0A2251B3212400E0F4B2B1FBF2F5DC
:101FB00002FB1511C8B2092900F1300198BFC8B25F
:101FC0000AA988BF3730214488BFC0B201F8240C69
:101FD000661E2946002DE8D133B1013CE4B20AABBC
:101FE00023442D2203F8242C3B6801AA11195B68B5
:101FF0003846C4F1220298470BB0F0BD30228DF86C
:1020000025202124E8E70368C9B21B6898470BB074
:10201000F0BD00BF0029BABF49422D2300230A2288
:10202000FFF7B8BF08B5FEF721FAFEF74FFA00F048
:1020300015F8FAE7FFF74EBEFFF726BEFFF700BE22
:10204000FFF73ABEFFF716BFFFF7F0BE084611468E
:10205000FFF75CBE0846FFF7DDBE00BF2DE9F84381
:10206000314E337893B1314F3A787AB90122D9079A
:102070003A7036D49A0719D400225B073A7005D516
:102080002B4B1A6812B1EFF305820AB1BDE8F88351
:10209000EFF3108172B6186818B1264C2278002A26
:1020A0002ED00029F2D162B6BDE8F883DFF8908027
:1020B00098F80020002ADFD0DFF88890002405E09F
:1020C000013498F80030E4B2A34212D959F82450F0
:1020D0002B6828461B6998470028F1D02B69984740
:1020E000EEE7FFF7E9FDC8B9134B1B781BB933784E
:1020F000C0E73378C0E7337803F0FE033370B9E705
:1021000045691D60012323705DB1AA6101B962B602
:1021100000254577836898472570B7E700F050F9A8
:10212000E2E7064B1D60F1E75C8CFF1F5597FF1F30
:102130005097FF1F5497FF1F668DFF1F4C97FF1F7F
:102140006497FF1F5897FF1F01B441EA000313F083
:1021500003036FD1403A41D351F8043B40F8043BAC
:1021600051F8043B40F8043B51F8043B40F8043B71
:1021700051F8043B40F8043B51F8043B40F8043B61
:1021800051F8043B40F8043B51F8043B40F8043B51
:1021900051F8043B40F8043B51F8043B40F8043B41
:1021A00051F8043B40F8043B51F8043B40F8043B31
:1021B00051F8043B40F8043B51F8043B40F8043B21
:1021C00051F8043B40F8043B51F8043B40F8043B11
:1021D00051F8043B40F8043B403ABDD2303211D3B1
:1021E00051F8043B40F8043B51F8043B40F8043BF1
:1021F00051F8043B40F8043B51F8043B40F8043BE1
:10220000103AEDD20C3205D351F8043B40F8043BB0
:10221000043AF9D204320AD0D2071CBF11F8013BAC
:1022200000F8013B03D30B7803704B78437001BC7B
:10223000704700BF0C2A4AD310F0030311D0C3F13A
:102240000403D21ADB071CBF11F8013B00F8013B65
:1022500007D311F8013B00F8013B11F8013B00F8EE
:10226000013B11F003033FF475AF30B4043AC91ACF
:10227000C3F1040C51F8044B022B19D0032B0BD0E3
:10228000240A51F8043B1D0644EA050440F8044BB7
:102290001C46043AF4D216E0240E51F8043B1D0209
:1022A00044EA050440F8044B1C46043AF4D20AE020
:1022B000240C51F8043B1D0444EA050440F8044B87
:1022C0001C46043AF4D20432B1EB0C0130BC043A9F
:1022D000A0D3013A11F8013B00F8013BF9D20B7889
:1022E00003704B7843708B78837001BC704700BFDC
:1022F000F0B44D1E2E46002400E00134B0FBF2F392
:1023000002FB1300092800F130078ABF3730F8B20A
:10231000C0B206F8010F1846002BEED10A1953700F
:102320004CB1107815F8016F28700133E01A834220
:1023300002F80169F5DB0846F0BC704770B584B05F
:1023400072B6194B194D1A48702241260F2480216C
:102350001A702E701A460470197013781B06FCD57B
:10236000144B186862B6144B144C984298BF00EB9B
:10237000800001A998BF40000A22FFF7B9FF01A918
:102380002046002311F8012B01333AB10A2B20F823
:10239000022FF7D11623237004B070BD5B00DBB2AF
:1023A000237004B070BD00BF00000240070002406F
:1023B00006000240080002407F969800508DFF1FE3
:1023C000704700BF80F0004002E000BF81F0004194
:1023D00042001FBF5FEA410392EA030F7FEA226CCB
:1023E0007FEA236C6AD04FEA1262D2EB1363C1BF5B
:1023F000D218414048404140B8BF5B42192B88BFCA
:10240000704710F0004F40F4000020F07F4018BFEC
:10241000404211F0004F41F4000121F07F4118BF0C
:10242000494292EA030F3FD0A2F1010241FA03FCB4
:1024300010EB0C00C3F1200301FA03F100F000439C
:1024400002D5494260EB4000B0F5000F13D3B0F164
:10245000807F06D340084FEA310102F10102FE2AD3
:1024600051D2B1F1004F40EBC25008BF20F0010043
:1024700040EA03007047490040EB000010F4000FF1
:10248000A2F10102EDD1B0FA80FCACF1080CB2EB84
:102490000C0200FA0CF0AABF00EBC25052421843E3
:1024A000BCBFD0401843704792F0000F81F4000188
:1024B00006BF80F400000132013BB5E74FEA41035B
:1024C0007FEA226C18BF7FEA236C21D092EA030FC7
:1024D00004D092F0000F08BF0846704790EA010F41
:1024E0001CBF0020704712F07F4F04D1400028BF6E
:1024F00040F00040704712F100723CBF00F5000050
:10250000704700F0004343F0FE4040F40000704785
:102510007FEA226216BF08467FEA23630146420231
:1025200006BF5FEA412390EA010F40F48000704744
:102530004FF0000304E000BF10F0004348BF4042EA
:102540005FEA000C08BF704743F0964301464FF026
:1025500000001CE050EA010208BF70474FF0000382
:102560000AE000BF50EA010208BF704711F00043C3
:1025700002D5404261EB41015FEA010C02BF844693
:102580000146002043F0B64308BFA3F18053A3F5F2
:102590000003BCFA8CF2083AA3EBC25310DB01FA39
:1025A00002FC634400FA02FCC2F12002BCF1004FBD
:1025B00020FA02F243EB020008BF20F0010070474E
:1025C00002F1200201FA02FCC2F1200250EA4C00A2
:1025D00021FA02F243EB020008BF20EADC707047E8
:1025E0004FF0FF0C1CEAD0521EBF1CEAD15392EAF6
:1025F0000C0F93EA0C0F6FD01A4480EA010C4002D2
:1026000018BF5FEA41211ED04FF0006343EA50102B
:1026100043EA5111A0FB01310CF00040B1F5000F6D
:102620003EBF490041EAD3715B0040EA010062F11C
:102630007F02FD2A1DD8B3F1004F40EBC25008BF06
:1026400020F00100704790F0000F0CF0004C08BF24
:1026500049024CEA502040EA51207F3AC2BFD2F1F1
:10266000FF0340EAC250704740F400004FF00003FF
:10267000013A5DDC12F1190FDCBF00F00040704739
:10268000C2F10002410021FA02F1C2F1200200FA77
:1026900002FC5FEA310040F1000053EA4C0308BF3E
:1026A00020EADC70704792F0000F00F0004C02BF8F
:1026B000400010F4000F013AF9D040EA0C0093F00A
:1026C000000F01F0004C02BF490011F4000F013B64
:1026D000F9D041EA0C018FE70CEAD15392EA0C0FD2
:1026E00018BF93EA0C0F0AD030F0004C18BF31F03D
:1026F000004CD8D180EA010000F00040704790F013
:10270000000F17BF90F0004F084691F0000F91F0B6
:10271000004F14D092EA0C0F01D142020FD193EA7C
:102720000C0F03D14B0218BF084608D180EA010004
:1027300000F0004040F0FE4040F40000704740F0E0
:10274000FE4040F4400070474FF0FF0C1CEAD052AE
:102750001EBF1CEAD15392EA0C0F93EA0C0F69D00A
:10276000A2EB030280EA010C49024FEA402037D075
:102770004FF0805343EA111143EA10130CF000406C
:102780008B4238BF5B0042F17D024FF4000C8B425C
:1027900024BF5B1A40EA0C00B3EB510F24BFA3EB3C
:1027A000510340EA5C00B3EB910F24BFA3EB91030C
:1027B00040EA9C00B3EBD10F24BFA3EBD10340EA66
:1027C000DC001B0118BF5FEA1C1CE0D1FD2A3FF6AC
:1027D00050AF8B4240EBC25008BF20F00100704761
:1027E0000CF0004C4CEA50207F32C2BFD2F1FF0304
:1027F00040EAC250704740F400004FF00003013A35
:1028000037E792F0000F00F0004C02BF400010F4D8
:10281000000F013AF9D040EA0C0093F0000F01F0EC
:10282000004C02BF490011F4000F013BF9D041EA0E
:102830000C0195E70CEAD15392EA0C0F08D1420241
:102840007FF47DAF93EA0C0F7FF470AF084676E714
:1028500093EA0C0F04D14B023FF44CAF08466EE7ED
:1028600030F0004C18BF31F0004CCAD130F00042BB
:102870007FF45CAF31F000437FF43CAF5FE700BF13
:102880004FEA4002B2F1FE4F0FD34FF09E03B3EB7D
:1028900012620DD94FEA002343F0004310F0004FBD
:1028A00023FA02F018BF404270474FF00000704713
:1028B00012F1610F01D1420205D110F0004008BFB2
:1028C0006FF0004070474FF000007047014B1868F0
:1028D000704700BF9091FF1F70B50F4E0F4D761BD4
:1028E000B61018BF002405D0013455F8043B9847B2
:1028F000A642F9D10A4E0B4D761B00F081FDB610B1
:1029000018BF002406D0013455F8043B9847A6426E
:10291000F9D170BD70BD00BF0C3400000C34000054
:10292000143400000C340000024B0146186800F01B
:1029300003B800BF9091FF1F2DE9F04F01F10B0587
:10294000162D83B0064640F29F8035F0070500F152
:10295000BF80A94200F2BC8000F0A6FAB5F5FC7F6A
:10296000C0F09C826B0A00F0BA80042B00F28381D5
:10297000A80900F1390E4FEA4E033830C44F07EB77
:102980008303A3F108015C68A14207D1ACE0002AEF
:1029900080F2AC80E468A14200F0A680636823F076
:1029A00003035A1B0F2AF2DDB9493C6901F1080EF5
:1029B000744500F0B381636823F003035A1B0F2AA8
:1029C00000F39981002AC1F814E0C1F810E080F208
:1029D0009E80B3F5007F80F06781DB0803F1010C76
:1029E00001229B1002FA03F34A6851F83C80C4F8B4
:1029F000088001EBCC091A43A9F10803E3604A609F
:102A000041F83C40C8F80C40831001249C4094429B
:102A100000F28A80144206D120F0030064001442C0
:102A200000F10400FAD007EBC009CC468046DCF880
:102A30000C108C4507D173E1002A80F28181C968AE
:102A40008C4500F06D814B6823F003035A1B0F2A5D
:102A5000F2DD0C46D1F80CC054F8088F4B1945F044
:102A600001054D6042F00101C8F80CC03046CCF8B9
:102A700008807B613B61C3F80CE0C3F808E0596053
:102A80009A5000F013FA1FE0102921D800F00CFA38
:102A90001025062302207E4F07EB8303A3F10802D3
:102AA0005C68944200F045816368E168A56823F0A2
:102AB0000303234430465A68E96042F001028D6006
:102AC0005A6000F0F3F90834204603B0BDE8F08FF7
:102AD00000240C232046336003B0BDE8F08F802330
:102AE0004FF0400E3F2049E770465DE72344E16820
:102AF0005A68A56842F00102E96030468D605A606C
:102B000000F0D4F90834204603B0BDE8F08F234428
:102B100030465A6842F001025A6000F0C7F90834A2
:102B2000204603B0BDE8F08FBC68636823F003085B
:102B3000A84504D3C5EB08030F2B00F38C80554B3D
:102B4000DFF860911A68D9F8003001332A4404EBA9
:102B5000080A00F0608102F580520F3222F47F6291
:102B600022F00F0211463046019200F0A1F9B0F1B7
:102B7000FF3F8346019A00F05881824500F2FC80B5
:102B8000454B1968DA451144196000F05381D9F8B2
:102B90000000DFF810E101301BBFCAEB0B0A514403
:102BA000CEF800B019601BF0070100F01781C1F1E9
:102BB0000800C1F58051834408315A44C2F30B0226
:102BC000C2EB010949463046019300F071F9431CFC
:102BD000019B00F03F81CBEB00024A4442F001022E
:102BE0001968C7F808B04944BC42CBF80420196002
:102BF000DFF8A49016D0B8F10F0F40F2FD806268A4
:102C0000A8F10C0323F00703E01802F001024FF0D3
:102C1000050E1A430F2B6260C0F804E0C0F808E00C
:102C200000F21C811D4BBC681A68914288BF196074
:102C30001B4B1A689142626888BF196022F0030238
:102C40009542A2EB050301D80F2B04DC304600F0BF
:102C50002DF9002438E7621943F0010345F001051E
:102C600065603046BA60536000F020F908342046B1
:102C700003B0BDE8F08F142B71D9542B00F2A4805F
:102C8000280B00F16F0E4FEA4E036E3076E600BF60
:102C90009491FF1F7097FF1F7497FF1F6C97FF1F82
:102CA0006897FF1FA095FF1F5A0A042A5ED9142AAD
:102CB00000F2B38002F15C0149005B3207EB810C4A
:102CC00057F82110DFF8DC81ACF1080C8C4500F0DE
:102CD00088804A6822F00302934202D289688C45B8
:102CE000F7D1D1F80CC07A68C4F80CC0A160CCF858
:102CF0000840CC6088E6631942F0010745F0010501
:102D0000656030464B610B61C3F80CE0C3F808E026
:102D10005F609A50083400F0C9F8D5E64A6873E657
:102D200008F1010818F0030F0CF1080C7FF47FAED6
:102D300030E0DC68A34208BF02303FF435AEB3E6B2
:102D40000B440C465A68C96854F8085F42F0010207
:102D50005A603046E9608D6000F0A8F8B4E603F1EF
:102D60005C0E03F15B004FEA4E0307E69A0902F19D
:102D7000390149003832A1E7BC424A4B3FF400AF69
:102D80009C68626822F003025AE759F808399945AD
:102D900040F0828010F0030F00F1FF30F5D17B6826
:102DA00023EA04037B6064009C423FF6BDAE002C26
:102DB0003FF4BAAE1C4240467FF435AE64001C427C
:102DC00000F10400FAD02EE6B3F5AA7F18D8E80B7C
:102DD00000F1780E4FEA4E037730CFE54FF4805183
:102DE000EBE60121D8F80430921001FA02F21A43FE
:102DF000C8F80420614677E70123CBF8043025E7C3
:102E000040F25452934220D8A80C00F17D0E4FEAB4
:102E10004E037C30B2E51032A4E6542A26D81A0BB1
:102E200002F16F0149006E3248E7BC68626822F027
:102E3000030205E7CAF30B0000287FF4A8AE424462
:102E4000BB6842F001025A60ECE6FE234FF07F0EB1
:102E50007E2093E501224FF00009C1E604F108014C
:102E6000304600F0A9F8D9F80010DBE6B2F5AA7FE9
:102E700005D8DA0B02F17801490077321EE740F2FB
:102E800054518A4205D89A0C02F17D0149007C32E6
:102E900014E7FE217E2211E77B6884E7E808431CE3
:102EA0005B00F8E59491FF1F704700BF704700BFBB
:102EB00038B5074C0023054608462360FDF758FD4A
:102EC000431C00D038BD2368002BFBD02B6038BDDD
:102ED000E098FF1F024B13B1024800F005B870479D
:102EE00000000000F52E0000002301461A46184697
:102EF00000F04AB938B5074D074C2C1BA41005D07B
:102F0000013C55F8043D9847002CF9D1BDE8384004
:102F100000F080BA0000000000000000F8B5234F68
:102F20000C460646FFF7C0FFBB685D6825F0030549
:102F3000291B01F6EF7121F47F6121F00F01A1F54A
:102F40008054B4F5805F07DB00213046FFF7B0FF07
:102F5000BB682B44984204D03046FFF7A7FF0020FF
:102F6000F8BD61423046FFF7A3FF01300DD0104B92
:102F7000BA6819682D1B45F001053046091B5560DC
:102F80001960FFF793FF0120F8BD00213046FFF7DD
:102F90008FFFBA68831A0F2BDEDD064C04492468C4
:102FA00043F00103001B53600860D5E79491FF1FB5
:102FB0007497FF1FA095FF1F002945D02DE9F04110
:102FC0000D468046FFF770FF55F8047C6A4927F0EC
:102FD0000103A5F10804E2188E685068B24220F09F
:102FE000030062D0FE0750600BD455F8087CE41B48
:102FF00001F1080EA56875453B446FD0E768EF60A6
:10300000BD6015186D68ED0742D543F0010262609E
:10301000E350B3F5007F18D2DB085A1C4D6851F815
:103020003270A76001209B1000FA03F301EBC2008D
:103030001D430838E0604D6041F83240FC60404676
:10304000BDE8F041FFF732BF70475A0A042A53D84F
:103050009A0902F139077F0002F1380501EB870078
:1030600051F827204449083890424DD0516821F04A
:1030700003018B4202D292689042F7D1D068E0609F
:10308000A2608460D4604046BDE8F041FFF70EBF07
:1030900095683A4FBD4203443FD0D068E86043F0A2
:1030A000010285606260E350B3E7FF07034407D481
:1030B00055F8082CA41A1344A068E268C260906016
:1030C0002F4A126843F00100934260608C60B6D3CF
:1030D0002C4B40461968FFF721FFB0E711184968EB
:1030E000C90744D49168D268CA60034443F0010020
:1030F00091606060E350A2E7142A17D802F15C07E0
:103100007F0002F15B05A9E7AA104B68012505FACB
:1031100002F213434B600246B1E743F001024C61F7
:103120000C61E560A5606260E35088E7542A06D828
:103130001A0B02F16F077F0002F16E058EE7B2F500
:10314000AA7F06D8DA0B02F178077F0002F1770533
:1031500084E740F25450824206D89A0C02F17D076F
:103160007F0002F17C0579E7FE277E2576E743F0B4
:1031700001026260E35062E79491FF1F9C91FF1F80
:103180009C95FF1F7097FF1F2DE9F047254C256880
:10319000D5F848410646884692469946C4B36068C9
:1031A0001F2817DC431C76B104EB80050122C5F80B
:1031B00088A0D4F8881182401143022EC4F88811E7
:1031C000C5F808911ED00230636044F820800020CA
:1031D000BDE8F087144B03B34FF4C870FFF7A4FBAE
:1031E0000446D0B1D5F84831002780E88800C5F8FA
:1031F000484138460123C4F88871C4F88C71002E08
:10320000E1D0D1E7D4F88C110A43C4F88C21DAE775
:1032100005F5A674C5F84841C1E74FF0FF30BDE899
:10322000F08700BFFC33000029290000050E0809C3
:103230000D0C06070F0400130393050E08090D0C6F
:1032400006070F04FFFFC585848687C4FFFF0013B0
:1032500003931A9217FFFFFF4008FE4340A004406B
:103260004408FE4344A004400018FE4300C004404C
:103270003000FE43309004403400FE43349004405C
:103280001C18FE431CC004401018FE4310C004402C
:103290000818FE4308C004400C18FE430CC004404C
:1032A0000C10FE430CB004401010FE4310B004405C
:1032B0001810FE4318B004401C10FE431CB004401C
:1032C0001410FE4314B004400418FE4304C004402C
:1032D0000010FE4300B004400008FE4300A004407C
:1032E0000408FE4304A004400C08FE430CA0044064
:1032F0000808FE4308A004401418FE4314C004400C
:103300001818FE4318C004400410FE4304B00440E3
:103310000810FE4308B004401400FE43149004401B
:103320004C08FE434CA004400420FE4304D004405B
:103330002410FE4324B004402010FE4320B004407B
:103340002810FE4328B004402C10FE432CB004404B
:103350000020FE4300D004404808FE4348A004403B
:103360001000FE43109004400D0AFFFF0000000013
:1033700000000000552000004D2000004920000002
:1033800045200000412000003D20000039200000C1
:10339000352000001519151519FFFFFF0001000069
:1033A000608CFF1F12000000000200008C8CFF1FC9
:1033B00095000000050309043C8DFF1F000000007C
:1033C000000300004C8DFF1F0000000001030904F2
:1033D000748CFF1F0000000002030904248DFF1FEE
:1033E0000000000003030904508DFF1F00000000CF
:1033F000000000000000000000000000688DFF1FBA
:10340000F8B500BFF8BC08BC9E467047D52E00003A
:04341000350400007F
:04341400F8B500BF48
:1034180001000000310000007D000000FFFFFFFFF9
:103428000A040000E498FF1FFFFFFFFF7433000049
:1034380000000000E8030000000000000100000098
:103448001201100100000040C01689047502010233
:103458000301000018035400650065006E00730046
:1034680079006400750069006E006F00090295001C
:10347800030100C032080B00020202010009040027
:1034880000010202010005240010010524010101C8
:1034980004240206052406000107058103100040E4
:1034A80009040100020A00000007050202400000AA
:1034B800070583024000000904020002010300001E
:1034C8000724010001250006240201010506240243
:1034D800020205092403010301020105092403026C
:1034E8000401010105090505024000000000052549
:1034F80001010109058402400000000005250101C1
:103508000300000018035400650065006E00730096
:10351800790020004D004900440049000E03500086
:103528006F007200740020003100000004030904D9
:103538000C03000000000000000000000000000074
:103548000000000000000100000000005490FF1F70
:10355800BC90FF1F2491FF1F000000000000000026
:103568000000000000000000000000000000000053
:103578000000000000000000000000000000000043
:103588000000000000000000000000000000000033
:103598000000000000000000000000000000000023
:1035A8000000000000000000000000000000000013
:1035B8000000000000000000000000000000000003
:1035C80000000000000000000000000000000000F3
:1035D80000000000000000000000000000000000E3
:1035E80000000000000000000000000000000000D3
:1035F80001000000000000000E33CDAB34126DE670
:10360800ECDE05000B0000000000000000000000D8
:1036180000000000000000000000000000000000A2
:103628000000000000000000000000000000000092
:103638000000000000000000000000000000000082
:103648000000000000000000000000000000000072
:10397800688DFF1F00000000000000009491FF1FE9
:103988009491FF1F9C91FF1F9C91FF1FA491FF1F03
:10399800A491FF1FAC91FF1FAC91FF1FB491FF1FB3
:1039A800B491FF1FBC91FF1FBC91FF1FC491FF1F63
:1039B800C491FF1FCC91FF1FCC91FF1FD491FF1F13
:1039C800D491FF1FDC91FF1FDC91FF1FE491FF1FC3
:1039D800E491FF1FEC91FF1FEC91FF1FF491FF1F73
:1039E800F491FF1FFC91FF1FFC91FF1F0492FF1F22
:1039F8000492FF1F0C92FF1F0C92FF1F1492FF1FCF
:103A08001492FF1F1C92FF1F1C92FF1F2492FF1F7E
:103A18002492FF1F2C92FF1F2C92FF1F3492FF1F2E
:103A28003492FF1F3C92FF1F3C92FF1F4492FF1FDE
:103A38004492FF1F4C92FF1F4C92FF1F5492FF1F8E
:103A48005492FF1F5C92FF1F5C92FF1F6492FF1F3E
:103A58006492FF1F6C92FF1F6C92FF1F7492FF1FEE
:103A68007492FF1F7C92FF1F7C92FF1F8492FF1F9E
:103A78008492FF1F8C92FF1F8C92FF1F9492FF1F4E
:103A88009492FF1F9C92FF1F9C92FF1FA492FF1FFE
:103A9800A492FF1FAC92FF1FAC92FF1FB492FF1FAE
:103AA800B492FF1FBC92FF1FBC92FF1FC492FF1F5E
:103AB800C492FF1FCC92FF1FCC92FF1FD492FF1F0E
:103AC800D492FF1FDC92FF1FDC92FF1FE492FF1FBE
:103AD800E492FF1FEC92FF1FEC92FF1FF492FF1F6E
:103AE800F492FF1FFC92FF1FFC92FF1F0493FF1F1D
:103AF8000493FF1F0C93FF1F0C93FF1F1493FF1FCA
:103B08001493FF1F1C93FF1F1C93FF1F2493FF1F79
:103B18002493FF1F2C93FF1F2C93FF1F3493FF1F29
:103B28003493FF1F3C93FF1F3C93FF1F4493FF1FD9
:103B38004493FF1F4C93FF1F4C93FF1F5493FF1F89
:103B48005493FF1F5C93FF1F5C93FF1F6493FF1F39
:103B58006493FF1F6C93FF1F6C93FF1F7493FF1FE9
:103B68007493FF1F7C93FF1F7C93FF1F8493FF1F99
:103B78008493FF1F8C93FF1F8C93FF1F9493FF1F49
:103B88009493FF1F9C93FF1F9C93FF1FA493FF1FF9
:103B9800A493FF1FAC93FF1FAC93FF1FB493FF1FA9
:103BA800B493FF1FBC93FF1FBC93FF1FC493FF1F59
:103BB800C493FF1FCC93FF1FCC93FF1FD493FF1F09
:103BC800D493FF1FDC93FF1FDC93FF1FE493FF1FB9
:103BD800E493FF1FEC93FF1FEC93FF1FF493FF1F69
:103BE800F493FF1FFC93FF1FFC93FF1F0494FF1F18
:103BF8000494FF1F0C94FF1F0C94FF1F1494FF1FC5
:103C08001494FF1F1C94FF1F1C94FF1F2494FF1F74
:103C18002494FF1F2C94FF1F2C94FF1F3494FF1F24
:103C28003494FF1F3C94FF1F3C94FF1F4494FF1FD4
:103C38004494FF1F4C94FF1F4C94FF1F5494FF1F84
:103C48005494FF1F5C94FF1F5C94FF1F6494FF1F34
:103C58006494FF1F6C94FF1F6C94FF1F7494FF1FE4
:103C68007494FF1F7C94FF1F7C94FF1F8494FF1F94
:103C78008494FF1F8C94FF1F8C94FF1F9494FF1F44
:103C88009494FF1F9C94FF1F9C94FF1FA494FF1FF4
:103C9800A494FF1FAC94FF1FAC94FF1FB494FF1FA4
:103CA800B494FF1FBC94FF1FBC94FF1FC494FF1F54
:103CB800C494FF1FCC94FF1FCC94FF1FD494FF1F04
:103CC800D494FF1FDC94FF1FDC94FF1FE494FF1FB4
:103CD800E494FF1FEC94FF1FEC94FF1FF494FF1F64
:103CE800F494FF1FFC94FF1FFC94FF1F0495FF1F13
:103CF8000495FF1F0C95FF1F0C95FF1F1495FF1FC0
:103D08001495FF1F1C95FF1F1C95FF1F2495FF1F6F
:103D18002495FF1F2C95FF1F2C95FF1F3495FF1F1F
:103D28003495FF1F3C95FF1F3C95FF1F4495FF1FCF
:103D38004495FF1F4C95FF1F4C95FF1F5495FF1F7F
:103D48005495FF1F5C95FF1F5C95FF1F6495FF1F2F
:103D58006495FF1F6C95FF1F6C95FF1F7495FF1FDF
:103D68007495FF1F7C95FF1F7C95FF1F8495FF1F8F
:103D78008495FF1F8C95FF1F8C95FF1F0000020084
:043D8800FFFFFFFF3B
:00000001FF
