:1000000000800020BD01000025190000DD1800005F
:10001000DD180000DD180000DD180000DD1800000C
:10002000DD180000DD180000DD18000025190000B3
:1000300025190000DD1800001531000019310000FD
:1000400025190000251900002519000025190000B8
:1000500025190000251900002519000025190000A8
:100060002519000025190000251900002519000098
:100070002519000025190000251900002519000088
:100080002519000025190000251900002519000078
:100090002519000025190000251900002519000068
:1000A0001D17000029170000251900002519000060
:1000B0002519000025190000251900002519000048
:1000C0002519000025190000251900002519000038
:1000D0002519000025190000251900002519000028
:1000E0002519000025190000251900002519000018
:1000F0002519000025190000251900002519000008
:1001000025190000251900002519000025190000F7
:1001100025190000251900002519000025190000E7
:1001200025190000251900002519000025190000D7
:1001300025190000251900002519000025190000C7
:1001400025190000251900002519000025190000B7
:1001500025190000251900002519000025190000A7
:1001600025190000F51E00002519000025190000C2
:100170002519000025190000251900002519000087
:100180002519000025190000251900002519000077
:100190002519000025190000251900002519000067
:1001A0002519000025190000251900002519000057
:1001B000251900002519000025190000564B4CF2A6
:1001C000205210B51A804DF628121A8000BF00BFC9
:1001D00001F0ACFB514B4FF010621A60504A9A602C
:1001E000504ADA60504A136813F4807304D14F49BF
:1001F0000B604FF4A85313604D4B1A78110703D5C9
:100200001A7842F008021A704A4B4B492A221A7097
:100210004A4A4B4B8B4204D252F8040F43F8040B6A
:10022000F8E7484B484900228B4202D243F8042B9E
:10023000FAE74649464A002352F8230041F82300D2
:1002400001336F2BF8D1434B434A802103F8011B44
:100250009342FBD1414B3D4A1A60414B8A221A70AE
:10026000A3F5805324225A70A0221A709A7992071B
:10027000FCD59A79D406FCD43A4A937903F00C035E
:10028000082B384BF9D103221A7140225A719A79FE
:100290009006FCD5334A9179324B4906FBD5324A58
:1002A000324911600221516020221A709A7902F0BD
:1002B0000C020C2AFAD12E4B2E4A1A602E4B2F4AD2
:1002C0001A6000225A60072243F8042C2C4AC3F813
:1002D0000C2D62B601F0E4FC144B1B68DA0705D55F
:1002E000284801F061FC284B284A1A60284B1B78EB
:1002F0005B0609D5244C254B22689A4204D121483B
:1003000001F052FC0023236001F016FB03F0E8F833
:1003100002F066FFFEE700BF0E200540308004407B
:10032000823F04000100002B10D0034014D0034092
:1003300002D0074000E00740EC98FF1F0841000092
:10034000308CFF1FEC98FF1F7C9CFF1F0082FF1F5B
:100350000000000000E400E05FE400E008ED00E0E1
:100360000050064000400640448004400000030165
:1003700004800440C010050014E000E0FF76010096
:1003800000002020230023631CE00340A5C3945AEF
:1003900000F00740FFFFFFFFFFFFFFFFFFFFFFFF32
:1003A000FFFFFFFFFFFFFFFFFFFFFFFFFFFFFFFF5D
:1003B000FFFFFFFFFFFFFFFFFFFFFFFFFFFFFFFF4D
:1003C000FFFFFFFFFFFFFFFFFFFFFFFFFFFFFFFF3D
:1003D000FFFFFFFFFFFFFFFFFFFFFFFFFFFFFFFF2D
:1003E000FFFFFFFFFFFFFFFFFFFFFFFFFFFFFFFF1D
:1003F000FFFFFFFFFFFFFFFFFFFFFFFFFFFFFFFF0D
:10040000FFFFFFFFFFFFFFFFFFFFFFFFDEF9FFFF23
:1004100010B5054C237833B9044B13B10448AFF33E
:1004200000800123237010BDEC98FF1F0000000026
:1004300004410000084B10B51BB108490848AFF350
:1004400000800848036803B910BD074B002BFBD0A0
:10045000BDE81040184700BF00000000F098FF1FE3
:1004600004410000EC98FF1F00000000F8B5244C88
:1004700001210D2001F0C0FB2378BBB9214800F019
:10048000CDFB90B9237893BB01210D2001F0A0FB97
:100490004FF4FA7001F0B6FB00210D2001F098FB3B
:1004A0004FF4FA7001F0AEFBEEE7F8BD164A1749BB
:1004B0001768174E174D40F2EE200B784BB133788A
:1004C000DB0706D51368D5F800E0CEEB03030E2B4F
:1004D000D4D8136891F800E0DB1BBEF1000F03D005
:1004E000B3F5FA6FE9D9C9E78342E6D9C6E7232213
:1004F00009490A4802F08AFE084802F015FEC3E7DF
:100500002899FF1F3C99FF1F6899FF1F5C9AFF1FE6
:10051000D89AFF1F749CFF1F443E0000908FFF1F5E
:100520002DE9F0470D2082B0012101F051FBC248B6
:1005300000F038FD002840F0CA80BF4800F0C4FC3D
:10054000002840F0BA80BC4800F0E8FC00BBBB4982
:10055000BB4A0B680093009B10681B1A642B08D9D8
:10056000B84B096801911B7801991160002B40F08C
:10057000DE8000210D2001F02BFB002002F020FA8C
:100580000028FAD10A2001F03DFB02B0BDE8F08757
:10059000AD4DDFF80483DFF80493AC4FA648AC4EB2
:1005A000AC4C2B464246494600F0F4FC3B68786868
:1005B0002A68D9F800C0D6F80090D8F80010D4F80E
:1005C0000080C3F1640500FB05F5642000FB03F324
:1005D0000CFB035CA04BA14DD3F800E07368C9EBA2
:1005E000000A03FB0AFA636800FB09F90CF1320CFC
:1005F00000FB08F0C8F1640803FB08F801FB09A13F
:1006000085FB0C934FEAEC7CCCEB631302FB00827E
:1006100003F1320085FB008C4FEA0E4EC017C0EB91
:10062000EC1032310EF4FE0E85FB018C32320006E6
:100630004EF4304EC917C1EB6C114EF00B0E85FB1A
:10064000028C00F0FE40D217C2EB6C124EEA0000A2
:1006500071607B60626002F04BF9814B72681868D0
:10066000323285FB02130004D217C2EBE31200F40E
:10067000FE00120640F4304002F0FE4240F00B0053
:10068000104302F035F9774A63681068323385FB0E
:1006900003250004DB17C3EBE51300F4FE001B0683
:1006A00040F4304003F0FE4340F00B00184302F0EA
:1006B0001FF90A2001F0A6FA49E75F4800F028FC7C
:1006C00003283FF640AFDFE800F0827C766F664D8E
:1006D0005948624C654E00F077FC2B686A686421CB
:1006E00001FB03F100FB01F0C3F1640302FB030211
:1006F000323284FB0213D217C2EB631330686B6093
:10070000323384FB03120004DB17C3EBA21300F4A3
:10071000FE001B0640F4304003F0FE4340F00B00A7
:10072000184302F0E5F80A2001F06CFA05E74E4B99
:100730004A4C5B684E48323384FB0321DB17C3EB22
:10074000611102F045FD01214A4802F0BDFB3F4B1B
:1007500047485B68323384FB0321DB17C3EB61112D
:1007600002F036FD0121434802F0AEFB384B404811
:100770005B68323384FB0321DB17C3EB611102F0AA
:1007800027FD01213B4802F09FFB324B38485B6854
:10079000323384FB0321DB17C3EB611102F018FD38
:1007A000334802F0C1FCE4E6264B1B78002B40F0F6
:1007B0008780314C0FE0234B1B78002B78D12F4CD6
:1007C00009E0204B1B78002B6AD12D4C03E01D4B18
:1007D0001B784BBB2B4C23682B481B0403F4FE03F4
:1007E000184302F085F8236828481B0403F4FE032D
:1007F000184302F07DF80A2001F004FA2368244827
:100800001B0403F4FE03184302F072F8206800048E
:1008100000F4FE0040F4304040F00B0002F068F8B5
:100820000A2001F0EFF98EE613211A4802F04CFB82
:100830000F4802F079FCCDE73C99FF1F6899FF1F34
:100840001099FF1F2899FF1F3899FF1F0899FF1F54
:100850003099FF1F2099FF1F248DFF1F1F85EB512B
:10086000188DFF1F108DFF1F1499FF1F2C8DFF1F68
:10087000908FFF1FC43E0000148DFF1F1C8DFF1FB3
:10088000208DFF1F288DFF1F0BB0007F0990006493
:1008900008800064683E00002C99FF1F1C99FF1F10
:1008A00015210B4802F010FB0A4802F03DFC8CE7D2
:1008B0001521094802F008FB064802F035FC7EE7E6
:1008C0001621064802F000FB024802F02DFC70E7FA
:1008D0007C3E0000908FFF1F943E0000AC3E000065
:1008E00030B40848084D094C09491E22002385E808
:1008F0000C0084E80C0080E80C0081E80C0030BC9F
:10090000704700BF2099FF1F0899FF1F3099FF1FF4
:100910001499FF1F0020704790F8612090F8600044
:10092000101A704790F8603090F861209A4205D90B
:100930005A1C034480F86020187E70474FF0FF3047
:10094000704700BF704700BF10B52821044602F071
:100950004FFC204610BD00BF38B543687222012508
:1009600083F8632083F8AE5083F8AD5004464068A6
:1009700003681B6898472946606800F037FDB0FAA5
:1009800080F0400938BD00BF70B50446012563689A
:10099000722083F8AE5083F8AD5083F8630060682E
:1009A00003681B68164698476068036831461B68F1
:1009B00098472946606800F019FDB0FA80F04009B8
:1009C00070BD00BF70B516460546FFF7C5FF10B9EC
:1009D0000024204670BD01231A4604463921686868
:1009E00000F08EFD6868154A03681B6993421AD1AE
:1009F00090F8613090F86000181A0028E8D0686814
:100A00000F4A03685B69934211D190F8603090F807
:100A100061209A420FD95A1C034480F86020187E46
:100A20003070204670BD98470028D1D0E7E798473E
:100A3000C0B23070F5E7FF203070F2E7190900000E
:100A40002509000030B583B00D460DF10702AB213A
:100A50000446FFF7B7FF50B19DF807204DB902F0EB
:100A6000FD028DF807202046AB21FFF78DFF03B074
:100A700030BD42F002028DF80720F4E730B583B0B4
:100A80000D460DF10702AB210446FFF79BFF50B165
:100A90009DF807204DB902F0FE028DF80720204690
:100AA000AB21FFF771FF03B030BD42F001028DF8BA
:100AB0000720F4E710B582B00DF10702802104464B
:100AC000FFF780FF18B19DF80720D30701D502B0CA
:100AD00010BD42F001031A46204680218DF80730F0
:100AE000FFF752FF02B010BD10B582B00DF1070242
:100AF00080210446FFF766FF28B19DF80720930781
:100B000003D50123A37302B010BD42F002031A46BD
:100B1000802120468DF80730FFF736FFA07302B022
:100B200010BD00BF10B582B00DF107028021044650
:100B3000FFF748FF38B19DF8072002F0020303F0E9
:100B4000FF0113B9A17302B010BD02F0FD031A46F4
:100B5000802120468DF80730FFF716FF80F0010353
:100B6000A37302B010BD00BF10B582B00DF1070233
:100B700080210446FFF726FF28B19DF80720530780
:100B800003D50123637302B010BD42F004031A467B
:100B9000802120468DF80730FFF7F6FE607302B023
:100BA00010BD00BF10B582B00DF1070280210446D0
:100BB000FFF708FF38B19DF8072002F0040303F0A7
:100BC000FF0113B9617302B010BD02F0FB031A46B6
:100BD000802120468DF80730FFF7D6FE80F0010314
:100BE000637302B010BD00BF10B582B00DF10702F3
:100BF00080210446FFF7E6FE18B19DF80720130791
:100C000001D502B010BD42F008031A4620468021EB
:100C10008DF80730FFF7B8FE02B010BD30B50446BE
:100C200083B0406800F04CFA20460DF10702922193
:100C3000FFF7C8FE18B19DF80730AB2B03D0002595
:100C4000284603B030BD002280212046FFF79CFEDD
:100C50000028F4D0FF2283212046FFF795FE0028CC
:100C6000EDD08F22A6212046FFF78EFE0028E6D089
:100C70008F228E212046FFF787FE0028DFD001213A
:100C80002046FFF7DFFE0028D9D001212046FFF7DC
:100C9000F5FE0028D3D02046FFF70CFF0028CED069
:100CA0002046FFF7A1FF0028C9D0FC228121204661
:100CB000FFF76AFE0028C2D002228F212046FFF7EC
:100CC00063FE0028BBD00A2000F09CFF2046FFF7FF
:100CD000F1FE05460028B2D0A0680028B0DBC0B203
:100CE000002100F089FFABE710B582B00DF10702DB
:100CF00080210446FFF766FE28B19DF807205306C1
:100D000003D50123237302B010BD42F040031A46FD
:100D1000802120468DF80730FFF736FE207302B0A1
:100D200010BD00BF2DE9F047164698460546FFF76F
:100D300013FE20B94FF0000A5046BDE8F0875FFA75
:100D400088F2012339216868184FDFF8649000F0B9
:100D5000D7FBB0443446686803681B69BB42C6EBE6
:100D6000040A1BD190F8613090F86000181A00282E
:100D7000E2D0A045DED0686803685B694B450FD1BF
:100D800090F8602090F8613093420CD9531C0244D3
:100D900080F86030107E04F8010BDCE79847E6E746
:100DA0009847C0B2F7E7FF20F5E700BF1909000038
:100DB0002509000010B582B00DF10702AF210446ED
:100DC000FFF700FE88B19DF80730DB070AD50DF16B
:100DD00007022046AE21FFF7F5FD48B19DF8070058
:100DE00002B010BD6FF00100FAE74FF0FF30F7E7F7
:100DF0006FF00200F4E700BF2DE9F0430446A1B014
:100E000000252046FFF7D6FF002858DD830003F0B9
:100E1000FC036A46FC212046FFF784FFC0B200288D
:100E20004DD00328EDD9061F26F0030605366E4483
:100E30000DF101034FF001094FF0030C4FF0020ECA
:100E400029E01D282FD8B8F11D0F2CD81D292AD82C
:100E5000A06984F80F90E26900B9CAB12169276AD4
:100E60002561C1EB000878426169A5618045B8BF82
:100E7000C4F824E0521AB845C8BFC4F824C082425E
:100E8000B8BFC4F82490BA42C8BF65626561E56125
:100E90000433B342B5D013F8012C187893F80180CD
:100EA00099781D2ACDD9E77BC8EB0101121A21617F
:100EB0006261002FECD0E573A161E261E8E70020F8
:100EC00021B0BDE8F08300BF037B10B50446BBB181
:100ED000A06800280DDBC0B200F080FE70B920468B
:100EE000FFF78AFF637B73B9606A013018BF012086
:100EF00010BD2046FFF75EFF0028F0DC002010BD8B
:100F0000FFF7F2FEE4E700212046FFF7B7FDEBE72D
:100F100003464FF0FF32406A5A62704710B50446EC
:100F200082B0FFF7E1FD20460DF107029321FFF7A4
:100F300049FD18B19DF8070000F0010002B010BD96
:100F4000F0B583B00E4615461C466A460823942128
:100F50000746FFF7E7FE40B9089A4FF0FF333360CA
:100F60002B602360136003B0F0BD0898BDF800E06B
:100F7000BDF80210BDF80420BDF80630C0F800E04E
:100F8000316038462A602360FFF7CCFD012003B0B2
:100F9000F0BD00BF10B584B003AC0094FFF7D0FFE4
:100FA00004B010BD10B5044682B0FFF7DDFD204649
:100FB0000DF107029321FFF705FD18B19DF8070019
:100FC000C0F3400002B010BD10B582B00DF10702B1
:100FD0009C210446FFF7F6FC40B12046FFF7E2FDF6
:100FE0009DF80700C0F1FF0002B010BD4FF0FF30C8
:100FF000FAE700BFF0B40D4B0D480E4F1860002407
:101000004FF0FF3514265F601E629D605D621C73A9
:101010005C739C73DC731C615C619C61DC61064ADF
:1010200006491846F0BC02F049BA00BF3C99FF1FC0
:10103000D03E0000308DFF1F0C8DFF1F45090000C2
:1010400090F8603090F861209A4286BF1B18187E95
:101050004FF0FF30704700BF704700BF38B50546FE
:10106000B0F8AE0090B195F8AD301446C3F1490226
:1010700094420CD805F163001844224600F05AFB54
:1010800095F8AD30234485F8AD30204638BD0120B9
:1010900014462871EEE700BFB0F8AE306BB190F89F
:1010A000AD30482B07D8C218013380F8AD3001208D
:1010B00082F863107047012303710020704700BF5E
:1010C0000023426980F8603080F8613080F8AC30ED
:1010D00080F8AD3080F8AE3080F8AF3006CA30B45A
:1010E0000D680469C0F8B4302A43C0F8B8300A600B
:1010F000A370426990F8B1301649146813441D7A00
:101100005B7B01EBC5051B026D6803F4E06343F0F4
:1011100064032B6090F8B23013449D7CDB7D01EBBF
:10112000C5011B02496803F4E06343F064030B60EC
:1011300021685368194205D0036927225A70036950
:1011400004229A71036920225A71036980229A70DD
:1011500030BC70473C3F000010B50269D378DBB269
:10116000D90604463ED510215806D17039D503F072
:10117000040303F0FF02002B52D03E49D4F8B42000
:1011800000230B7084F8AD30002A5BD0904794F8B0
:10119000AD30002B56D02369D0229A70236994F881
:1011A00063201A712369012284F8AC200222DA70CC
:1011B00010BD314B84F8B0009C424AD02F4B9C426A
:1011C00052D094F8611013794729DBB207D8294827
:1011D000007820B16018013184F861100376022391
:1011E000D37010BD5906C2D4917801F0100101F0FE
:1011F000FF000029DDD013F001031ED194F8AC10DC
:1012000094F8AD00884281BF4B1C091984F8AC30BA
:1012100091F8633013712369D0229A702269DEE756
:10122000236984F86120C0229A702369114A1979D0
:10123000012111700222DA7010BDC023937022695F
:101240001379CCE70122002384F8AD2084F86330C1
:10125000A1E7626994F8B130094913440322187A6E
:1012600000F0E2FB2269ACE7626994F8B13005490D
:10127000F3E700BF6499FF1F308DFF1FEC8DFF1F48
:10128000E9120000F51200000369DB7803F0200387
:1012900073B190F8B0300133DBB2012B80F8B0307D
:1012A0001BD9426990F8B1301344187A00F038BC69
:1012B00070B5426903F0FF0590F8B130134404465D
:1012C000187A00F02DFCD4F8B8305BB184F8605087
:1012D00094F86100BDE87040184790F8AF30002BDB
:1012E000DFD0704770BD00BF0148FFF7CDBF00BF22
:1012F000308DFF1F0148FFF7C7BF00BFEC8DFF1FF8
:101300002DE9F047374FDFF8E0903B68026982B083
:1013100006460093DDF800800021A025D3789B06C7
:101320005BD53B680193019BC8EB03030F2BF5D9F9
:1013300049B1102BF2D000209070336980229A704E
:1013400002B0BDE8F087726996F8B1301344052108
:10135000187A00F051FC726996F8B13013440121FB
:1013600093F812A0504600F047FC09240021504693
:1013700000F02EFC2B46013BFDD10121504600F030
:1013800027FC2B46013BFDD1013CEFD1706996F85B
:10139000B11001444FF4A0720C7A4B7B09EBC401ED
:1013A0001B02496803F4E06343F064030B6096F8A2
:1013B000B2300344997CDB7D09EBC1011B02496813
:1013C00003F4E06343F064030B60013AFDD132693A
:1013D000D3789B064FF00101A3D4012002B0BDE8F1
:1013E000F08700BF6899FF1F3C3F0000F0B503691C
:1013F0001222DA700269937803F0200385B0044664
:101400000D46002B5ED0B42393703C4922690B68D3
:101410000093009E05E00B680193019B9B1B042B2E
:1014200042D8D37803F0200303F0FF00002BF2D062
:1014300094F8AD30002B31D04FF0000E4FF0020C7D
:1014400004EB0E0393F8633013710B680393039F4F
:10145000206907E09B060DD50B680293029BDB1BFE
:10146000052B28D8C378DBB203F0020202F0FF0696
:10147000002AEFD080F803C02669F378DBB2DF06DC
:1014800032462DD49F062BD5DB0731D40EF1010E49
:1014900094F8AD305FFA8EFE7345D1D800201DBBA5
:1014A000002384F8AE3004E09070236980229A70A3
:1014B000042005B0F0BD86702369802204209A7054
:1014C00005B0F0BD03F0FF06FFF71AFF10B90420C6
:1014D00005B0F0BD236984F8AF60B0229A7094E73C
:1014E0008023B3700420DAE726698023B370D7E73E
:1014F000BEF1000F0CBF02200320F6E76899FF1F22
:101500002DE9F04106690025122780F8605080F827
:101510006150F770D0F810C09CF802E00EF0200E79
:1015200088B00446884615461E46BEF1000F49D0D5
:10153000B4238CF80230784B21691A680092DDF8E8
:1015400000E006E01A6801920198CEEB0000042842
:1015500030D8C87800F0200000F0FF070028F1D054
:101560004FEA480242F00102D2B20A711A680292AE
:10157000DDF808E0206906E01A6803920399CEEBD3
:10158000010105292AD8C17801F0020101F0FF0705
:101590000029F1D04FF0020C80F803C02269D17805
:1015A00011F0110722D12DBB002E0CBFA0238023E8
:1015B000937003E08F70236980229A70384608B0D8
:1015C000BDE8F0810EF0FF07FFF79AFE0028F5D086
:1015D000236984F8AF70B0229A70ACE787702369F2
:1015E000802238469A7008B0BDE8F081802393705D
:1015F0000027E3E7012D75D0A021917021690A79B8
:10160000BE4667464FF0A80C1A680492049805E09D
:101610001A680592059A121A052A4AD8CA7802F061
:10162000020202F0FF08002AF2D0CF702169CA78C6
:10163000D2B212F0100F08465AD1920658D5013D89
:10164000EDB2012D49D0BEF1470F3BD90A79012DEA
:10165000DAD11A680692069D05E01A680792079A81
:10166000521B052A46D8C27802F0020202F0FF019E
:10167000002AF2D00223C3702269D378DBB2D906E4
:101680003AD49B0634D5B023BEF1470F93703FD8B0
:10169000226904EB0E0312791A760EF1010E5FFA3D
:1016A0008EFE16B1236980229A7084F861E0774635
:1016B00084E781F80280236980229A70774684F853
:1016C00061E07BE704EB0E0291F8048082F8188059
:1016D0000EF1010E5FFA8EFEB9E781F802C02169B2
:1016E0000846B0E7A82191702069BE460279B0E7AC
:1016F000774663E78170DEE71021A023D170013BBC
:10170000FDD12269937803F0F7037746937055E78C
:1017100023691B79C5E700BF6899FF1F0148FFF7E0
:101720001BBD00BF308DFF1F0148FFF715BD00BF77
:10173000EC8DFF1F01B441EA000313F003036FD1E6
:10174000403A41D351F8043B40F8043B51F8043B84
:1017500040F8043B51F8043B40F8043B51F8043B8B
:1017600040F8043B51F8043B40F8043B51F8043B7B
:1017700040F8043B51F8043B40F8043B51F8043B6B
:1017800040F8043B51F8043B40F8043B51F8043B5B
:1017900040F8043B51F8043B40F8043B51F8043B4B
:1017A00040F8043B51F8043B40F8043B51F8043B3B
:1017B00040F8043B51F8043B40F8043B51F8043B2B
:1017C00040F8043B403ABDD2303211D351F8043BCB
:1017D00040F8043B51F8043B40F8043B51F8043B0B
:1017E00040F8043B51F8043B40F8043B103AEDD27A
:1017F0000C3205D351F8043B40F8043B043AF9D2CB
:1018000004320AD0D2071CBF11F8013B00F8013B9B
:1018100003D30B7803704B78437001BC704700BF53
:101820000C2A4AD310F0030311D0C3F10403D21AD7
:10183000DB071CBF11F8013B00F8013B07D311F88F
:10184000013B00F8013B11F8013B00F8013B11F0AE
:1018500003033FF475AF30B4043AC91AC3F1040C62
:1018600051F8044B022B19D0032B0BD0240A51F84A
:10187000043B1D0644EA050440F8044B1C46043AA8
:10188000F4D216E0240E51F8043B1D0244EA05048C
:1018900040F8044B1C46043AF4D20AE0240C51F8F8
:1018A000043B1D0444EA050440F8044B1C46043A7A
:1018B000F4D20432B1EB0C0130BC043AA0D3013AAB
:1018C00011F8013B00F8013BF9D20B7803704B781B
:1018D00043708B78837001BC704700BF08B5104C13
:1018E00008E0236859050DD423681A050FD423682E
:1018F000DB0411D423685803F3D500F0FBFA236806
:101900005905F1D500F00EF823681A05EFD500F05F
:1019100009F82368DB04EDD500F004F8EAE700BF1E
:101920003480044008B5FFF7D9FF00BF014B1022F7
:101930001A80704700200540704700BF094908B56C
:101940000B6830B16A461844A2F58052904202D228
:101950000860184608BD01F0BDFD0C2303604FF080
:10196000FF3008BDA88EFF1F704700BF10B40F4B9B
:1019700053F8302092F880422CB1012369B182F8EB
:10198000803010BC704703EBC0035B681A6841B934
:1019900022F002021A6010BC704782F8003110BCBD
:1019A000704742F003021A6010BC70473C3F0000D1
:1019B0001C4A02EBC00301295B6811D004291BD02B
:1019C00052F83000002280F8802229B1022920D06C
:1019D000032922D01A6070474FF480721A60704752
:1019E00052F830004FF4A27280F880121A601A6820
:1019F00022F020021A60704752F830104FF4A272A1
:101A0000012081F880021A601A6842F020021A60F0
:101A1000704740F203121A6070474FF481721A60E7
:101A2000704700BF3C3F0000212848D8F8B5042A81
:101A300044D8DFE802F0484B4E0345004FF410262F
:101A40002B4B03EBC0030D465C68216811F4E06189
:101A500048D0284B284A2949C3F89C2104F1404228
:101A60002748C3F8A411A2F59221264FC3F8A0017C
:101A70007C292548C3F8A871C3F8AC012CD9A2F57C
:101A800094237C2B2AD9A2F596237C2B28D9A2F566
:101A900098237C2B29D9A2F59A227C2A27D81B4887
:101AA00072B6236823F4702343F08072C4F3840178
:101AB0001643236040F82150266062B6F8BD704797
:101AC0004FF43026BCE74FF40026B9E74FF4402628
:101AD000B6E74FF42026B3E70D48E1E70D48DFE70E
:101AE0000D48DDE7FFF764FFB3E70C48D8E7F8BD22
:101AF0003C3F00000082FF1FE18CFF1F898CFF1F0D
:101B0000B58CFF1F5D8CFF1F318CFF1F848FFF1F63
:101B1000AC8EFF1FE48EFF1F348FFF1F648FFF1FEB
:101B20001A4B03EBC00010B4426802F14043A3F526
:101B300092217C2923D9A3F594217C290DD9A3F5E1
:101B400096217C291FD9A3F598217C2919D9A3F5C1
:101B50009A237C2B11D80E4C00E00E4C72B6136801
:101B60000D4823F08773C2F3840123F4803343F0DC
:101B70008073136044F8210062B610BC7047074CB4
:101B8000ECE7074CEAE7074CE8E700BF3C3F000002
:101B9000848FFF1FE48EFF1F69190000AC8EFF1FAA
:101BA000648FFF1F348FFF1F30B4054B054D064C6B
:101BB000002210211A602A602060196030BC704732
:101BC00014D0034004D0034000D00340704700BF4E
:101BD000212801D8FFF7CABE704700BF212806D8C8
:101BE000044B53F8303093F80002C0B27047002025
:101BF000704700BF3C3F0000212801D8FFF7D8BE46
:101C0000704700BF2DE9F843054672B6204F214BBF
:101C1000214A1B683C68126862B6520102D5322B19
:101C200088BF013495B3C3F5BB331C4EDFF8649015
:101C3000DFF86480FF334FF47A72A6FB031302FBD4
:101C400004F404EB931472B6D9F800103A68D8F88B
:101C500000E062B6C1F5BB33FF33A6FB03031EF001
:101C6000806FC4EB93134FF47A7002D0322988BF8F
:101C7000013200FB0233B3F57A7F04D3013D05D076
:101C800004F57A74DFE701F0C9FADCE7BDE8F88310
:101C90006899FF1F18E000E004ED00E0ABAAAAAAD3
:101CA000F8B52E4B2E49DFF8D4E0DFF8D4C02D4E26
:101CB0002D4D2E4C2E4A2F4F4FF4000018604FF040
:101CC000807018604FF0007018604FF080601860EE
:101CD0004FF0006018600020086028234BF6FF7169
:101CE000CCF80010CEF80030336013602B60236016
:101CF0003B60B3629362092245F8242CC4F8D80FE4
:101D000005F57F65C7F8D41F07F5FF2707F5FA67C4
:101D1000C6F8F83F2B6006F5FF26C4F8D42F05F56A
:101D2000FD2504F5FF24386006F2F4761248316090
:101D300005F5FF6504F5FD642B602360026001F08A
:101D4000E3FAFFF743FF1420FFF75CFF00F00CFD00
:101D50004FF48C70BDE8F840FFF754BF08E100E095
:101D60000480034014800340248003402C800340FF
:101D70001C8003403480034000800B400C800340F3
:101D800008800340431E042B14D872B60A4951F848
:101D9000230068B170B4094C058834F813204668F4
:101DA00041F82360521B24F8132062B670BC7047C0
:101DB00062B6704700207047C899FF1F349BFF1F11
:101DC000013804280BD872B6074B53F8203043B1C2
:101DD00000205B680130002BFBD162B67047002009
:101DE00070471846F9E700BF209AFF1FF0B472B69B
:101DF0001A491B4E012311F8014B194F9A00240771
:101E000042F0010505D556F8324064B156F8352048
:101E1000BAB10133062BEED162B6124B00221A7012
:101E2000F0BC00F01BBD0F4C0F4D217807EB4313A6
:101E3000083001395860217047F8325062B6F0BC62
:101E40007047084A0949137807EBC5040830013B7D
:101E50006060137047F8351062B6F0E77840000014
:101E60000080FF1F519AFF1F88004000C8004000FB
:101E7000431E042B1DD81B4A400140F0100030B413
:101E8000104472B6184CE25C032A1BD8DFE802F05B
:101E90000212151703220D88E25410F0080F14BF28
:101EA000C823882343EA054308314160036062B6D2
:101EB00030BC704708300222EDE70522EBE708301E
:101EC0000422E8E7094A52F8230038B1084A52F8D8
:101ED0002300416042F8231062B6E9E742F823107C
:101EE000034AF7E70080FF1F609AFF1F209AFF1F39
:101EF000349AFF1F2DE9F04FDFF818B3DFF818A36D
:101F000087B044E0AE4F4FEA930807EBC809013EA3
:101F1000D9F8042003F00803F6B2A2F1080003F098
:101F2000FF04002B40F0058157F838301B0C99B2A4
:101F300022F8081C002B00F0F380A24B22F8064C7C
:101F400042F8044C53F82620002A00F06E819E4D82
:101F500055F8263058609D4C45F8260034F8163068
:101F6000194424F8161000F059FC002800F056819E
:101F7000974A984B19F0080F00F1080018BF134654
:101F8000C9F8040047F8383008238BF800309BF874
:101F90000040E4B261071DD58F4B1B78BBB18F4960
:101FA0000A7802F0FF032AB1013BDBB20B70002B71
:101FB00000F0B4838A490A7802F0FF032AB1013B9A
:101FC000DBB20B70002B00F0F88000F0DFFC042384
:101FD0008BF8003004F0080303F0FF02002B00F040
:101FE000D5809AF80030DBB21E098BD19C08DFF84F
:101FF000D09159F8342009EBC401C2F38302013AAD
:1020000049680C2A7DD8DFE802F080807C7C7C7CEB
:102010007C7C447C7C7C07000868724D6C4F4A686D
:10202000714B49F8347081B2704E6A6040F281643D
:1020300000222860A1424FF00100C9F8102001934E
:102040001A60C9F81820307000F2F380B1F5D06F33
:1020500080F03383B1F5817F00F0CE8200F24C81B5
:10206000802900F02482822940F08D82A98801F025
:102070007F01052900F287825D4F5E4C89000F4485
:10208000227062703A78970740F132832070022004
:1020900011E2554B01931A684AB3574B5749534EB7
:1020A00018880C7837784028054684F0010E28BF40
:1020B000402544F00204002F81F800E0A0EB050069
:1020C00009EBC40E0CBF8821C82180B287F001073C
:1020D00041EA0541CEF80420188037702A4449F8B7
:1020E000341010B9402D18BF0022019B1A603D4BDF
:1020F0001A88B2F5A06F04D100219A785970404B2C
:102100001A70404A012313703EE7364A158842F29E
:102110002100854200F05A812D4A49F83420F0E729
:102120002B4A2C4B19F0080F18BF134647F83830CC
:102130002AE700F093FB344A344952F82630002B4A
:1021400000F0348158688C5D42F8260003F10802E3
:10215000C9F80420032C05D8DFE804F0120F15029B
:1021600004228A551A8819F0080F0CBF8823C82347
:1021700043EA024347F8383006E702228A55F1E77E
:1021800003228A55EEE705228A55EBE7E00700F1C6
:102190005781210600F18181A20706D51C4A1D49FD
:1021A00013780220DBB213700870E30602D5194BD6
:1021B00010221A7007B0BDE8F08F00F065FF04E749
:1021C0000080FF1FC899FF1F7099FF1F349BFF1FDE
:1021D000C8004000880040005C9AFF1FDD99FF1F87
:1021E000C89AFF1F489AFF1F6C99FF1FDC99FF1FB9
:1021F000C0200740549AFF1F8499FF1F509AFF1F69
:102200009820074094200740209AFF1F609AFF1FE4
:10221000882007408020074090200740B64A47F8B2
:102220003800137801331370AEE643F82600B34D3F
:1022300091E642F22104A14200F0B48000F2ED8068
:10224000B1F5086F00F05381B1F5106F40F09B813C
:10225000AB4AA9781170AB4D042402E00134182C6C
:102260000CD059F834301A06F8D505EBC403013404
:102270005868083800F0F2FA182CF2D1A249A34BA2
:10228000A34A0291A3499D4DA34C0596039504943E
:102290004FF000080E4615461C46206828B14768D6
:1022A00000F0DCFA3846002FF9D100232360039BAD
:1022B00028681A46002342F8283028B1476800F001
:1022C000CDFA3846002FF9D100222A60029A3378DD
:1022D0001146002241F8042B049A0291023B4FF070
:1022E000000122F81810032B00F29A81DFE813F0A6
:1022F000C7019501C701950140F20232914240F0B9
:102300003781A98801F07F01052900F23C816A88A4
:10231000002A40F03881814C89000C4480462178A5
:1023200041F0020121700020029084468646044656
:102330007B490D7845F0020709EBC703B8F1000FA0
:102340005C600CBF8824C82444EA0C0385F00104B7
:1023500049F8373032700C706A4F724BDFF8C0C1E9
:10236000002840F01781BEF1400F1BD144F0020459
:1023700009EBC403029FDFF88CE15F60002A40F0A4
:102380001E81020442F0880286F800800D70074426
:102390004EF834203B46402804D10020624A01997F
:1023A00010800B60614A01231370AAE68B5D032B3A
:1023B00000F21B8101A252F823F000BF891F000028
:1023C000891F00008F24000095240000928862B9C4
:1023D000574ACD1D11F8013B02F8013F8D42F9D15A
:1023E000544A1268862A00F0BF804D494D4E087845
:1023F000327840F0020580F00100087009EBC50159
:10240000002A4FF00000486082F001020CBF8821D2
:10241000C82149F8351032707EE642F22124A142EB
:1024200040F0AD80A988002940F06081424F434AC6
:10243000434C3F68AD78176080460A46257072E7C6
:102440003A49304B3F48364EDFF8D0C03E4DDFF8BA
:1024500010E13E4F02240C703D4C18605C609860A7
:102460003C48D8601A619A610D2332703A4C8CF85E
:1024700000303A4EFF232B7001209F258EF800304C
:102480003A7033702570087007B0BDE8F08F0023F4
:102490008B5579E501238B5576E52049304B802219
:1024A0000D2008701A70A2077FF57FAE76E62D4CDE
:1024B000022022706270EA88824280F030811849DE
:1024C0000D78402A45F00207964609EBC70028BF61
:1024D0004FF0400E04EB0E0344600293CEEB02007B
:1024E0004FEA0E4C4FF001080022C8242CE7044AA2
:1024F0001C4C12782270DEE7519AFF1F7099FF1F63
:102500005C9AFF1F0080FF1F349AFF1FC899FF1FAE
:10251000209AFF1F609AFF1F349BFF1FC0200740B7
:10252000509AFF1FDC99FF1F8499FF1F94200740DA
:102530006B9CFF1F6C9CFF1F6899FF1F749CFF1F03
:10254000D89AFF1F88004000882007409820074045
:102550008899FF1FE099FF1F842007408C200740C7
:1025600080200740549AFF1F754A0F2111703CE7E5
:10257000B1F5A06F07D100224FF00108D3E642F277
:1025800021329142F7D06F4B0F221A706E4A01230D
:102590001370B6E540287FF6E9AE44F0020407EB7D
:1025A000C401029E4E60AAB183F80080674A8CF88D
:1025B000005033464038403347F83420EEE6029B63
:1025C00086F80080020442F0C8020D7003444EF801
:1025D0003420E0E683F80080029B5D4A8CF80050CE
:1025E0004038403347F83420D8E619F0080F0CBFC4
:1025F000022303238B55C7E4A98801F07F01052935
:10260000C1D86A88002ABED14E4C89000C4480464D
:10261000217821F00201217085E64FF0010333702B
:1026200008F10108B8F1050F04F1040405F10405EF
:1026300006F101067FF431AE464B059E464D474FED
:10264000002119704FF0010817F8013B05F8043B11
:102650001B0718D44FEA880444F0020244F0030434
:10266000002349F8323049F834303D4B9D4208F19F
:102670000108E9D196F8008088F0010253E64FF096
:1026800000033370CCE700F0C9F800283CD009EB18
:1026900048134FEA8804083058602D4B49F834300D
:1026A00000F0BCF830B344F0010309EBC30208307A
:1026B0005060264A49F83320CEE72A4A5468002C55
:1026C0003FF461AF6888AF8804E00C325468002C96
:1026D0003FF459AF13888342F7D15388BB42F4D1FA
:1026E000000A03280CBF20781089E4E680461AE629
:1026F0000220E0E6174B44F001021B7849F8320053
:10270000144A01331370A7E7124B124A1B784FEAA1
:102710008804013349F834001370C1E700BE402833
:10272000864628BF4FF0400E04EB0E03CEEB0000B0
:102730004FEA0E4C029300224FF00108F8E500BF6B
:10274000DD99FF1FC020074094200740C8004000CB
:1027500088004000519AFF1FC420074078400000C5
:10276000D8200740804000002DE9F04100F062FED3
:1027700000231F491A4601EBC30041F833200133FF
:10278000182B42604FF000041948F4D1194A1A4F2F
:1027900013681A491A4D1B4EDFF874C0DFF874E055
:1027A000DFF8748043F480231360C0F307233B7089
:1027B000C0F307430B70000EFF2302F52832287088
:1027C000D4328CF80030104D8EF800300F48337042
:1027D000012388F80030702681F850404FF40074CF
:1027E000102107F8183C2E7004601170BDE8F081CC
:1027F0000080FF1F348004409C200740B020074029
:10280000B42007401020074049E400E008E100E060
:1028100080200740882007409420074072B60D486A
:102820000268B2FA82F31D2B10DC4FF00041D94050
:1028300022EA0102026062B6074803EBC303DB0031
:10284000C2180021C15010465160704762B6002086
:10285000704700BF8C8FFF1FBC83FF1F0D4B0E4ABC
:10286000C31AA2FB03231B091D2B0CD80B4A127899
:1028700052B972B60A484FF00041026821FA03F3D8
:102880001A43026062B67047064A1278002AF0D0F6
:10289000FFF7ACBABC83FF1F398EE338519AFF1F94
:1028A0008C8FFF1F5C9AFF1F38B50E4B0E4C1B68B8
:1028B000218805468BB1B1F5917F05D20B4A4B1C9F
:1028C00055549BB2238038BD002208489847002108
:1028D000064A55540123238038BDB1F5917FEDD3CD
:1028E00038BD00BF8C9AFF1F429BFF1F489BFF1FF4
:1028F0002DE9F843214E224F3168012380463B7079
:10290000B1B1204D4B8801EB8302013300240F2B22
:10291000C2F808802C7004D84B8000233B70BDE8BF
:10292000F88340230B800420FFF7A2FA3460F4E719
:10293000DFF8549099F80030002BF0D0114D45F697
:10294000215408E0013C12D02B7883B900F066FCDA
:1029500099F800307BB10420FFF732FA0528F1D84E
:10296000FFF75CFF014630600028EBD0CAE7012387
:102970002B70BDE8F883BDE8F88300BFA89AFF1F5D
:102980007C9AFF1FAC9AFF1F5C9AFF1F70B50A4C20
:10299000257845B9094E31680123237009B14B8868
:1029A00013B90023237070BD9B000B800420FFF738
:1029B0005FFA3560F5E700BF7C9AFF1FA89AFF1FFA
:1029C0002DE9F041AD4E33680746002B00F09280B0
:1029D0001D885A88910803EB81010432AA428C6851
:1029E00042D25A8004F00F064FEA1428A449A6F1F7
:1029F000080208F00F00C4F30313062A00F10105D2
:102A00000B701AD9B31E012B5FFA88F04ED9052E30
:102A100048D0042E00F0A481731F022B7FD90F2E03
:102A20000ED1F72842D8F02802D0964B1B883BB134
:102A3000FFF73AFF0020BDE8F08127B1BD4202D088
:102A40000020BDE8F081082EC4F3033300F0878036
:102A5000092E11D00A2E40F094800A2BF0D18A4B17
:102A60008A4A1B68A02181E01846FFF7F7FE05207F
:102A7000FFF788F93060B5E7092BE1D1270E00F0A8
:102A80007B81834B814A1B689021C4F307461170F8
:102A9000EDB2FCB2002B00F09D8022463146284664
:102AA000984797E0F02843D9F72841D0F1380E280D
:102AB000C6D801A353F820F06F2C0000532C00005F
:102AC000412C0000412A0000412A0000332C000064
:102AD000412A0000132D0000412A0000DD2C0000D7
:102AE000F72C00001B2C0000412A0000032C0000E2
:102AF000E72B0000674B1B78002BA1D00520FFF7C8
:102B000041F90346306000289AD00588002D7FF4F3
:102B100060AFFFF7A3FE35602846BDE8F081FFF700
:102B2000C3FEC4F30740FFF7BFFE072E02D1200EFD
:102B3000FFF7BAFE534B584A198858481468584D45
:102B4000524A017000270E0AF0201F802E7010706C
:102B50000CB301225348A0470120BDE8F081082BA7
:102B60007FF46EAF504B494A1B688021C4F307467F
:102B70001170EDB2240E6BB32846224631469847B9
:102B800028E00B2E11D10B2B7FF45AAF474B3F4A55
:102B90001B68B021EAE7464B1B68002B00F0FB8066
:102BA000404898470120BDE8F0810C2E40F000819C
:102BB0000C2B7FF445AF3F4B344A1B68C02111708A
:102BC000EDB2C4F30746002B00F0C880284631461A
:102BD000240E98473849314A314B0D7016701C70DD
:102BE0000120BDE8F081354B1B68002B00F0D6803A
:102BF0009847C4F30746254BEDB2240E83F80080B6
:102C0000E8E72F4B1B68002BF2D12E4B1B68A3B1BA
:102C1000FE209847C4F30746EDE72B4B1B68002BBB
:102C2000E6D1284B1B6843B1FC209847C4F3074604
:102C3000E1E7264B1B68002BDAD1C4F30746DAE73D
:102C4000234B1B68C4F30746002BD4D0304698476B
:102C5000D1E7204B1A68002AEFD0260C630C06F04F
:102C60007F0003F47E531843F6B29047C3E71A4B34
:102C70001B68C4F30746002BE8D1BCE7B49AFF1FDA
:102C8000469BFF1F429BFF1F909AFF1F409BFF1F09
:102C9000C49AFF1F5C9AFF1F8C9AFF1F449BFF1F63
:102CA000459BFF1F489BFF1FBC9AFF1FC09AFF1F39
:102CB000A49AFF1F809AFF1F479BFF1F6C9AFF1F5C
:102CC000709AFF1F749AFF1FB09AFF1FA09AFF1FF0
:102CD000B89AFF1F889AFF1F9C9AFF1F3F4B1B68E3
:102CE000002B85D13E4B1B68002BA6D0FA209847BD
:102CF000C4F307467FE73B4B1B68002B7FF478AF9C
:102D0000374B1B68002B98D0FB209847C4F307462D
:102D100071E7354B1B68002B7FF46AAF304B1B68A3
:102D2000002B8AD0F8209847C4F3074663E70E2BA0
:102D30007FF486AE2D4A2E4B1268E0211970002ACE
:102D400047D0260C610C06F07F0301F47E51194335
:102D5000EDB2A1F5005128469047F6B2240E39E7AE
:102D6000FFF7A2FDC4F30740FFF79EFD200EFFF71B
:102D70009BFD0020BDE8F0811E4B1D4A1B68802191
:102D80001170EDB2C4F3074683B1314628463A4686
:102D900098473C461EE70120BDE8F081104B1B68B8
:102DA000002B3FF44AAFFF20984746E71C4611E747
:102DB0000D2EBCD10D2B7FF443AE0F4B0C4A1B687C
:102DC000D0211170EDB2C4F30746002B7FF4FEAEA4
:102DD000C4E7C4F30746EDB2240EFBE6989AFF1F42
:102DE000749AFF1F789AFF1F689AFF1F849AFF1F2B
:102DF000409BFF1FBC9AFF1F949AFF1F38B50F4DD1
:102E0000286878B143880288C118013393420C7A4C
:102E100002D24380204638BDFFF720FD0023204624
:102E20002B6038BD064B1B782BB10220FEF7AAFFA2
:102E300028600028E6D14FF0FF3038BDD49AFF1F3C
:102E40005C9AFF1F10B5094C206818B143881844DC
:102E5000007A10BD064B1B782BB10220FEF792FFC3
:102E600020600028F2D14FF0FF3010BDD49AFF1F30
:102E70005C9AFF1F044B054A1B6850881BB11A88D7
:102E80005B88D31A18447047D49AFF1F349BFF1FE6
:102E90000B4B1B789BB110B50A4C206848B1FFF76B
:102EA000DDFC002302202360FEF76CFF30B1FFF74A
:102EB000D5FC0220FEF766FF0028F8D110BD704750
:102EC0005C9AFF1FD49AFF1F2DE9F04FDFF8F890AE
:102ED00083B0012289F80020019169B3DFF8EC800A
:102EE000364F019E8346D8F80000B0B3344D448875
:102EF000C4F14001B14228BF314604EB010E00226B
:102F00001FFA8EFE2A70761AA0F802E000F108027D
:102F100051B1013C224459441BF8014B02F8014FC6
:102F20008B45F9D1B0F802E0BEF13F0F0BD8254A2E
:102F300005211170002ED6D10198002389F80030A8
:102F400003B0BDE8F08F4022028001460320FEF767
:102F50008FFF0022C8F80020E9E73A782AB3184D1D
:102F60004AF2F9244FF0010A07E0013C16D02A7812
:102F7000A2B900F053F93A78BAB10320FEF720FF66
:102F80000728F2D889F800A0FFF748FCC8F800002D
:102F90000028ACD10C4B013C1870E8D101234FF054
:102FA000FF302B7003B0BDE8F08F00234FF0FF30EF
:102FB00089F8003003B0BDE8F08F00BF5C9AFF1FB6
:102FC000D09AFF1FC89AFF1FC99AFF1FCC9AFF1FF4
:102FD00000B583B002AB012103F8010D1846FFF7DD
:102FE00073FF03B05DF804FB38B50E4D0E4C286836
:102FF0000123237028B1408800232370C0F14000D2
:1030000038BD0A4B1B7813B90020207038BD03204F
:10301000FEF7D6FE0728F7D8FFF700FC2860002847
:10302000E9D1F1E7CC9AFF1FC99AFF1F5C9AFF1FF5
:10303000F8B5114B1B788BB1104E114D3468012738
:103040002F7064B10F4A63880027177021462380D0
:103050000320FEF70DFF376000232B70F8BDFFF74C
:10306000DDFB084B28B1014603201C70FEF700FF72
:10307000F2E71F70F0E700BF5C9AFF1FCC9AFF1FBA
:10308000C99AFF1FC89AFF1F38B50E4B1B7873B93A
:103090000D4C216861B103F0FF054B880B800320C4
:1030A000FEF7E6FE256038BD084B01221A7038BDD8
:1030B000FFF7B4FB0028F7D00146BDE838400320F5
:1030C000FEF7D6BEC99AFF1FCC9AFF1FC89AFF1FF2
:1030D00070B5EFF3108272B60C4C206880B10C4EC4
:1030E00000254369236073B19D6102B962B64577DB
:1030F00083689847EFF3108272B620680028F0D1F9
:1031000002B962B670BD3360EFE700BFDC9AFF1F03
:10311000E09AFF1FFFF7DCBF024A13680133136018
:10312000704700BF6899FF1F30B5044683B0022581
:103130002A4601A80549FEF7FDFA23682A4601A997
:103140005B682046984703B030BD00BF4C4000008C
:10315000F0B507468BB0002A33D0012A08BF0A22F7
:1031600051B3212400E0F4B2B1FBF2F502FB1511DA
:10317000C8B2092900F1300198BFC8B20AA988BFB6
:103180003730214488BFC0B201F8240C661E29469E
:10319000002DE8D133B1013CE4B20AAB23442D2227
:1031A00003F8242C3B6801AA11195B683846C4F166
:1031B000220298470BB0F0BD30228DF82520212443
:1031C000E8E70368C9B21B6898470BB0F0BD00BFC1
:1031D0000029BABF49422D2300230A22FFF7B8BFB6
:1031E00008B5FDF743F9FDF79BF900F017F8FAE78A
:1031F00000F0A6B9FFF74CBEFFF724BEFFF7FEBDF7
:10320000FFF738BEFFF714BFFFF7EEBE08461146C2
:10321000FFF75ABE0846FFF7DBBE00BF2DE9F843B3
:10322000314E337893B1314F3A787AB90122D907C8
:103230003A7036D49A0719D400225B073A7005D544
:103240002B4B1A6812B1EFF305820AB1BDE8F8837F
:10325000EFF3108172B6186818B1264C2278002A54
:103260002ED00029F2D162B6BDE8F883DFF8908055
:1032700098F80020002ADFD0DFF88890002405E0CD
:10328000013498F80030E4B2A34212D959F824501E
:103290002B6828461B6998470028F1D02B6998476E
:1032A000EEE7FFF7E7FDC8B9134B1B781BB933787E
:1032B000C0E73378C0E7337803F0FE033370B9E733
:1032C00045691D60012323705DB1AA6101B962B631
:1032D00000254577836898472570B7E700F0ECF83C
:1032E000E2E7064B1D60F1E7A08FFF1FED9AFF1F7D
:1032F000E89AFF1FEC9AFF1FAA90FF1FE49AFF1F96
:10330000FC9AFF1FF09AFF1F30B42948294A2A4B24
:103310002A4D6024E121047011701B78284C082B81
:1033200030D00A2B2748284937D00C2B0CBF352228
:103330003D2212232A60236002600B60234B244944
:103340001B78244ABBB101230B601360224B234935
:103350001B78234A012B26D9042B0FD9082B1ED901
:10336000102B94BF862387230B6013601D4B012213
:103370001A7030BC70470B601360E7E784230B6062
:103380001360F3E700F58E200F4908300122132364
:103390002A60236002600B60D0E73922F7E78523BB
:1033A0000B601360E2E780230B601360DEE700BF71
:1033B0000040074001400740A18FFF1F08B00340B5
:1033C0000CB0034008B00B400CB00B40EF9AFF1F4D
:1033D00020B0034020B00B40A28FFF1F24B0034059
:1033E00024B00B40EE9AFF1FF0B44D1E2E46002471
:1033F00000E00134B0FBF2F302FB1300092800F1F6
:1034000030078ABF3730F8B2C0B206F8010F18464D
:10341000002BEED10A1953704CB1107815F8016FDA
:1034200028700133E01A834202F80169F5DB08468F
:10343000F0BC704770B584B072B6194B194D1A487C
:10344000702241260F2480211A702E701A460470B3
:10345000197013781B06FCD5144B186862B6144B10
:10346000144C984298BF00EB800001A998BF40001F
:103470000A22FFF7B9FF01A92046002311F8012B0A
:1034800001333AB10A2B20F8022FF7D1162323700B
:1034900004B070BD5B00DBB2237004B070BD00BF30
:1034A00000000240070002400600024008000240FF
:1034B0007F9698009490FF1F704700BF0B4601460F
:1034C000184600F001B800BF13460A460146022024
:1034D00000F00CBB014B1868704700BFD894FF1F69
:1034E00070B50F4E0F4D761BB61018BF002405D0D7
:1034F000013455F8043B9847A642F9D10A4E0B4DCA
:10350000761B00F0EFFDB61018BF002406D0013482
:1035100055F8043B9847A642F9D170BD70BD00BF75
:10352000F0400000F040000000410000F0400000CA
:10353000024B0146186800F00BB800BFD894FF1F7B
:10354000024B0146186800F095BB00BFD894FF1FDE
:103550002DE9F04F01F10B05162D83B0064640F220
:103560009F8035F0070500F1BF80A94200F2BC80C2
:1035700000F0A6FAB5F5FC7FC0F09C826B0A00F063
:10358000BA80042B00F28381A80900F1390E4FEABA
:103590004E033830C44F07EB8303A3F108015C6886
:1035A000A14207D1ACE0002A80F2AC80E468A142DD
:1035B00000F0A680636823F003035A1B0F2AF2DD94
:1035C000B9493C6901F1080E744500F0B3816368A4
:1035D00023F003035A1B0F2A00F39981002AC1F834
:1035E00014E0C1F810E080F29E80B3F5007F80F017
:1035F0006781DB0803F1010C01229B1002FA03F33F
:103600004A6851F83C80C4F8088001EBCC091A43A1
:10361000A9F10803E3604A6041F83C40C8F80C4057
:10362000831001249C40944200F28A80144206D107
:1036300020F003006400144200F10400FAD007EB0C
:10364000C009CC468046DCF80C108C4507D173E1EC
:10365000002A80F28181C9688C4500F06D814B6839
:1036600023F003035A1B0F2AF2DD0C46D1F80CC0DD
:1036700054F8088F4B1945F001054D6042F00101E7
:10368000C8F80CC03046CCF808807B613B61C3F8B9
:103690000CE0C3F808E059609A5000F013FA1FE0FC
:1036A000102921D800F00CFA1025062302207E4FA5
:1036B00007EB8303A3F108025C68944200F04581A4
:1036C0006368E168A56823F00303234430465A6821
:1036D000E96042F001028D605A6000F0F3F90834AD
:1036E000204603B0BDE8F08F00240C232046336051
:1036F00003B0BDE8F08F80234FF0400E3F2049E734
:1037000070465DE72344E1685A68A56842F001020B
:10371000E96030468D605A6000F0D4F908342046E4
:1037200003B0BDE8F08F234430465A6842F00102EE
:103730005A6000F0C7F90834204603B0BDE8F08FA6
:10374000BC68636823F00308A84504D3C5EB0803ED
:103750000F2B00F38C80554BDFF860911A68D9F875
:10376000003001332A4404EB080A00F0608102F5BE
:1037700080520F3222F47F6222F00F02114630464F
:10378000019200F0A1F9B0F1FF3F8346019A00F0E9
:103790005881824500F2FC80454B1968DA45114496
:1037A000196000F05381D9F80000DFF810E1013012
:1037B0001BBFCAEB0B0A5144CEF800B019601BF0D6
:1037C000070100F01781C1F10800C1F58051834461
:1037D00008315A44C2F30B02C2EB01094946304694
:1037E000019300F071F9431C019B00F03F81CBEB8A
:1037F00000024A4442F001021968C7F808B049447F
:10380000BC42CBF804201960DFF8A49016D0B8F1C0
:103810000F0F40F2FD806268A8F10C0323F007034C
:10382000E01802F001024FF0050E1A430F2B626000
:10383000C0F804E0C0F808E000F21C811D4BBC6831
:103840001A68914288BF19601B4B1A6891426268DE
:1038500088BF196022F003029542A2EB050301D84C
:103860000F2B04DC304600F02DF9002438E76219F4
:1038700043F0010345F0010565603046BA605360CE
:1038800000F020F90834204603B0BDE8F08F142B77
:1038900071D9542B00F2A480280B00F16F0E4FEA6F
:1038A0004E036E3076E600BFDC94FF1F089BFF1FBF
:1038B0000C9BFF1F049BFF1F009BFF1FE898FF1F2F
:1038C0005A0A042A5ED9142A00F2B38002F15C017C
:1038D00049005B3207EB810C57F82110DFF8DC81DF
:1038E000ACF1080C8C4500F088804A6822F0030295
:1038F000934202D289688C45F7D1D1F80CC07A681E
:10390000C4F80CC0A160CCF80840CC6088E663190C
:1039100042F0010745F00105656030464B610B61DF
:10392000C3F80CE0C3F808E05F609A50083400F078
:10393000C9F8D5E64A6873E608F1010818F0030FE4
:103940000CF1080C7FF47FAE30E0DC68A34208BFC6
:1039500002303FF435AEB3E60B440C465A68C968F2
:1039600054F8085F42F001025A603046E9608D6009
:1039700000F0A8F8B4E603F15C0E03F15B004FEA37
:103980004E0307E69A0902F1390149003832A1E7EE
:10399000BC424A4B3FF400AF9C68626822F00302CD
:1039A0005AE759F80839994540F0828010F0030F22
:1039B00000F1FF30F5D17B6823EA04037B606400EB
:1039C0009C423FF6BDAE002C3FF4BAAE1C424046CE
:1039D0007FF435AE64001C4200F10400FAD02EE6FC
:1039E000B3F5AA7F18D8E80B00F1780E4FEA4E0322
:1039F0007730CFE54FF48051EBE60121D8F8043061
:103A0000921001FA02F21A43C8F80420614677E7DF
:103A10000123CBF8043025E740F25452934220D8DA
:103A2000A80C00F17D0E4FEA4E037C30B2E5103257
:103A3000A4E6542A26D81A0B02F16F0149006E320F
:103A400048E7BC68626822F0030205E7CAF30B008E
:103A500000287FF4A8AE4244BB6842F001025A60DD
:103A6000ECE6FE234FF07F0E7E2093E501224FF01F
:103A70000009C1E604F10801304600F0FBF8D9F86E
:103A80000010DBE6B2F5AA7F05D8DA0B02F1780167
:103A9000490077321EE740F254518A4205D89A0C09
:103AA00002F17D0149007C3214E7FE217E2211E7FC
:103AB0007B6884E7E808431C5B00F8E5DC94FF1FA3
:103AC000704700BF704700BF38B5074C002305465C
:103AD00008462360FDF732FF431C00D038BD236841
:103AE000002BFBD02B6038BD789CFF1F2DE9F047E1
:103AF000254C2568D5F848410646884692469946A1
:103B0000C4B360681F2817DC431C76B104EB800542
:103B10000122C5F888A0D4F8881182401143022EF2
:103B2000C4F88811C5F808911ED00230636044F8CB
:103B300020800020BDE8F087144B03B34FF4C87019
:103B4000FFF7F6FC0446D0B1D5F84831002780E8ED
:103B50008800C5F8484138460123C4F88871C4F884
:103B60008C71002EE1D0D1E7D4F88C110A43C4F84F
:103B70008C21DAE705F5A674C5F84841C1E74FF096
:103B8000FF30BDE8F08700BFE040000031350000A5
:103B9000024B13B1024800F005B870470000000066
:103BA000B13B0000002301461A461846FFF79EBFAE
:103BB00038B5074D074C2C1BA41005D0013C55F817
:103BC000043D9847002CF9D1BDE8384000F098BA80
:103BD0000000000000000000F8B5234F0C46064628
:103BE000FFF76EFFBB685D6825F00305291B01F632
:103BF000EF7121F47F6121F00F01A1F58054B4F53C
:103C0000805F07DB00213046FFF75EFFBB682B4477
:103C1000984204D03046FFF755FF0020F8BD6142BE
:103C20003046FFF751FF01300DD0104BBA681968CC
:103C30002D1B45F001053046091B55601960FFF743
:103C400041FF0120F8BD00213046FFF73DFFBA6873
:103C5000831A0F2BDEDD064C0449246843F0010370
:103C6000001B53600860D5E7DC94FF1F0C9BFF1F0F
:103C7000E898FF1F002945D02DE9F0410D46804608
:103C8000FFF71EFF55F8047C6A4927F00103A5F1F0
:103C90000804E2188E685068B24220F0030062D037
:103CA000FE0750600BD455F8087CE41B01F1080EA8
:103CB000A56875453B446FD0E768EF60BD60151897
:103CC0006D68ED0742D543F001026260E350B3F541
:103CD000007F18D2DB085A1C4D6851F83270A7607B
:103CE00001209B1000FA03F301EBC2001D430838CA
:103CF000E0604D6041F83240FC604046BDE8F04174
:103D0000FFF7E0BE70475A0A042A53D89A0902F115
:103D100039077F0002F1380501EB870051F82720B1
:103D20004449083890424DD0516821F003018B423C
:103D300002D292689042F7D1D068E060A2608460BD
:103D4000D4604046BDE8F041FFF7BCBE95683A4FED
:103D5000BD4203443FD0D068E86043F00102856073
:103D60006260E350B3E7FF07034407D455F8082C1B
:103D7000A41A1344A068E268C26090602F4A1268D7
:103D800043F00100934260608C60B6D32C4B4046F8
:103D90001968FFF721FFB0E711184968C90744D433
:103DA0009168D268CA60034443F00100916060608A
:103DB000E350A2E7142A17D802F15C077F0002F152
:103DC0005B05A9E7AA104B68012505FA02F2134327
:103DD0004B600246B1E743F001024C610C61E560C3
:103DE000A5606260E35088E7542A06D81A0B02F1F6
:103DF0006F077F0002F16E058EE7B2F5AA7F06D845
:103E0000DA0B02F178077F0002F1770584E740F2D0
:103E10005450824206D89A0C02F17D077F0002F1CD
:103E20007C0579E7FE277E2576E743F00102626094
:103E3000E35062E7DC94FF1FE494FF1FE498FF1F48
:103E4000089BFF1F4572726F7220696E6974696109
:103E50006C697A696E672041504453393936302095
:103E600073656E736F722E00446574656374656468
:103E700020555020676573747572650044657465DC
:103E80006374656420444F574E2067657374757280
:103E9000650000004465746563746564204C4546A4
:103EA000542067657374757265000000446574651D
:103EB000637465642052494748542067657374757C
:103EC000726500002C0000000000000000000000EF
:103ED000450900004909000034800440400000000A
:103EE0001211FFFFFF02020000001310FFFFFF028C
:103EF0000200000018000000348004408000000030
:103F00001EFFFFFFFF02000000001DFFFFFFFF027A
:103F10000000000019000000000000000000000088
:103F2000991000005D1000001509000059100000F4
:103F30001909000025090000411000004008FE4357
:103F400040A004404408FE4344A004400018FE433F
:103F500000C004403000FE43309004403400FE4373
:103F6000349004401C18FE431CC004401018FE434B
:103F700010C004400818FE4308C004400C18FE435B
:103F80000CC004400C10FE430CB004401010FE4363
:103F900010B004401810FE4318B004401C10FE433B
:103FA0001CB004401410FE4314B004400418FE4337
:103FB00004C004400010FE4300B004400008FE436B
:103FC00000A004400408FE4304A004400C08FE4383
:103FD0000CA004400808FE4308A004401418FE4347
:103FE00014C004401818FE4318C004400410FE43D7
:103FF00004B004400810FE4308B004401400FE431F
:10400000149004404C08FE434CA004400420FE439E
:1040100004D004402410FE4324B004402010FE438A
:1040200020B004402810FE4328B004402C10FE436A
:104030002CB004400020FE4300D004404808FE435A
:1040400048A004401000FE43109004400D0AFFFFFA
:104050000000000000000000153200000D320000DA
:10406000093200000532000001320000FD3100007D
:10407000F9310000F53100001519151519FFFFFF82
:1040800000010000A48FFF1F1200000000020000CA
:10409000D08FFF1F95000000050309048090FF1FCB
:1040A00000000000000300009090FF1F00000000CF
:1040B00001030904B88FFF1F000000000203090478
:1040C0006890FF1F00000000030309049490FF1F85
:1040D00000000000000000000000000000000000E0
:1040E000B090FF1FF8B500BFF8BC08BC9E467047F3
:1040F000913B000035040000E1080000F50F0000CE
:04410000F8B500BF4F
:08410400B8F3FF7F0100000089
:10410C0038B5084B1C681C6054B1074D94FAA4F3E5
:10411C00B3FA83F355F823309847631E1C40F5D14E
:10412C0038BD00BFA0D00440848FFF1F38B5084BAA
:10413C001C681C6054B1074D94FAA4F3B3FA83F3D2
:10414C0055F823309847631E1C40F5D138BD00BF8D
:10415C00A0C00440648FFF1F38B5084B1C681C605E
:10416C0054B1074D94FAA4F3B3FA83F355F8233002
:10417C009847631E1C40F5D138BD00BFA0B0044069
:10418C00348FFF1F38B5084B1C681C6054B1074DA9
:10419C0094FAA4F3B3FA83F355F823309847631ECB
:1041AC001C40F5D138BD00BFA0A00440E48EFF1F19
:1041BC0038B5084B1C681C6054B1074D94FAA4F335
:1041CC00B3FA83F355F823309847631E1C40F5D19E
:1041DC0038BD00BFA0900440AC8EFF1F0000000053
:1041EC001200000038000000110000003600000032
:1041FC00340000001000000032000000130000002A
:10420C00203F000000000000E80300000000000058
:10421C0000600640D83E00000000000000000000D6
:10422C000000000000000000000000000000000082
:10423C000000000000000000000000000000000072
:10424C000000000000000000000000000000000062
:10425C000000000000000000000000000000000052
:10426C000000000000000000000000000000000042
:10427C000000000000000000000000000000000032
:10428C000000000000000000000000000000000022
:10429C000000000000000000000000000000000012
:1042AC000000000000000000000000000000000002
:1042BC00000000000000000000000000203F000093
:1042CC0000000000E8030000000000000070064041
:1042DC00F83E00000000000000000000000000009C
:1042EC0000000000000000000000000000000000C2
:1042FC0000000000000000000000000000000000B2
:10430C0000000000000000000000000000000000A1
:10431C000000000000000000000000000000000091
:10432C000000000000000000000000000000000081
:10433C000000000000000000000000000000000071
:10434C000000000000000000000000000000000061
:10435C000000000000000000000000000000000051
:10436C000000000000000000000000000000000041
:10437C0000000000000000007C9CFF1F6919000079
:10438C006919000069190000691900006919000019
:10439C006919000069190000691900006919000009
:1043AC0069190000691900006919000069190000F9
:1043BC0069190000691900006919000069190000E9
:1043CC0069190000691900006919000069190000D9
:1043DC0069190000691900006919000069190000C9
:1043EC0069190000691900006919000069190000B9
:1043FC0069190000691900006919000069190000A9
:10440C006919000069190000691900006919000098
:10441C006919000069190000691900006919000088
:10442C006919000069190000691900006919000078
:10443C006919000069190000691900006919000068
:10444C006919000069190000691900006919000058
:10445C00691900006919000069190000FFFFFFFFCE
:10446C005840000000000000E803000000000000BD
:10447C00010A04001201100100000040C01689045A
:10448C007502010203010000180354006500650069
:10449C006E00730079006400750069006E006F0097
:1044AC0009029500030100C032080B000202020150
:1044BC00000904000001020201000524001001059E
:1044CC0024010101042402060524060001070581CC
:1044DC000310004009040100020A00000007050255
:1044EC00024000000705830240000009040200029C
:1044FC00010300000724010001250006240201012C
:10450C000506240202020509240301030102010528
:10451C0009240302040101010509050502400000FC
:10452C00000005250101010905840240000000007E
:10453C000525010103000000180354006500650007
:10454C006E007300790020004D00490044004900C2
:10455C000E0350006F007200740020003100000048
:10456C00040309040C03000000000000000000001C
:10457C00000000000000000000000100000000002E
:10458C00000000009C93FF1F0494FF1F6C94FF1FFE
:10459C00000000000000000000000000000000000F
:1045AC0000000000000000000000000000000000FF
:1045BC0000000000000000000000000000000000EF
:1045CC0000000000000000000000000000000000DF
:1045DC0000000000000000000000000000000000CF
:1045EC0000000000000000000000000000000000BF
:1045FC0000000000000000000000000000000000AF
:10460C00000000000000000000000000000000009E
:10461C00000000000000000000000000000000008E
:10462C00000000000000000001000000000000007D
:10463C000E33CDAB34126DE6ECDE05000B00000042
:10464C00000000000000000000000000000000005E
:10465C00000000000000000000000000000000004E
:10466C00000000000000000000000000000000003E
:10467C00000000000000000000000000000000002E
:1049AC000000000000000000B090FF1F000000009D
:1049BC0000000000DC94FF1FDC94FF1FE494FF1F39
:1049CC00E494FF1FEC94FF1FEC94FF1FF494FF1F63
:1049DC00F494FF1FFC94FF1FFC94FF1F0495FF1F12
:1049EC000495FF1F0C95FF1F0C95FF1F1495FF1FBF
:1049FC001495FF1F1C95FF1F1C95FF1F2495FF1F6F
:104A0C002495FF1F2C95FF1F2C95FF1F3495FF1F1E
:104A1C003495FF1F3C95FF1F3C95FF1F4495FF1FCE
:104A2C004495FF1F4C95FF1F4C95FF1F5495FF1F7E
:104A3C005495FF1F5C95FF1F5C95FF1F6495FF1F2E
:104A4C006495FF1F6C95FF1F6C95FF1F7495FF1FDE
:104A5C007495FF1F7C95FF1F7C95FF1F8495FF1F8E
:104A6C008495FF1F8C95FF1F8C95FF1F9495FF1F3E
:104A7C009495FF1F9C95FF1F9C95FF1FA495FF1FEE
:104A8C00A495FF1FAC95FF1FAC95FF1FB495FF1F9E
:104A9C00B495FF1FBC95FF1FBC95FF1FC495FF1F4E
:104AAC00C495FF1FCC95FF1FCC95FF1FD495FF1FFE
:104ABC00D495FF1FDC95FF1FDC95FF1FE495FF1FAE
:104ACC00E495FF1FEC95FF1FEC95FF1FF495FF1F5E
:104ADC00F495FF1FFC95FF1FFC95FF1F0496FF1F0D
:104AEC000496FF1F0C96FF1F0C96FF1F1496FF1FBA
:104AFC001496FF1F1C96FF1F1C96FF1F2496FF1F6A
:104B0C002496FF1F2C96FF1F2C96FF1F3496FF1F19
:104B1C003496FF1F3C96FF1F3C96FF1F4496FF1FC9
:104B2C004496FF1F4C96FF1F4C96FF1F5496FF1F79
:104B3C005496FF1F5C96FF1F5C96FF1F6496FF1F29
:104B4C006496FF1F6C96FF1F6C96FF1F7496FF1FD9
:104B5C007496FF1F7C96FF1F7C96FF1F8496FF1F89
:104B6C008496FF1F8C96FF1F8C96FF1F9496FF1F39
:104B7C009496FF1F9C96FF1F9C96FF1FA496FF1FE9
:104B8C00A496FF1FAC96FF1FAC96FF1FB496FF1F99
:104B9C00B496FF1FBC96FF1FBC96FF1FC496FF1F49
:104BAC00C496FF1FCC96FF1FCC96FF1FD496FF1FF9
:104BBC00D496FF1FDC96FF1FDC96FF1FE496FF1FA9
:104BCC00E496FF1FEC96FF1FEC96FF1FF496FF1F59
:104BDC00F496FF1FFC96FF1FFC96FF1F0497FF1F08
:104BEC000497FF1F0C97FF1F0C97FF1F1497FF1FB5
:104BFC001497FF1F1C97FF1F1C97FF1F2497FF1F65
:104C0C002497FF1F2C97FF1F2C97FF1F3497FF1F14
:104C1C003497FF1F3C97FF1F3C97FF1F4497FF1FC4
:104C2C004497FF1F4C97FF1F4C97FF1F5497FF1F74
:104C3C005497FF1F5C97FF1F5C97FF1F6497FF1F24
:104C4C006497FF1F6C97FF1F6C97FF1F7497FF1FD4
:104C5C007497FF1F7C97FF1F7C97FF1F8497FF1F84
:104C6C008497FF1F8C97FF1F8C97FF1F9497FF1F34
:104C7C009497FF1F9C97FF1F9C97FF1FA497FF1FE4
:104C8C00A497FF1FAC97FF1FAC97FF1FB497FF1F94
:104C9C00B497FF1FBC97FF1FBC97FF1FC497FF1F44
:104CAC00C497FF1FCC97FF1FCC97FF1FD497FF1FF4
:104CBC00D497FF1FDC97FF1FDC97FF1FE497FF1FA4
:104CCC00E497FF1FEC97FF1FEC97FF1FF497FF1F54
:104CDC00F497FF1FFC97FF1FFC97FF1F0498FF1F03
:104CEC000498FF1F0C98FF1F0C98FF1F1498FF1FB0
:104CFC001498FF1F1C98FF1F1C98FF1F2498FF1F60
:104D0C002498FF1F2C98FF1F2C98FF1F3498FF1F0F
:104D1C003498FF1F3C98FF1F3C98FF1F4498FF1FBF
:104D2C004498FF1F4C98FF1F4C98FF1F5498FF1F6F
:104D3C005498FF1F5C98FF1F5C98FF1F6498FF1F1F
:104D4C006498FF1F6C98FF1F6C98FF1F7498FF1FCF
:104D5C007498FF1F7C98FF1F7C98FF1F8498FF1F7F
:104D6C008498FF1F8C98FF1F8C98FF1F9498FF1F2F
:104D7C009498FF1F9C98FF1F9C98FF1FA498FF1FDF
:104D8C00A498FF1FAC98FF1FAC98FF1FB498FF1F8F
:104D9C00B498FF1FBC98FF1FBC98FF1FC498FF1F3F
:104DAC00C498FF1FCC98FF1FCC98FF1FD498FF1FEF
:0C4DBC00D498FF1F00000200FFFFFFFF63
:00000001FF
