:1000000000800020BD010000FD250000B525000096
:10001000B5250000B5250000B5250000B525000078
:10002000B5250000B5250000B5250000FD25000020
:10003000FD250000B5250000D13D0000D53D0000A4
:10004000FD250000FD250000FD250000FD25000028
:10005000FD250000FD250000FD250000FD25000018
:10006000FD250000FD250000FD250000FD25000008
:10007000FD250000FD250000FD250000FD250000F8
:10008000FD250000FD250000FD250000FD250000E8
:10009000FD250000FD250000FD250000FD250000D8
:1000A00099120000A5120000FD250000FD250000AA
:1000B000FD250000FD250000FD250000FD250000B8
:1000C000FD250000FD250000FD250000FD250000A8
:1000D000FD250000FD250000FD250000FD25000098
:1000E000FD250000FD250000FD250000FD25000088
:1000F000FD250000FD250000FD250000FD25000078
:10010000FD250000FD250000FD250000FD25000067
:10011000FD250000FD250000FD250000FD25000057
:10012000FD250000FD250000FD250000FD25000047
:10013000FD250000FD250000FD250000FD25000037
:10014000FD250000FD250000FD250000FD25000027
:10015000FD250000FD250000FD250000FD25000017
:10016000FD250000B12B0000FD250000FD2500004D
:10017000FD250000FD250000FD250000FD250000F7
:10018000FD250000FD250000FD250000FD250000E7
:10019000FD250000FD250000FD250000FD250000D7
:1001A000FD250000FD250000FD250000FD250000C7
:1001B000FD250000FD250000FD250000564B4CF2FA
:1001C000205210B51A804DF628121A8000BF00BFC9
:1001D00002F018FA514B4FF010621A60504A9A60C0
:1001E000504ADA60504A136813F4807304D14F49BF
:1001F0000B604FF4A85313604D4B1A78110703D5C9
:100200001A7842F008021A704A4B4B492A221A7097
:100210004A4A4B4B8B4204D252F8040F43F8040B6A
:10022000F8E7484B484900228B4202D243F8042B9E
:10023000FAE74649464A002352F8230041F82300D2
:1002400001336F2BF8D1434B434A802103F8011B44
:100250009342FBD1414B3D4A1A60414B8A221A70AE
:10026000A3F5805324225A70A0221A709A7992071B
:10027000FCD59A79D406FCD43A4A937903F00C035E
:10028000082B384BF9D103221A7140225A719A79FE
:100290009006FCD5334A9179324B4906FBD5324A58
:1002A000324911600221516020221A709A7902F0BD
:1002B0000C020C2AFAD12E4B2E4A1A602E4B2F4AD2
:1002C0001A6000225A60072243F8042C2C4AC3F813
:1002D0000C2D62B602F042FB144B1B68DA0705D501
:1002E000284802F0CDFA284B284A1A60284B1B7880
:1002F0005B0609D5244C254B22689A4204D121483B
:1003000002F0BEFA0023236002F082F906F0CCFE70
:1003100003F078FEFEE700BF0E2005403080044069
:10032000823F04000100002B10D0034014D0034092
:1003300002D0074000E00740FC98FF1F10A3000018
:10034000308CFF1F0099FF1FD89CFF1F0082FF1FEA
:100350000000000000E400E05FE400E008ED00E0E1
:100360000050064000400640448004400000030165
:1003700004800440C010050014E000E0FF76010096
:1003800000002020713023631CE00340A5C3945A71
:1003900000F00740FFFFFFFFFFFFFFFFFFFFFFFF32
:1003A000FFFFFFFFFFFFFFFFFFFFFFFFFFFFFFFF5D
:1003B000FFFFFFFFFFFFFFFFFFFFFFFFFFFFFFFF4D
:1003C000FFFFFFFFFFFFFFFFFFFFFFFFFFFFFFFF3D
:1003D000FFFFFFFFFFFFFFFFFFFFFFFFFFFFFFFF2D
:1003E000FFFFFFFFFFFFFFFFFFFFFFFFFFFFFFFF1D
:1003F000FFFFFFFFFFFFFFFFFFFFFFFFFFFFFFFF0D
:10040000FFFFFFFFFFFFFFFFFFFFFFFFDEF9FFFF23
:1004100010B5054C237833B9044B13B10448AFF33E
:1004200000800123237010BD0099FF1F0000000011
:1004300014A30000084B10B51BB108490848AFF3DE
:1004400000800848036803B910BD074B002BFBD0A0
:10045000BDE81040184700BF000000000499FF1FCE
:1004600014A30000FC98FF1F00000000F0B5344CFE
:10047000344F354E0D2083B0012102F01BFA206865
:10048000324A40F2EE2513783BB13B78DB0704D5C6
:10049000236831685B1A0E2B06D8236811781B1A63
:1004A00041B3B3F5FA6FEED9294800F00BFF40B322
:1004B0002321284803F066FB274803F0B9FC2121DB
:1004C000264803F05FFB244803F0B2FC224803F007
:1004D000AFFC01210D2002F0E7F94FF4FA7002F0B1
:1004E000EFF900210D2002F0DFF94FF4FA7002F06D
:1004F000E7F9DDE7AB42C6D9154800F0E3FE002876
:10050000D6D17921124800F049FFFA21104800F0B5
:1005100009FF02210E4800F01BFF0A210C4800F0E1
:1005200031FF0A210A4800F031FF3221084800F06B
:1005300031FF23680193019A094B1A6003B0F0BDA3
:10054000C499FF1F349BFF1FD09CFF1FB89AFF1F49
:100550006899FF1F88980000A48FFF1FAC980000C7
:100560003899FF1FFFFFFFFF2DE9F04FCA4E91B0F2
:100570003168304600F0A2FF71680446304600F052
:100580009DFFB1688346304600F098FFF1688046D1
:10059000304600F0A3FF3169304600F09FFF7169DB
:1005A000304600F09BFFB169304600F0A1FFF169D1
:1005B0000546304600F09CFF316A0746304600F0A1
:1005C00097FF41460646404606F056FB21468246C6
:1005D000204606F051FB514606F046FA05F0C2FEF1
:1005E00004F0C4F880468946584605F0BBFE4246F2
:1005F0004B4604F0B9F8A94BC3E9000159465846E7
:1006000006F03AFB514606F02FFA05F0ABFE04F077
:10061000ADF88046894604F1004005F0A3FE42464D
:100620004B4604F0A1F89E4B80468946C3E90089F9
:10063000384605F097FECDE900014046494604F0F2
:1006400005F8CDE90401304605F08CFE82468B4664
:100650004046494604F044F8904BD3E90067CDE9A1
:1006600002013046394603F0F1FFCDE9060130467C
:10067000394604F035F8DDE9022380468946DDE994
:10068000000105F0C3FE42464B4605F0BFFE06469C
:1006900028460F4605F066FEDDE9062305F0B6FEA6
:1006A00002460B463046394605F0FEFCDDE904679C
:1006B00004460D4652465B463046394605F0A6FED6
:1006C00042464B4605F0A2FE02460B46204629460E
:1006D00005F0EAFC06F072F905F044FE32460446E5
:1006E0000D463B46DDE9000105F090FEDDE9022301
:1006F00006460F465046594605F088FE02460B4610
:100700003046394605F0CEFC06F058F905F02AFED1
:1007100022462B4604F028F8CDE900016049604EDE
:10072000DFF89881DFF89C91DFF89CA1D1E9000106
:1007300057A3D3E9002305F069FE0D465749044647
:10074000C6E90045D1E9000151A3D3E9002305F032
:100750005DFE524E8C468346C6E900BC4CA3D3E9ED
:100760000023DDE90001CDE900BC05F04FFE0246A3
:100770000B4620464B494C4C0E68C4E900232946E1
:10078000CDE9022306F0F2F8464BD9F8005059683B
:100790006427C6F1640401FB04F107FB06F606FBBF
:1007A0000010323088FB003EC4173E4BC4EB6E1481
:1007B0005C60DDE9000106F0D9F8D9F80410DAF838
:1007C0000060C5EB070E01FB0EF107FB05F505FB0D
:1007D0000010323088FB003EDDE90223C5171946C0
:1007E000C5EB6E131046C9F80430323406F0BEF87B
:1007F00088FB04E1DAF804302C4AE417BD1BC4EB93
:10080000611403FB05F3C4EBC41407FB06F704F5FE
:10081000345107FB0030323082FB01320A4488FB3E
:100820000038CB17C3EBE21300294FEAE070B8BFE2
:1008300003F1FF33C0EB6810CAF804001B061C4824
:100840001C4D1D4C03F0FE43184302F0AFFED9F8D7
:1008500004201A4B1549323283FB0203D217C2EB34
:100860006313C3EBC31303F5345381FB0312D11895
:10087000DA17C2EBE112002BB4BF02F1FF331346CB
:100880001B060F4803F0FE4318431FE0AFF3008040
:100890000000006066A64C406899FF1F2899FF1F62
:1008A0004099FF1F6099FF1F5099FF1FB7600BB65B
:1008B0000BB010003099FF1F3499FF1F1F85EB51BB
:1008C0000BB011005899FF1F1C99FF1F02F06EFE1C
:1008D000DAF80420784B7949323283FB0203D217CD
:1008E000C2EB6313C3EBC31303F5B44381FB0312E1
:1008F000D118DA17C2EB2122002BB4BF02F1FF336B
:1009000013461B066E4803F0FE43184302F04EFEEA
:100910006C4B6A495A68684B323283FB0203D21728
:10092000C2EB6313C3EBC31303F5345381FB031210
:10093000D118DA17C2EBE112002BB4BF02F1FF337A
:1009400013462A6823609A4213D01B045E4803F4BE
:10095000FE03184302F02AFE0A2001F0B1FF2368CB
:100960005A481B0403F4FE03184302F01FFE2368D9
:100970002B60D9F80420504B5049554D554C32321C
:1009800083FB0203D217C2EB6313C3EBC31303F55C
:10099000345381FB0312D118DA17C2EBE112002B9A
:1009A000B4BF02F1FF3313462A6823609A4215D080
:1009B0000C331B04444803F4FE03184302F0F6FD15
:1009C0000A2001F07DFF236840480C331B0403F428
:1009D000FE03184302F0EAFD23682B603E4B1B78B0
:1009E00053B9002002F04AFE0028FAD10A2001F093
:1009F00067FF11B0BDE8F08F0CA8384903F06CFA1E
:100A0000374BD3E9000105F0D9FF0222014608A8BF
:100A100003F084FA08A90CA803F0D2FA0146314881
:100A200003F0E0F908A803F017FA0CA803F014FA91
:100A300003212D4803F0A6F80CA82C4903F04CFA2A
:100A40002B4BD3E9000105F0B9FF0222014608A8AB
:100A500003F064FA08A90CA803F0B2FA0146214891
:100A600003F0C0F908A803F0F7F90CA803F0F4F9B3
:100A700003211D4803F086F80CA81E4903F02CFA48
:100A80001D4BD3E9000105F099FF0222014608A899
:100A900003F044FA08A90CA803F092FA01461148A1
:100AA00003F0A0F90F4803F0C3F908A803F0D4F944
:100AB0000CA803F0D1F994E71F85EB51B7600BB692
:100AC0000BB012006099FF1F099000640880006459
:100AD0004899FF1F2499FF1F4C99FF1FD0980000D1
:100AE0002899FF1FA48FFF1FD8980000DC980000F2
:100AF0004099FF1FE49800005099FF1F30B50D206A
:100B000083B0012101F0D0FE114800F04BFC68B920
:100B1000002002F0B3FD0028FAD101460D2001F0BB
:100B2000C3FE0A2001F0CCFE03B030BD094D0848D9
:100B3000094C0E2100F090FC2B680193019823686A
:100B4000C01AFFF711FD2B680093009B2360DFE7BD
:100B50006899FF1FC499FF1F3899FF1F30B4074DD4
:100B6000074C084908480A22002385E80C0084E85D
:100B70000C0030BC81E80C0000F09ABB5899FF1FB4
:100B80006099FF1F1C99FF1F6899FF1F0020704785
:100B900090F8612090F86000101A704790F860306B
:100BA00090F861209A4205D95A1C034480F86020CD
:100BB000187E70474FF0FF30704700BF90F86030EC
:100BC00090F861209A4286BF1B18187E4FF0FF30C4
:100BD000704700BF704700BF38B50546B0F8AE009B
:100BE00090B195F8AD301446C3F1490294420CD847
:100BF00005F163001844224601F008FC95F8AD3079
:100C0000234485F8AD30204638BD012014462871B4
:100C1000EEE700BFB0F8AE306BB190F8AD30482BC6
:100C200007D8C218013380F8AD30012082F8631074
:100C30007047012303710020704700BF0023426901
:100C400080F8603080F8613080F8AC3080F8AD30EA
:100C500080F8AE3080F8AF3006CA30B40D68046951
:100C6000C0F8B4302A43C0F8B8300A60A3704269B3
:100C700090F8B1301649146813441D7A5B7B01EB80
:100C8000C5051B026D6803F4E06343F064032B6049
:100C900090F8B23013449D7CDB7D01EBC5011B0253
:100CA000496803F4E06343F064030B602168536810
:100CB000194205D0036927225A70036904229A71E8
:100CC000036920225A71036980229A7030BC7047F0
:100CD000109E000010B50269D378DBB2D906044635
:100CE0003ED510215806D17039D503F0040303F026
:100CF000FF02002B52D03E49D4F8B42000230B70E1
:100D000084F8AD30002A5BD0904794F8AD30002BCA
:100D100056D02369D0229A70236994F863201A71FF
:100D20002369012284F8AC200222DA7010BD314B15
:100D300084F8B0009C424AD02F4B9C4252D094F889
:100D4000611013794729DBB207D82948007820B110
:100D50006018013184F8611003760223D37010BD4E
:100D60005906C2D4917801F0100101F0FF0000296A
:100D7000DDD013F001031ED194F8AC1094F8AD004F
:100D8000884281BF4B1C091984F8AC3091F863305C
:100D900013712369D0229A702269DEE7236984F8EF
:100DA0006120C0229A702369114A197901211170BA
:100DB0000222DA7010BDC023937022691379CCE748
:100DC0000122002384F8AD2084F86330A1E7626932
:100DD00094F8B130094913440322187A01F090FCC9
:100DE0002269ACE7626994F8B1300549F3E700BFC6
:100DF000C099FF1F0C8DFF1FC88DFF1F650E0000DF
:100E0000710E00000369DB7803F0200373B190F8E2
:100E1000B0300133DBB2012B80F8B0301BD942690E
:100E200090F8B1301344187A01F0E6BC70B542690D
:100E300003F0FF0590F8B13013440446187A01F02E
:100E4000DBFCD4F8B8305BB184F8605094F86100F2
:100E5000BDE87040184790F8AF30002BDFD07047E6
:100E600070BD00BF0148FFF7CDBF00BF0C8DFF1F55
:100E70000148FFF7C7BF00BFC88DFF1F2DE9F0472E
:100E8000374FDFF8E0903B68026982B00646009376
:100E9000DDF800800021A025D3789B065BD53B6858
:100EA0000193019BC8EB03030F2BF5D949B1102B1C
:100EB000F2D000209070336980229A7002B0BDE8B1
:100EC000F087726996F8B13013440521187A01F061
:100ED000F1FC726996F8B1301344012193F812A025
:100EE000504601F0E7FC09240021504601F0DCFCEB
:100EF0002B46013BFDD10121504601F0D5FC2B468C
:100F0000013BFDD1013CEFD1706996F8B11001446D
:100F10004FF4A0720C7A4B7B09EBC4011B024968A9
:100F200003F4E06343F064030B6096F8B2300344CB
:100F3000997CDB7D09EBC1011B02496803F4E06386
:100F400043F064030B60013AFDD13269D3789B060C
:100F50004FF00101A3D4012002B0BDE8F08700BF2B
:100F6000C499FF1F109E0000F0B503691222DA70C9
:100F70000269937803F0200385B004460D46002BE8
:100F80005ED0B42393703C4922690B680093009EA5
:100F900005E00B680193019B9B1B042B42D8D3787F
:100FA00003F0200303F0FF00002BF2D094F8AD30E3
:100FB000002B31D04FF0000E4FF0020C04EB0E036B
:100FC00093F8633013710B680393039F206907E064
:100FD0009B060DD50B680293029BDB1B052B28D8C3
:100FE000C378DBB203F0020202F0FF06002AEFD062
:100FF00080F803C02669F378DBB2DF0632462DD4D1
:101000009F062BD5DB0731D40EF1010E94F8AD30DD
:101010005FFA8EFE7345D1D800201DBB002384F8F3
:10102000AE3004E09070236980229A70042005B0ED
:10103000F0BD86702369802204209A7005B0F0BD4F
:1010400003F0FF06FFF71AFF10B9042005B0F0BD4A
:10105000236984F8AF60B0229A7094E78023B3705C
:101060000420DAE726698023B370D7E7BEF1000FCA
:101070000CBF02200320F6E7C499FF1F2DE9F041C1
:1010800006690025122780F8605080F86150F770DB
:10109000D0F810C09CF802E00EF0200E88B0044694
:1010A000884615461E46BEF1000F49D0B4238CF881
:1010B0000230784B21691A680092DDF800E006E002
:1010C0001A6801920198CEEB0000042830D8C87845
:1010D00000F0200000F0FF070028F1D04FEA48029E
:1010E00042F00102D2B20A711A680292DDF808E0F9
:1010F000206906E01A6803920399CEEB01010529E5
:101100002AD8C17801F0020101F0FF070029F1D0CF
:101110004FF0020C80F803C02269D17811F011075A
:1011200022D12DBB002E0CBFA0238023937003E09F
:101130008F70236980229A70384608B0BDE8F0812C
:101140000EF0FF07FFF79AFE0028F5D0236984F818
:10115000AF70B0229A70ACE787702369802238465E
:101160009A7008B0BDE8F081802393700027E3E710
:10117000012D75D0A021917021690A79BE4667467C
:101180004FF0A80C1A680492049805E01A680592BA
:10119000059A121A052A4AD8CA7802F0020202F009
:1011A000FF08002AF2D0CF702169CA78D2B212F0BB
:1011B000100F08465AD1920658D5013DEDB2012DC7
:1011C00049D0BEF1470F3BD90A79012DDAD11A680F
:1011D0000692069D05E01A680792079A521B052A97
:1011E00046D8C27802F0020202F0FF01002AF2D0D3
:1011F0000223C3702269D378DBB2D9063AD49B06A6
:1012000034D5B023BEF1470F93703FD8226904EB69
:101210000E0312791A760EF1010E5FFA8EFE16B1E8
:10122000236980229A7084F861E0774684E781F828
:101230000280236980229A70774684F861E07BE718
:1012400004EB0E0291F8048082F818800EF1010E72
:101250005FFA8EFEB9E781F802C021690846B0E75F
:10126000A82191702069BE460279B0E7774663E70E
:101270008170DEE71021A023D170013BFDD12269EE
:10128000937803F0F7037746937055E723691B794A
:10129000C5E700BFC499FF1F0148FFF71BBD00BF92
:1012A0000C8DFF1F0148FFF715BD00BFC88DFF1F44
:1012B0000349416500220021A0F84C1002657047E7
:1012C000AE47D54030B5054683B01548FFF7B6FCAC
:1012D000684600F087FE044610B1204603B030BDDA
:1012E000012000F04BFC792000F0AEFD01A800F0D9
:1012F000CFFB60B100232B6501A800F0EFFB68B9BC
:10130000BDF80430A5F84C30204603B030BD019B39
:101310002B6501A800F0E2FB0028F1D00023F1E7E3
:101320000C8DFF1F30B5054683B0084600F0B6FAB5
:10133000044610B1204603B030BD01A800F0A8FB60
:1013400020B1002320462B6503B030BD019BF9E797
:1013500030B5054683B0084600F0E4FA044610B103
:10136000204603B030BD0DF1060000F0B7FB28B1F8
:1013700023462046A5F84C3003B030BDBDF80630FA
:10138000F7E700BF084600F013BB00BF084600F0B7
:1013900009BD00BF084600F051BB00BF084600F081
:1013A00053BD00BF00B583B00DF107013A2000F036
:1013B000E9F830B99DF8070000F0010003B05DF8CE
:1013C00004FB002003B05DF804FB00BF10B582B041
:1013D000044600F13801684600F024F910B12020DD
:1013E00002B010BDBDF90010BDF90220BDF90430F6
:1013F00084E80E0002B010BD10B582B0044600F1C2
:101400003801684600F0D8F810B1202002B010BDB5
:10141000BDF90010BDF90220BDF90430E160226180
:10142000636102B010BD00BF10B582B0044600F188
:101430003801684600F02EFF10B1202002B010BD28
:10144000BDF90010BDF90220BDF90430A161E261CF
:10145000236202B010BD00BF01F002032DE9F0418C
:101460000C46804633BB03F0FF06374604F0040306
:1014700003F0FF06CBB904F0080303F0FF057BB9C6
:1014800004F0100404F0FF002CB108F1380108F159
:10149000340000F0FBF83E4335432843BDE8F081BB
:1014A0004046FFF7C1FF0546EAE74046FFF7A4FFC5
:1014B0000646E0E7FFF78AFF0746D7E738B5054657
:1014C000084605F085FB0446B5F84C0005F07CFBAA
:1014D0000146204605F084FC38BD00BF10B5044627
:1014E000084605F075FB216D05F07AFC10BD00BFC4
:1014F00010B50446084605F06BFB616D05F070FC05
:1015000010BD00BF044B82B01B680193019B0360B8
:10151000002002B0704700BFC499FF1F08B501F05A
:10152000CFF9002008BD00BF10B5154A92F824304D
:1015300082B093B1D8B98DF8070092E80A00012271
:101540001878497C0E4C0DF1070300F0FFFEA0B99E
:101550009DF80730637402B010BD917A69B100281C
:10156000E9D0517C39B901238DF80730E5E7022332
:101570008DF80730E1E71846EDE74FF0FF30EAE776
:10158000848EFF1F30B40B4C2268557B85420DD0F2
:10159000127E82420AD062681479844206D90B46D0
:1015A00030BC01461078012200F0F4BE4FF0FF304D
:1015B00030BC7047848EFF1FF0B5194B9A7A12F039
:1015C000700F83B026D00CCB0D460446917B187863
:1015D00006226B4600F0DEFE0646D8B99DF800E014
:1015E0009DF801109DF802709DF803209DF80400FD
:1015F0009DF8053041EA0E2142EA072243EA002322
:1016000021806280A38015B12846FFF77BFF30461A
:1016100003B0F0BD4FF0FF36304603B0F0BD00BF61
:10162000848EFF1FF0B5184B9A7A120783B026D527
:101630000CCB0D460446D17B187806226B4600F091
:10164000A9FE0646D8B99DF800E09DF801109DF866
:1016500002709DF803209DF804009DF8053041EAD2
:101660000E2142EA072243EA002321806280A38000
:1016700015B12846FFF746FF304603B0F0BD4FF0E6
:10168000FF36304603B0F0BD848EFF1F2DE9F041D8
:10169000224DAB7A82B0002B3AD095E80C000E4672
:1016A0008046117C1878022201AB00F073FE0746D9
:1016B00070BB9DF804409DF8053043EA042424B231
:1016C00016B13046FFF71EFF204605F081FA6D681F
:1016D0000446B5F9080005F07BFA0146204605F0FE
:1016E000C1F90446E88805F073FA0146204605F082
:1016F00077FB0B4905F0B8F94FF08F4105F0BCFAC4
:1017000005F096FCC8F80000384602B0BDE8F0814C
:101710004FF0FF37384602B0BDE8F081848EFF1FDE
:1017200000000C4270B55C4CA37A82B0002B00F034
:101730009F8002AD002305F8013D626823681078A0
:10174000597C01222B4600F001FE002840F09080D9
:1017500094E80C005179187801222B4600F0F6FD30
:10176000002840F0858094E80C0011791878012257
:101770002B4600F0EBFD00287AD194F82430002BA2
:101780003BD00C21626823688DF807101078197916
:1017900001222B4600F0DAFD002869D13220FFF744
:1017A000BDFEA37A3C4EC0228DF80720DA0744BF65
:1017B000E0238DF8073094E80C00117918780122A5
:1017C0002B4600F0C3FD002852D1737C002B5ED164
:1017D0008DF8073094E80C00517C18782E4C2B467D
:1017E000012200F0B3FD002842D1616822688DF823
:1017F0000700087851792B4631E00421626823689C
:101800008DF807101078197901222B4600F09EFD03
:1018100070BBA37C83B340238DF8073094E80C00A1
:10182000117918781C4E2B46012200F08FFDF8B973
:101830003220FFF773FE737C2BBB8DF8073094E8E2
:101840000C00517C1878144C2B46012200F07EFDD0
:1018500070B994E80C005179187804F11003012252
:1018600000F074FD003018BF0120404202B070BD8E
:101870004FF0FF3002B070BDA37ADB07CBD56023F9
:101880008DF80730CAE701238DF80730D7E7022328
:101890008DF807309EE700BF848EFF1F10B5204BE8
:1018A0009A7A82B06AB3B0F5FA7F33D010D9B0F526
:1018B0007A7F2AD0B0F5FA6F23D118221B7A8DF8DF
:1018C000072003229342164C0BD1002002B010BD1A
:1018D000FA2816D100228DF807201B7A104C93426B
:1018E000F3D094E80C009179187801220DF10703E8
:1018F00000F02CFD28B99DF80730DB08237202B0F8
:1019000010BD4FF0FF3002B010BD10228DF807203F
:101910000222E2E708228DF807200122DDE700BF5E
:10192000848EFF1F10B5214B9A7A82B0002A38D0DE
:1019300002380E2835D8DFE800F020342A34343459
:101940002F34343434343434080018228DF807200E
:1019500003225B7A154C934216D094E80C00D1799F
:10196000187801220DF1070300F0F0FCC8B99DF8CA
:101970000730DB08637202B010BD5B7A0B4C0022AB
:1019800093428DF80720E8D1002002B010BD082254
:101990008DF807200122DCE710228DF807200222B3
:1019A000D7E74FF0FF3002B010BD00BF848EFF1F9D
:1019B000214A937A002B38D010B5BB2882B017D8B3
:1019C00061281FD902238DF80730D27A1A4C9A4227
:1019D00015D094E80C009178187801220DF10703D6
:1019E00000F0B4FC20BB9DF80730E37202B010BDDC
:1019F000D27A114C01239A428DF80730E9D10020A8
:101A000002B010BD292805D8132807D904238DF862
:101A10000730DAE703238DF80730D6E709288CBFB3
:101A2000052306238DF80730CFE74FF0FF307047CE
:101A30004FF0FF30DAE700BF848EFF1F18B310B5F8
:101A4000124CE389984282B019D8642817D8B3FBA6
:101A5000F0F002AB01386168226803F8010D0878E4
:101A600092F82410012200F071FC40B99DF8073073
:101A7000E289013392FBF3F3238502B010BD4FF0EE
:101A8000FF3002B010BD4FF0FF307047848EFF1F53
:101A90000D4B1B7A032B13D8DFE803F00E0A060266
:101AA0000A4B036000207047094B03600020704719
:101AB000084B036000207047074B0360002070470D
:101AC0004FF0FF30704700BF848EFF1F33338341D8
:101AD000333303420000834200000343104A537A29
:101AE000032B19D8DFE803F014100C024FF4006345
:101AF0000380D37C13B103885B0803800020704708
:101B00004FF480530380F4E74FF400530380F0E771
:101B10004FF480430380ECE74FF0FF30704700BF85
:101B2000848EFF1F70B5144D95F82430EBB9AC7A54
:101B3000F4B100F0FE0004402E7C2C74041B18BF8E
:101B40004FF0FF3430B9287D00B10120FFF7ECFCE5
:101B5000204670BD0120FFF7E7FCFFF7E3FD0028FA
:101B6000F6D02E744FF0FF34F2E70024204670BD0B
:101B70004FF0FF34ECE700BF848EFF1FF0B53A4C06
:101B8000A37C834283B068D094E80C0006460DF134
:101B900007051179187801222B46002E33D000F06A
:101BA000F9FB00285CD19DF807306168226823F0BA
:101BB00020038DF80730087811792B46012200F0B8
:101BC000C5FB00284CD10320FFF7A8FC94F8223075
:101BD00002228DF80720002B3BD194F823302BB143
:101BE0009DF8073043F030038DF8073094E80C007F
:101BF000D17D187801222B4600F0A8FB80BB002085
:101C0000A67403B0F0BD00F0C5FB48BBA37A164F25
:101C100013F0010F9DF8073014BF43F0200323F0A9
:101C200020038DF8073094E80C0011791878012210
:101C30002B4600F08BFB98B90320FFF76FFC97F859
:101C400022301BB180238DF80730C6E78DF80730AE
:101C5000C3E782238DF80730BFE7002003B0F0BD53
:101C60004FF0FF3003B0F0BD848EFF1F194B93F887
:101C70002320824228D030B583B008BB8DF80700FE
:101C80009A7C2AB19DF8072042F002028DF80720C5
:101C900093F822202AB19DF8072062F07F028DF888
:101CA00007200CCB0446D17D18780A4D0DF10703AF
:101CB000012200F04BFB48B985F8234003B030BD4A
:101CC00030228DF80720DBE7002070474FF0FF300F
:101CD000F4E700BF848EFF1F70B5282882B04BD870
:101CE0000446B0B92E4EFFF7C1FF96E80C0007215D
:101CF0008DF804408DF80510517D1878022201AB53
:101D000000F024FB0546002836D13075284602B085
:101D100070BD0120FFF7AAFF012C32D0022C34D075
:101D2000052C25D90A2C34D805238DF804301C4CF9
:101D300094E80C00517A1878012201AB00F006FB00
:101D4000D0B994E8060020238DF804301078497D3E
:101D500001AB012200F0FAFA054668B90822012316
:101D60002073A2722375FFF7DDFE284602B070BD16
:101D700004238DF80430DAE74FF0FF35284602B02F
:101D800070BD02238DF80430D1E703238DF80430B1
:101D9000CDE7142C94BF062307238DF80430C6E743
:101DA000848EFF1F70B5274CA37A82B0002B43D0DE
:101DB00094F82450002D3FD1237D06462BB1431EBD
:101DC000272B33D92846FFF787FF032E22D8F92681
:101DD00002AB6168226803F8016D08785178194DEB
:101DE000012200F0B3FA044630BB288D9DF807307D
:101DF0006428A8BF64205A1C4FF47A7393FBF2F353
:101E0000EB81FFF71BFEE8894008FFF7D1FD204674
:101E100002B070BDB6F57A7F28BF4FF47A764FF4E2
:101E20007A7393FBF6F6013EF6B2D1E7FFF754FF63
:101E30002C46204602B070BD4FF0FF34204602B061
:101E400070BD00BF848EFF1FF0B510F0700383B02B
:101E5000044600F0968001238DF80630604D95E829
:101E60000C000DF10606517D18780122334600F072
:101E70006DFA002840F0AF809DF806308DF806001E
:101E800023F0400367062B7340F18F80A00605D432
:101E90009DF8063043F002038DF80630E10605D4C4
:101EA0009DF8063043F001038DF80630220740F11B
:101EB000838095E80C00917D1878494F33460122C4
:101EC00000F044FA002840F0868014F0F70F3DD06F
:101ED000FFF7CCFE97E80C000DF107071179187891
:101EE00001223B4600F056FA00286FD1E30738D5AF
:101EF00011229DF807308DF8062095F8242043F034
:101F00002003002A38D063F07F038DF8073095E86E
:101F10000C0092F826101878314D3346012200F05B
:101F200015FA002852D195E80C0011791878012291
:101F30003B4600F00BFA0646002847D13220AC722F
:101F40002E75FFF7EBFA304603B0F0BD97E80C00B2
:101F50000DF107071179187801223B4600F01AFAB3
:101F6000A0BB10229DF807308DF8062095F824209C
:101F700003F0DF03002AC6D103F07F038DF807309A
:101F8000C5E700BB02AE164D402306F8023D6A6865
:101F90002B681078597D0122334600F0D7F9D0B96B
:101FA0009DF8063023F040032B730423A0068DF820
:101FB00006303FF573AF6BE79DF8063043F038030A
:101FC0008DF8063075E78DF8063047E74FF0FF369D
:101FD000304603B0F0BD0023AB724FF0FF36B2E7DE
:101FE000848EFF1FF0B585B004ADA84C802305F8A2
:101FF000083D626823681078597D01222B4600F065
:10200000A5F9002870D106466420FFF787FA6268B8
:1020100023688DF808601078597D01222B4600F066
:1020200095F9002860D161682268E07448238DF832
:1020300008300878117A2B46012200F087F9034610
:10204000002851D1FF224FF6FF7601254FF4FA60A8
:10205000E38223836383A383E383238484F823308D
:102060006375237584F8243084F82530E384A272E4
:1020700022726272E2722274A274E681268525734E
:1020800084F82250FFF70AFC70BB0220FFF74AFCDD
:1020900050BB2A20FFF78CFC30BB3220FFF782FEBA
:1020A00010BBFFF73FFDF8B92846FFF767FD0C2589
:1020B00001AB01220021284600F06CF96B1C18B915
:1020C0009DF80420482A14D0DDB2102DF0D17048BC
:1020D00000F098F90A20FFF7B1FC044620B9FFF799
:1020E000B3FE204605B0F0BD4FF0FF34204605B0EA
:1020F000F0BD2846102601AB01220A2184F82A509F
:102100008DF80460614D00F021F90028E2D1012032
:10211000FFF704FA1F2701AB01220A2195F82A00D4
:102120008DF8047000F012F90028D3D10120FFF7D8
:10213000F5F901AB0322314695F82A0000F02AF99F
:102140000028C7D19DF804209DF805109DF80630A1
:102150008DF804608032803103F18006AA85E9851C
:1021600095F82A002E8601AB01220A2100F0EEF834
:1021700006460028AED10120FFF7D0F93046FFF720
:10218000FDFC40216A682B688DF804101078997E58
:10219000012201AB00F0DAF800289BD195F82A3033
:1021A00069682A6863F07F038DF804300878917FAE
:1021B00001AB012200F0CAF800288BD102216A6825
:1021C0002B688DF804101078D97F012201AB00F044
:1021D000BDF800287FF47EAF88216A682B688DF8EF
:1021E0000410107893F82010012201AB00F0AEF833
:1021F00000287FF46FAF94F82A10626823688DF886
:102200000410107893F82110204C01AB012200F04B
:102210009DF800287FF45EAF0A21626823688DF87C
:102220000410107893F82210012201AB00F08EF810
:1022300000287FF44FAF8121626823688DF8041075
:10224000107893F82310012201AB00F07FF80028EA
:102250007FF440AF1121626823688DF80410107874
:1022600093F82610012201AB00F070F800287FF4EB
:1022700031AF6168226803238DF80430087892F842
:10228000271001AB012200F061F823E7848EFF1FC5
:10229000249A0000F0B52C4EB37ADB0785B048D500
:1022A00096E80C000D46044692F82810187808228B
:1022B00001AB00F06FF8074600283AD19DF80430D2
:1022C00003F00303012B39D19DF90B30002B38DBD0
:1022D0009DF80A009DF806C09DF805109DF808E0DD
:1022E0009DF807209DF8093041EA0C2143EA0023BC
:1022F00042EA0E2209B212B21BB221806280A38090
:10230000B6F92C0001FB00F109122180B6F92E105C
:1023100002FB01F212126280B6F9302003FB02F3D5
:102320001B12A38015B12846FFF7ECF8384605B01C
:10233000F0BD4FF0FF37384605B0F0BD6FF0010734
:10234000F4E76FF00207F1E7848EFF1FF8B5104E37
:1023500047001546304601221C4686F8637086F811
:10236000AE2086F8AD20FEF755FC55B1013D54FA7C
:1023700085F5013C14F8011F0548FEF74BFCAC4203
:10238000F8D101210248FEF7EFFD0020F8BD00BFA3
:102390000C8DFF1F2DE9F041194D4FEA400E01272A
:1023A0008046284616461C4685F863E085F8AE70E0
:1023B00085F8AD70FEF72EFC00212846FEF7D4FD0F
:1023C0003B46324641462846FEF758FEAEB1701EE7
:1023D00054FA80F0631E2C4695F8602095F8611041
:1023E000A618914202F101028ABF84F86020FF2200
:1023F000327E03F8012F8342EED10020BDE8F08148
:102400000C8DFF1F0CB402B0704700BF01B441EA4D
:10241000000313F003036FD1403A41D351F8043B5A
:1024200040F8043B51F8043B40F8043B51F8043BAE
:1024300040F8043B51F8043B40F8043B51F8043B9E
:1024400040F8043B51F8043B40F8043B51F8043B8E
:1024500040F8043B51F8043B40F8043B51F8043B7E
:1024600040F8043B51F8043B40F8043B51F8043B6E
:1024700040F8043B51F8043B40F8043B51F8043B5E
:1024800040F8043B51F8043B40F8043B51F8043B4E
:1024900040F8043B51F8043B40F8043B403ABDD2BD
:1024A000303211D351F8043B40F8043B51F8043B5F
:1024B00040F8043B51F8043B40F8043B51F8043B1E
:1024C00040F8043B103AEDD20C3205D351F8043BEE
:1024D00040F8043B043AF9D204320AD0D2071CBFB8
:1024E00011F8013B00F8013B03D30B7803704B78E4
:1024F000437001BC704700BF0C2A4AD310F003039D
:1025000011D0C3F10403D21ADB071CBF11F8013B41
:1025100000F8013B07D311F8013B00F8013B11F82B
:10252000013B00F8013B11F003033FF475AF30B4F9
:10253000043AC91AC3F1040C51F8044B022B19D008
:10254000032B0BD0240A51F8043B1D0644EA050472
:1025500040F8044B1C46043AF4D216E0240E51F81D
:10256000043B1D0244EA050440F8044B1C46043AAF
:10257000F4D20AE0240C51F8043B1D0444EA05049B
:1025800040F8044B1C46043AF4D20432B1EB0C017F
:1025900030BC043AA0D3013A11F8013B00F8013BEA
:1025A000F9D20B7803704B7843708B78837001BC41
:1025B000704700BF08B5104C08E0236859050DD4DA
:1025C00023681A050FD42368DB0411D42368580349
:1025D000F3D500F0EDFA23685905F1D500F00EF8B7
:1025E00023681A05EFD500F009F82368DB04EDD560
:1025F00000F004F8EAE700BF3480044008B5FFF7B4
:10260000D9FF00BF014B10221A80704700200540FF
:10261000704700BF094908B50B6830B16A461844D5
:10262000A2F58052904202D20860184608BD04F01C
:1026300035FD0C2303604FF0FF3008BDBC8EFF1F3B
:10264000704700BF10B40F4B53F8302092F880420F
:102650002CB1012369B182F8803010BC704703EBC4
:10266000C0035B681A6841B922F002021A6010BC0C
:10267000704782F8003110BC704742F003021A60C4
:1026800010BC7047109E00001C4A02EBC0030129D9
:102690005B6811D004291BD052F83000002280F86A
:1026A000802229B1022920D0032922D01A60704744
:1026B0004FF480721A60704752F830004FF4A272E3
:1026C00080F880121A601A6822F020021A6070479F
:1026D00052F830104FF4A272012081F880021A6083
:1026E0001A6842F020021A60704740F203121A6022
:1026F00070474FF481721A60704700BF109E00004F
:10270000212848D8F8B5042A44D8DFE802F0484B1D
:102710004E0345004FF410262B4B03EBC0030D4630
:102720005C68216811F4E06148D0284B284A2949A7
:10273000C3F89C2104F140422748C3F8A411A2F534
:102740009221264FC3F8A0017C292548C3F8A8711F
:10275000C3F8AC012CD9A2F594237C2B2AD9A2F57D
:1027600096237C2B28D9A2F598237C2B29D9A2F576
:102770009A227C2A27D81B4872B6236823F4702338
:1027800043F08072C4F384011643236040F8215063
:10279000266062B6F8BD70474FF43026BCE74FF4B0
:1027A0000026B9E74FF44026B6E74FF42026B3E7FA
:1027B0000D48E1E70D48DFE70D48DDE7FFF764FF6F
:1027C000B3E70C48D8E7F8BD109E00000082FF1F59
:1027D000E18CFF1F898CFF1FB58CFF1F5D8CFF1FD5
:1027E000318CFF1F988FFF1FC08EFF1FF88EFF1FB9
:1027F000488FFF1F788FFF1F1A4B03EBC00010B4E8
:10280000426802F14043A3F592217C2923D9A3F524
:1028100094217C290DD9A3F596217C291FD9A3F5F4
:1028200098217C2919D9A3F59A237C2B11D80E4C19
:1028300000E00E4C72B613680D4823F08773C2F3A4
:10284000840123F4803343F08073136044F8210043
:1028500062B610BC7047074CECE7074CEAE7074C40
:10286000E8E700BF109E0000988FFF1FF88EFF1F43
:1028700041260000C08EFF1F788FFF1F488FFF1F6B
:1028800030B4054B054D064C002210211A602A6019
:102890002060196030BC704714D0034004D003405E
:1028A00000D00340704700BF212801D8FFF7CABEFF
:1028B000704700BF212801D8FFF7E6BE704700BF70
:1028C0002DE9F843054672B6204F214B214A1B687B
:1028D0003C68126862B6520102D5322B88BF0134BF
:1028E00095B3C3F5BB331C4EDFF86490DFF864800A
:1028F000FF334FF47A72A6FB031302FB04F404EBDC
:10290000931472B6D9F800103A68D8F800E062B6AD
:10291000C1F5BB33FF33A6FB03031EF0806FC4EB8E
:1029200093134FF47A7002D0322988BF013200FB32
:102930000233B3F57A7F04D3013D05D004F57A74F0
:10294000DFE701F07BFBDCE7BDE8F883C499FF1FFC
:1029500018E000E004ED00E0ABAAAAAAF8B52E4BFF
:102960002E49DFF8D4E0DFF8D4C02D4E2D4D2E4C8B
:102970002E4A2F4F4FF4000018604FF080701860FF
:102980004FF0007018604FF0806018604FF00060EA
:1029900018600020086028234BF6FF71CCF8001067
:1029A000CEF80030336013602B6023603B60B3626D
:1029B0009362092245F8242CC4F8D80F05F57F65E9
:1029C000C7F8D41F07F5FF2707F5FA67C6F8F83FE1
:1029D0002B6006F5FF26C4F8D42F05F5FD2504F578
:1029E000FF24386006F2F4761248316005F5FF6581
:1029F00004F5FD642B602360026001F095FBFFF796
:102A000051FF1420FFF75CFF00F00CFD4FF48C70B9
:102A1000BDE8F840FFF754BF08E100E00480034040
:102A200014800340248003402C8003401C8003401A
:102A30003480034000800B400C800340088003403A
:102A4000431E042B14D872B60A4951F8230068B10A
:102A500070B4094C058834F81320466841F82360A7
:102A6000521B24F8132062B670BC704762B67047E0
:102A700000207047249AFF1F909BFF1F01380428F5
:102A80000BD872B6074B53F8203043B100205B6877
:102A90000130002BFBD162B670470020704718460A
:102AA000F9E700BF7C9AFF1FF0B472B61A491B4EBB
:102AB000012311F8014B194F9A00240742F0010538
:102AC00005D556F8324064B156F83520BAB1013315
:102AD000062BEED162B6124B00221A70F0BC00F049
:102AE0001BBD0F4C0F4D217807EB43130830013904
:102AF0005860217047F8325062B6F0BC7047084AFF
:102B00000949137807EBC5040830013B6060137076
:102B100047F8351062B6F0E7549F00000080FF1FB1
:102B2000AD9AFF1F88004000C8004000431E042BE0
:102B30001DD81B4A400140F0100030B4104472B65A
:102B4000184CE25C032A1BD8DFE802F002121517CA
:102B500003220D88E25410F0080F14BFC823882305
:102B600043EA054308314160036062B630BC7047F8
:102B700008300222EDE70522EBE708300422E8E7FF
:102B8000094A52F8230038B1084A52F8230041603C
:102B900042F8231062B6E9E742F82310034AF7E748
:102BA0000080FF1FBC9AFF1F7C9AFF1F909AFF1F97
:102BB0002DE9F04FDFF818B3DFF818A387B044E031
:102BC000AE4F4FEA930807EBC809013ED9F804203D
:102BD00003F00803F6B2A2F1080003F0FF04002B93
:102BE00040F0058157F838301B0C99B222F8081CC8
:102BF000002B00F0F380A24B22F8064C42F8044C64
:102C000053F82620002A00F06E819E4D55F826309C
:102C100058609D4C45F8260034F81630194424F8C5
:102C2000161000F059FC002800F05681974A984B86
:102C300019F0080F00F1080018BF1346C9F8040086
:102C400047F8383008238BF800309BF80040E4B296
:102C500061071DD58F4B1B78BBB18F490A7802F0F5
:102C6000FF032AB1013BDBB20B70002B00F0B483F1
:102C70008A490A7802F0FF032AB1013BDBB20B70EC
:102C8000002B00F0F88000F0DFFC04238BF800300C
:102C900004F0080303F0FF02002B00F0D5809AF83F
:102CA0000030DBB21E098BD19C08DFF8D09159F8B7
:102CB000342009EBC401C2F38302013A49680C2AAB
:102CC0007DD8DFE802F080807C7C7C7C7C7C447C4E
:102CD0007C7C07000868724D6C4F4A68714B49F85C
:102CE000347081B2704E6A6040F2816400222860C4
:102CF000A1424FF00100C9F8102001931A60C9F8F1
:102D00001820307000F2F380B1F5D06F80F033837B
:102D1000B1F5817F00F0CE8200F24C81802900F075
:102D20002482822940F08D82A98801F07F01052943
:102D300000F287825D4F5E4C89000F442270627002
:102D40003A78970740F132832070022011E2554B08
:102D500001931A684AB3574B5749534E18880C7859
:102D600037784028054684F0010E28BF402544F0FE
:102D70000204002F81F800E0A0EB050009EBC40E6F
:102D80000CBF8821C82180B287F0010741EA0541C4
:102D9000CEF80420188037702A4449F8341010B94E
:102DA000402D18BF0022019B1A603D4B1A88B2F5D6
:102DB000A06F04D100219A785970404B1A70404A94
:102DC000012313703EE7364A158842F221008542FE
:102DD00000F05A812D4A49F83420F0E72B4A2C4B59
:102DE00019F0080F18BF134647F838302AE700F0EB
:102DF00093FB344A344952F82630002B00F03481DA
:102E000058688C5D42F8260003F10802C9F80420D6
:102E1000032C05D8DFE804F0120F150204228A55AE
:102E20001A8819F0080F0CBF8823C82343EA02430D
:102E300047F8383006E702228A55F1E703228A551F
:102E4000EEE705228A55EBE7E00700F157812106FE
:102E500000F18181A20706D51C4A1D491378022082
:102E6000DBB213700870E30602D5194B10221A70FA
:102E700007B0BDE8F08F00F065FF04E70080FF1F9A
:102E8000249AFF1FCC99FF1F909BFF1FC800400092
:102E900088004000B89AFF1F399AFF1F249BFF1F2C
:102EA000A49AFF1FC899FF1F389AFF1FC020074030
:102EB000B09AFF1FE099FF1FAC9AFF1F98200740B0
:102EC000942007407C9AFF1FBC9AFF1F8820074070
:102ED0008020074090200740B64A47F83800137812
:102EE00001331370AEE643F82600B34D91E642F28B
:102EF0002104A14200F0B48000F2ED80B1F5086F2A
:102F000000F05381B1F5106F40F09B81AB4AA97876
:102F10001170AB4D042402E00134182C0CD059F888
:102F200034301A06F8D505EBC40301345868083864
:102F300000F0F2FA182CF2D1A249A34BA34A029155
:102F4000A3499D4DA34C0596039504944FF00008AA
:102F50000E4615461C46206828B1476800F0DCFA8A
:102F60003846002FF9D100232360039B28681A46B6
:102F7000002342F8283028B1476800F0CDFA3846DF
:102F8000002FF9D100222A60029A337811460022DC
:102F900041F8042B049A0291023B4FF0000122F801
:102FA0001810032B00F29A81DFE813F0C701950196
:102FB000C701950140F20232914240F03781A98861
:102FC00001F07F01052900F23C816A88002A40F067
:102FD0003881814C89000C448046217841F00201FF
:102FE0002170002002908446864604467B490D7875
:102FF00045F0020709EBC703B8F1000F5C600CBF96
:103000008824C82444EA0C0385F0010449F83730C9
:1030100032700C706A4F724BDFF8C0C1002840F06C
:103020001781BEF1400F1BD144F0020409EBC40329
:10303000029FDFF88CE15F60002A40F01E810204ED
:1030400042F0880286F800800D7007444EF8342064
:103050003B46402804D10020624A019910800B6051
:10306000614A01231370AAE68B5D032B00F21B81DA
:1030700001A252F823F000BF452C0000452C0000AF
:103080004B31000051310000928862B9574ACD1D82
:1030900011F8013B02F8013F8D42F9D1544A126800
:1030A000862A00F0BF804D494D4E0878327840F0B6
:1030B000020580F00100087009EBC501002A4FF0FD
:1030C0000000486082F001020CBF8821C82149F845
:1030D000351032707EE642F22124A14240F0AD80EC
:1030E000A988002940F06081424F434A434C3F6821
:1030F000AD78176080460A46257072E73A49304B32
:103100003F48364EDFF8D0C03E4DDFF810E13E4F6D
:1031100002240C703D4C18605C6098603C48D8609C
:103120001A619A610D2332703A4C8CF800303A4E95
:10313000FF232B7001209F258EF800303A703370EA
:103140002570087007B0BDE8F08F00238B5579E536
:1031500001238B5576E52049304B80220D200870E5
:103160001A70A2077FF57FAE76E62D4C0220227002
:103170006270EA88824280F0308118490D78402AD6
:1031800045F00207964609EBC70028BF4FF0400EF6
:1031900004EB0E0344600293CEEB02004FEA0E4CA8
:1031A0004FF001080022C8242CE7044A1C4C127876
:1031B0002270DEE7AD9AFF1FCC99FF1FB89AFF1F60
:1031C0000080FF1F909AFF1F249AFF1F7C9AFF1F09
:1031D000BC9AFF1F909BFF1FC0200740AC9AFF1FA7
:1031E000389AFF1FE099FF1F94200740C79CFF1FDC
:1031F000C89CFF1FC499FF1FD09CFF1F349BFF1F5B
:10320000880040008820074098200740E499FF1F6D
:103210003C9AFF1F842007408C20074080200740F5
:10322000B09AFF1F754A0F2111703CE7B1F5A06FEE
:1032300007D100224FF00108D3E642F22132914239
:10324000F7D06F4B0F221A706E4A01231370B6E548
:1032500040287FF6E9AE44F0020407EBC401029E69
:103260004E60AAB183F80080674A8CF8005033465C
:103270004038403347F83420EEE6029B86F8008061
:10328000020442F0C8020D7003444EF83420E0E618
:1032900083F80080029B5D4A8CF800504038403330
:1032A00047F83420D8E619F0080F0CBF0223032397
:1032B0008B55C7E4A98801F07F010529C1D86A8828
:1032C000002ABED14E4C89000C448046217821F062
:1032D0000201217085E64FF00103337008F1010807
:1032E000B8F1050F04F1040405F1040506F1010627
:1032F0007FF431AE464B059E464D474F0021197075
:103300004FF0010817F8013B05F8043B1B0718D4E0
:103310004FEA880444F0020244F00304002349F811
:10332000323049F834303D4B9D4208F10108E9D173
:1033300096F8008088F0010253E64FF000033370E6
:10334000CCE700F0C9F800283CD009EB48134FEA5D
:103350008804083058602D4B49F8343000F0BCF830
:1033600030B344F0010309EBC30208305060264A31
:1033700049F83320CEE72A4A5468002C3FF461AF65
:103380006888AF8804E00C325468002C3FF459AFD1
:1033900013888342F7D15388BB42F4D1000A032833
:1033A0000CBF20781089E4E680461AE60220E0E6A9
:1033B000174B44F001021B7849F83200144A0133DC
:1033C0001370A7E7124B124A1B784FEA88040133A7
:1033D00049F834001370C1E700BE4028864628BF74
:1033E0004FF0400E04EB0E03CEEB00004FEA0E4C04
:1033F000029300224FF00108F8E500BF399AFF1F41
:10340000C020074094200740C800400088004000CA
:10341000AD9AFF1FC4200740549F0000D8200740EA
:103420005C9F00002DE9F04101F0CCF800231F491A
:103430001A4601EBC30041F833200133182B4260D8
:103440004FF000041948F4D1194A1A4F13681A4969
:103450001A4D1B4EDFF874C0DFF874E0DFF874809B
:1034600043F480231360C0F307233B70C0F307438A
:103470000B70000EFF2302F528322870D4328CF82E
:103480000030104D8EF800300F483370012388F85B
:103490000030702681F850404FF40074102107F876
:1034A000183C2E7004601170BDE8F0810080FF1F91
:1034B000348004409C200740B0200740B4200740DF
:1034C0001020074049E400E008E100E080200740C8
:1034D000882007409420074072B60D480268B2FA6F
:1034E00082F31D2B10DC4FF00041D94022EA01028B
:1034F000026062B6074803EBC303DB00C218002179
:10350000C15010465160704762B60020704700BF3E
:10351000A08FFF1FBC83FF1F0D4B0E4AC31AA2FBD7
:1035200003231B091D2B0CD80B4A127852B972B613
:103530000A484FF00041026821FA03F31A4302607F
:1035400062B67047064A1278002AF0D0FFF7ACBA8C
:10355000BC83FF1F398EE338AD9AFF1FA08FFF1F7A
:10356000B89AFF1F38B50E4B0E4C1B6821880546D4
:103570008BB1B1F5917F05D20B4A4B1C55549BB2D0
:10358000238038BD0022084898470021064A555438
:103590000123238038BDB1F5917FEDD338BD00BF45
:1035A000E89AFF1F9E9BFF1FA49BFF1F2DE9F84376
:1035B000214E224F3168012380463B70B1B1204D2E
:1035C0004B8801EB8302013300240F2BC2F80880E3
:1035D0002C7004D84B8000233B70BDE8F883402357
:1035E0000B800420FFF7A2FA3460F4E7DFF8549070
:1035F00099F80030002BF0D0114D45F6215408E029
:10360000013C12D02B7883B900F018FD99F80030F6
:103610007BB10420FFF732FA0528F1D8FFF75CFFF1
:10362000014630600028EBD0CAE701232B70BDE8CB
:10363000F883BDE8F88300BF049BFF1FD89AFF1FE3
:10364000089BFF1FB89AFF1F70B50A4C257845B933
:10365000094E31680123237009B14B8813B9002347
:10366000237070BD9B000B800420FFF75FFA35606C
:10367000F5E700BFD89AFF1F049BFF1F2DE9F0411B
:10368000AD4E33680746002B00F092801D885A88A3
:10369000910803EB81010432AA428C6842D25A801D
:1036A00004F00F064FEA1428A449A6F1080208F016
:1036B0000F00C4F30313062A00F101050B701AD999
:1036C000B31E012B5FFA88F04ED9052E48D0042E88
:1036D00000F0A481731F022B7FD90F2E0ED1F72883
:1036E00042D8F02802D0964B1B883BB1FFF73AFF37
:1036F0000020BDE8F08127B1BD4202D00020BDE826
:10370000F081082EC4F3033300F08780092E11D016
:103710000A2E40F094800A2BF0D18A4B8A4A1B680B
:10372000A02181E01846FFF7F7FE0520FFF788F992
:103730003060B5E7092BE1D1270E00F07B81834B88
:10374000814A1B689021C4F307461170EDB2FCB2A8
:10375000002B00F09D80224631462846984797E08E
:10376000F02843D9F72841D0F1380E28C6D801A354
:1037700053F820F02B3900000F390000FD3800000D
:10378000FD360000FD360000EF380000FD36000079
:10379000CF390000FD36000099390000B339000030
:1037A000D7380000FD360000BF380000A338000005
:1037B000674B1B78002BA1D00520FFF741F903468A
:1037C000306000289AD00588002D7FF460AFFFF7A5
:1037D000A3FE35602846BDE8F081FFF7C3FEC4F3C1
:1037E0000740FFF7BFFE072E02D1200EFFF7BAFEFB
:1037F000534B584A198858481468584D524A01701A
:1038000000270E0AF0201F802E7010700CB30122CA
:103810005348A0470120BDE8F081082B7FF46EAF2C
:10382000504B494A1B688021C4F307461170EDB222
:10383000240E6BB3284622463146984728E00B2ECB
:1038400011D10B2B7FF45AAF474B3F4A1B68B02175
:10385000EAE7464B1B68002B00F0FB804048984786
:103860000120BDE8F0810C2E40F000810C2B7FF48C
:1038700045AF3F4B344A1B68C0211170EDB2C4F311
:103880000746002B00F0C88028463146240E984792
:103890003849314A314B0D7016701C700120BDE85B
:1038A000F081354B1B68002B00F0D6809847C4F39D
:1038B0000746254BEDB2240E83F80080E8E72F4B36
:1038C0001B68002BF2D12E4B1B68A3B1FE2098473A
:1038D000C4F30746EDE72B4B1B68002BE6D1284BC2
:1038E0001B6843B1FC209847C4F30746E1E7264B29
:1038F0001B68002BDAD1C4F30746DAE7234B1B68B9
:10390000C4F30746002BD4D030469847D1E7204B6C
:103910001A68002AEFD0260C630C06F07F0003F42F
:103920007E531843F6B29047C3E71A4B1B68C4F3A3
:103930000746002BE8D1BCE7109BFF1FA29BFF1F8F
:103940009E9BFF1FEC9AFF1F9C9BFF1F209BFF1F4E
:10395000B89AFF1FE89AFF1FA09BFF1FA19BFF1FA4
:10396000A49BFF1F189BFF1F1C9BFF1F009BFF1F9B
:10397000DC9AFF1FA39BFF1FC89AFF1FCC9AFF1F53
:10398000D09AFF1F0C9BFF1FFC9AFF1F149BFF1F69
:10399000E49AFF1FF89AFF1F3F4B1B68002B85D14D
:1039A0003E4B1B68002BA6D0FA209847C4F307466D
:1039B0007FE73B4B1B68002B7FF478AF374B1B68CE
:1039C000002B98D0FB209847C4F3074671E7354B8E
:1039D0001B68002B7FF46AAF304B1B68002B8AD02A
:1039E000F8209847C4F3074663E70E2B7FF486AEB2
:1039F0002D4A2E4B1268E0211970002A47D0260C60
:103A0000610C06F07F0301F47E511943EDB2A1F57C
:103A1000005128469047F6B2240E39E7FFF7A2FD81
:103A2000C4F30740FFF79EFD200EFFF79BFD00202B
:103A3000BDE8F0811E4B1D4A1B6880211170EDB25C
:103A4000C4F3074683B1314628463A4698473C4678
:103A50001EE70120BDE8F081104B1B68002B3FF4EE
:103A60004AAFFF20984746E71C4611E70D2EBCD110
:103A70000D2B7FF443AE0F4B0C4A1B68D021117005
:103A8000EDB2C4F30746002B7FF4FEAEC4E7C4F3E7
:103A90000746EDB2240EFBE6F49AFF1FD09AFF1FF3
:103AA000D49AFF1FC49AFF1FE09AFF1F9C9BFF1F21
:103AB000189BFF1FF09AFF1F38B50F4D286878B18B
:103AC00043880288C118013393420C7A02D24380A2
:103AD000204638BDFFF720FD002320462B6038BD6F
:103AE000064B1B782BB10220FEF7AAFF28600028A6
:103AF000E6D14FF0FF3038BD309BFF1FB89AFF1F53
:103B000010B5094C206818B143881844007A10BDDC
:103B1000064B1B782BB10220FEF792FF2060002895
:103B2000F2D14FF0FF3010BD309BFF1FB89AFF1F3E
:103B3000044B054A1B6850881BB11A885B88D31A4E
:103B400018447047309BFF1F909BFF1F0B4B1B7847
:103B50009BB110B50A4C206848B1FFF7DDFC00238B
:103B600002202360FEF76CFF30B1FFF7D5FC022086
:103B7000FEF766FF0028F8D110BD7047B89AFF1F06
:103B8000309BFF1F2DE9F04FDFF8F89083B0012242
:103B900089F80020019169B3DFF8EC80364F019E6F
:103BA0008346D8F80000B0B3344D4488C4F14001D6
:103BB000B14228BF314604EB010E00221FFA8EFEEF
:103BC0002A70761AA0F802E000F1080251B1013C17
:103BD000224459441BF8014B02F8014F8B45F9D19F
:103BE000B0F802E0BEF13F0F0BD8254A0521117055
:103BF000002ED6D10198002389F8003003B0BDE82B
:103C0000F08F4022028001460320FEF78FFF002242
:103C1000C8F80020E9E73A782AB3184D4AF2F924A7
:103C20004FF0010A07E0013C16D02A78A2B900F053
:103C300005FA3A78BAB10320FEF720FF0728F2D838
:103C400089F800A0FFF748FCC8F800000028ACD1B4
:103C50000C4B013C1870E8D101234FF0FF302B7062
:103C600003B0BDE8F08F00234FF0FF3089F800303B
:103C700003B0BDE8F08F00BFB89AFF1F2C9BFF1F59
:103C8000249BFF1F259BFF1F289BFF1F00B583B0B0
:103C900002AB012103F8010D1846FFF773FF03B0D3
:103CA0005DF804FB38B50E4D0E4C286801232370D7
:103CB00028B1408800232370C0F1400038BD0A4B72
:103CC0001B7813B90020207038BD0320FEF7D6FE04
:103CD0000728F7D8FFF700FC28600028E9D1F1E7B2
:103CE000289BFF1F259BFF1FB89AFF1FF8B5114B9C
:103CF0001B788BB1104E114D346801272F7064B1C1
:103D00000F4A638800271770214623800320FEF79F
:103D10000DFF376000232B70F8BDFFF7DDFB084B6C
:103D200028B1014603201C70FEF700FFF2E71F7068
:103D3000F0E700BFB89AFF1F289BFF1F259BFF1FBE
:103D4000249BFF1F38B50E4B1B7873B90D4C2168AF
:103D500061B103F0FF054B880B800320FEF7E6FE00
:103D6000256038BD084B01221A7038BDFFF7B4FB3F
:103D70000028F7D00146BDE838400320FEF7D6BE44
:103D8000259BFF1F289BFF1F249BFF1F70B5EFF390
:103D9000108272B60C4C206880B10C4E002543692D
:103DA000236073B19D6102B962B645778368984715
:103DB000EFF3108272B620680028F0D102B962B623
:103DC00070BD3360EFE700BF389BFF1F3C9BFF1FB8
:103DD000FFF7DCBF024A136801331360704700BF6E
:103DE000C499FF1F2DE9F0438C688BB0ECB100251E
:103DF000064689462F462B46212201A9484600F057
:103E0000E7F83268202C234628BF2023D2F804800C
:103E100001A91A4630461D44E41AC0470744002C45
:103E2000E9D138460BB0BDE8F0832746F9E700BF7B
:103E300030B5044683B002252A4601A80549FEF79D
:103E4000E5FA23682A4601A95B682046984703B033
:103E500030BD00BF209F000010B50446006803F08D
:103E600053F9204610BD00BF38B543688B4201D3DB
:103E7000012038BD0D4604460131006803F0BAFC4C
:103E80000028F6D0A36884E82100002BF0D103704D
:103E9000EEE700BFF8B50446154632B9036803B132
:103EA0001A700023A3602046F8BD0E461146FFF7A6
:103EB000DBFF074648B9206810B103F025F92760F9
:103EC00000236360A3602046F8BDA56031462068EA
:103ED00003F09AFEE7E700BF38B50023044603600D
:103EE00043608360037341B108460D4603F008FF49
:103EF000294602462046FFF7CDFF204638BD00BFC9
:103F000038B5054608460C4603F0FAFE214602463F
:103F10002846BDE83840FFF7BDBF00BF10B50446D6
:103F200000238AB0084623606360A3602373911C5A
:103F30006B4600F08FF930B101462046FFF7E0FFF5
:103F400020460AB010BDA06020460AB010BD00BFD8
:103F50002DE9F84303680F46BB42044681681546C5
:103F60000AD85A18974207D2C3EB07094FF0010845
:103F700035B92046BDE8F8834FF00008002DF8D091
:103F80004E1931462046FFF76FFF0028F1D0B8F1F7
:103F9000000F0ED02368A0682A4603EB09011844DD
:103FA000FEF734FA236800229A55A6602046BDE841
:103FB000F8832068A3683946184403F025FEF4E727
:103FC00010B58A6809680446FFF7C2FF204610BD95
:103FD000B2B1A9B138B584689C420ED9E41A013A4D
:103FE0000D469442016828BF1446194422462846CB
:103FF00003F0F4FE00232B5538BD00230B7038BDB1
:10400000704700BF08B5FCF731FAFCF777FD00F008
:1040100015F8FAE7FFF79ABDFFF772BDFFF74CBD41
:10402000FFF786BDFFF762BEFFF73CBE08461146AC
:10403000FFF7A8BD0846FFF729BE00BF2DE9F843EA
:10404000314E337893B1314F3A787AB90122D9079A
:104050003A7036D49A0719D400225B073A7005D516
:104060002B4B1A6812B1EFF305820AB1BDE8F88351
:10407000EFF3108172B6186818B1264C2278002A26
:104080002ED00029F2D162B6BDE8F883DFF8908027
:1040900098F80020002ADFD0DFF88890002405E09F
:1040A000013498F80030E4B2A34212D959F82450F0
:1040B0002B6828461B6998470028F1D02B69984740
:1040C000EEE7FFF735FDC8B9134B1B781BB9337802
:1040D000C0E73378C0E7337803F0FE033370B9E705
:1040E00045691D60012323705DB1AA6101B962B603
:1040F00000254577836898472570B7E700F0A4FA54
:10410000E2E7064B1D60F1E7B48FFF1F499BFF1FDD
:10411000449BFF1F489BFF1FBE90FF1F409BFF1F3C
:10412000589BFF1F4C9BFF1F30B42948294A2A4B3C
:104130002A4D6024E121047011701B78284C082B53
:1041400030D00A2B2748284937D00C2B0CBF3522FA
:104150003D2212232A60236002600B60234B244916
:104160001B78244ABBB101230B601360224B234907
:104170001B78234A012B26D9042B0FD9082B1ED9D3
:10418000102B94BF862387230B6013601D4B0122E5
:104190001A7030BC70470B601360E7E784230B6034
:1041A0001360F3E700F58E200F4908300122132336
:1041B0002A60236002600B60D0E73922F7E785238D
:1041C0000B601360E2E780230B601360DEE700BF43
:1041D0000040074001400740B58FFF1F08B0034073
:1041E0000CB0034008B00B400CB00B404B9BFF1FC2
:1041F00020B0034020B00B40B68FFF1F24B0034017
:1042000024B00B404A9BFF1FF0B44D1E2E460024E5
:1042100000E00134B0FBF2F302FB1300092800F1C7
:1042200030078ABF3730F8B2C0B206F8010F18461F
:10423000002BEED10A1953704CB1107815F8016FAC
:1042400028700133E01A834202F80169F5DB084661
:10425000F0BC70472DE9F04F0D4685B085EAE57951
:104260000146824617461C46A9EBE57902F0CAFED4
:10427000002840F02F812AF000484046C74902F04C
:10428000C1FE002847D14046C44902F09DFE0646C3
:10429000002840D10021504602F08CFE002814BFB7
:1042A0000420032048451DDB002DC0F274815046D8
:1042B000002102F07FFE254648BB49214E224623BD
:1042C00021706270A3700334002E00F07681A01973
:1042D000202304F8013BA042FBD10023037005B06A
:1042E000BDE8F08F002DC0EB0906E0DA002E00F0EB
:1042F0005281A519202304F8013BAC42FBD1504662
:10430000002102F057FE002800F0228100262D2314
:104310002B706C1CD1E702AB01AA3946504602F063
:10432000ADFEBB468046DDF80490002F57D0C9F1A2
:104330000003BB4200F39480404603F0E1FC0646D4
:10434000B145B8BF0136B9F1000F40F09880013691
:10435000DDF808E0BEF1000F53D00136A81B00289D
:1043600004EB060153DC23462D221A700133B9F108
:10437000000F63D137B11A46302002F8020B2E200D
:10438000587013468B4220D25F1C98F800201A7098
:104390008F4208F1010819D0019A4FF02E0E0BE060
:1043A00083F801E002338B4203F101070DD218F8C4
:1043B000010B18708F4209D0013A0192002AEFD008
:1043C0003B468B4203F10107F1D31946002DC0F2A1
:1043D000A980002320460B7005B0BDE8F08FB9F12D
:1043E000000FA4D190F800806D496E4A012301931B
:1043F0009946B8F1340F8CBF884690464FF0FF3392
:1044000097E7A81B002804EB060140F3D88001447D
:10441000224601384FF0200C02F801CBC2F1010313
:1044200003442344002BF7DC20EAE07301332344E8
:10443000BEF1000F98D1B9F1000F9BD0A2DA002F86
:10444000A0D01A46302002F8020B2E275F70C9EB6D
:10445000020302F8010B9342FBD10022019291E783
:10446000C7F100090126B1453046B8BF0136B9F1A0
:10447000000FDFF83081CDF804903FF468AFBFF64D
:1044800067AF002F3FF464AF09EB0703984207F1D1
:1044900002067FF65DAF002F07DD5046424902F06D
:1044A000EBFBBBF1010B8246F7D102AB03AA5946E5
:1044B000504602F0E3FDDDF80490039A7B1CC9EB43
:1044C00002029A4208BF09F10109804608BFCDF8EF
:1044D00004903DE70021504602F06CFD002814BF17
:1044E0000420032048453BDA002DC0EB09063BDBE6
:1044F0004FF07E535046002163F31E0002F05AFD38
:104500002546002841D14E2341222370A3706270BA
:104510000334002E51D0A019202304F8013B84421B
:10452000FBD1DAE6A8194342002B6FEA00007FF7BF
:1045300050AF0A46202502F8015BC2F10103034493
:104540000B44002BF7DC20EAE0730133194440E709
:1045500049214E22462329706A70AB70E81CBCE6E4
:10456000002D16DB0026C3E79EB1A519202304F811
:10457000013BAC42FBD14FF07E535046002163F328
:104580001E0002F017FD88B100262D232B706C1C35
:10459000B9E72546EFE72546B1E600BFFFFF7F7F7D
:1045A000509F00004C9F0000000020414E234122FC
:1045B0002B70AB706A70E81C8FE620468DE62346B0
:1045C000D5E600BF70B584B072B6194B194D1A48C4
:1045D000702241260F2480211A702E701A46047012
:1045E000197013781B06FCD5144B186862B6144B6F
:1045F000144C984298BF00EB800001A998BF40007E
:104600000A22FFF701FE01A92046002311F8012B21
:1046100001333AB10A2B20F8022FF7D11623237069
:1046200004B070BD5B00DBB2237004B070BD00BF8E
:10463000000002400700024006000240080002405D
:104640007F969800A890FF1F704700BF30B5224AA0
:1046500021F00043934287B01BDD204A934205DDE1
:1046600002460B4601F01EFD07B030BD02AA00F065
:10467000A7F900F00303012B1AD0022B0FD01BB3B4
:104680000124DDE90423DDE90201009401F098F939
:10469000EAE70022002300F077FC07B030BDDDE937
:1046A0000423DDE9020100F06FFC01F10041DBE7CA
:1046B000DDE904450093DDE9020122462B4601F0C5
:1046C0007FF901F10041CFE7DDE90423DDE90201D3
:1046D00000F05AFCC8E700BFFB21E93FFFFFEF7F76
:1046E00030B51F4A21F00043934287B01BDD1D4ABD
:1046F000934205DD02460B4601F0D4FC07B030BD05
:1047000002AA00F05DF900F003000128DDE90423AE
:104710001AD002280FD0E0B1DDE9020100F034FC2C
:1047200001F10041EAE7002300930022002301F099
:1047300047F907B030BD0124DDE90201009401F022
:104740003FF901F10041D9E7DDE9020100F01CFC6D
:10475000D4E70124DDE90201009401F031F9CDE74D
:10476000FB21E93FFFFFEF7F00F05EB82DE9F04F3E
:104770008BB004460D4600F045FB284B93F900A092
:10478000BAF1FF3F06460F4612D022462B4620467E
:10479000294602F0D5F8834650B94FF000084FF093
:1047A000000942464B462046294602F0A1F820B9AE
:1047B000304639460BB0BDE8F08F194BCDF820B02C
:1047C0000122CDE90445CDE902458DE80C00BAF19E
:1047D000000F15D042464B464046494601F040FF87
:1047E000BAF1020FCDE906010CD102F057FC2123EA
:1047F0000360089B63B9DDE906010BB0BDE8F08FEB
:10480000CDE90689684601F0BFFB0028F1D1ECE74D
:1048100002F044FC089B0360EDE700BFBF90FF1F60
:10482000BC9F0000FFFFFFFF2DE9F84F54421443E7
:1048300023F00049DFF880E149EAD4747445064664
:104840000D463ED84442044321F0004B4BEAD47459
:1048500074458A4635D803F1404404F58014144366
:1048600044D09C1704F0020444EAD17450EA0B01CE
:104870002FD052EA090133D0F14546D0F3452FD06D
:10488000C9EB0B094FEA2959B9F13C0F34DC002B75
:1048900057DB3046294601F0E3FE01F0E7FA01F06C
:1048A00047F9012C4AD0022C3BD084B132A3D3E982
:1048B000002301F0F7FB32A3D3E9002301F0F2FB60
:1048C00005E01046194632462B4601F0EDFBBDE8E7
:1048D000F88F022C14D0032C0CD12D482D49F6E76B
:1048E000BAF1000F2A480EDB2B49F0E7BDE8F84F7C
:1048F00001F01EB92946EAE723A1D1E90001D0E77A
:1049000023482649E3E72649E1E7CB451FD0022C9F
:10491000F6D0032CE1D0012C4FF0000020D001464E
:10492000D5E715A3D3E9002301F0BCFB02460B46F3
:1049300013A1D1E9000101F0B5FBC8E701F1004185
:10494000C5E719F13C0FA4DA00200021A9E7022CE9
:104950000ED0032C09D0012C0D4804D01149B6E724
:104960004FF00041B3E71049B1E710481049AEE7F6
:104970000E481049ABE700BF075C143326A6A13CE4
:10498000182D4454FB210940182D4454FB21F93FB4
:10499000182D4454FB2109C0FB21F93FFB2109409C
:1049A000FB21F9BFFB21E93FFB21E9BFD221337F86
:1049B0007CD902C07CD902400000F07FFFFFFFFFDE
:1049C0002DE9F04F944E21F00047B74291B040F3EB
:1049D00082809246914A97420C4626DC002984A3A5
:1049E000D3E9002340F3A88101F05CFB8C4B9F428C
:1049F00004460D4600F084807FA3D3E9002301F034
:104A000051FB02460B46CAE900232046294601F025
:104A100049FB79A3D3E9002301F044FB0125CAE94E
:104A20000201284611B0BDE8F08F7E4A974240F35C
:104A300084807D4A974259DC3D15A5F21645A7EBC7
:104A4000055319461F46064601F090FF01F078FC19
:104A50008046894602460B4630463946CDE90A89EA
:104A600001F020FB0022714B01F0D0FC894680460A
:104A700001F07CFF01F064FC02460B4606460F463F
:104A800040464946CDE90C6701F00CFB0022674B1C
:104A900001F0BCFC00220023CDE90E0101F01EFF55
:104AA000002800F07581002330463946002201F0CD
:104AB00015FF002814BF012302235D4A0192022141
:104AC00000912A4651460AA800F082FB002CC0F251
:104AD0005181054606E0C2E9000100250024C2E933
:104AE00002450025284611B0BDE8F08F02460B466E
:104AF00001F0D8FA0025CAE90201CAE90001F1E78C
:104B00003FA3D3E9002301F0CDFA3FA3D3E900236B
:104B10000D46044601F0C6FA02460B46CAE90023D8
:104B20002946204601F0BEFA37A3D3E9002301F05D
:104B3000B9FA0125CAE90201D4E701F097F934A3D3
:104B4000D3E900238046894601F060FC0022394BFE
:104B500001F0AAFA01F00AFF054601F0F1FB24A3D7
:104B6000D3E90023CDE9040101F050FC02460B46D5
:104B70004046494601F096FA1FA3D3E90023804638
:104B80008946DDE9040101F041FC1F2DCDE9020158
:104B900054DC294B6A1E53F822309F424ED0024605
:104BA0000B464046494601F07DFA02460B46CAE9EB
:104BB000002383460E465A4633464046494601F096
:104BC00071FADDE9022301F06DFA002C02460B4672
:104BD000CAE9022386DA5B4606F1004601F100418C
:104BE0008AE84800CAF80C10CAF808006D4279E754
:104BF00000004054FB21F93F3163621A61B4D03D9B
:104C00000000601A61B4D03D7370032E8A19A33B73
:104C100083C8C96D305FE43FFB21E93F7BD9024087
:104C2000FB21F93FFB213941FFFFEF7F000070417D
:104C300044A000000000E03FC49F0000DDE9022323
:104C40004046494601F02EFA3A15C1F30A53D31AE9
:104C5000102B83460E460992CAE90001ABDD5EA324
:104C6000D3E90023DDE9040101F0D0FB06460F463D
:104C700002460B464046494601F014FACDE90601CA
:104C800002460B464046494601F00CFA32463B4686
:104C900001F008FA52A3D3E9002306460F46DDE9E6
:104CA000040101F0B3FB32463B4601F0FBF9DDE9BC
:104CB0000689CDE9020102460B464046494601F00D
:104CC000F1F90B46C1F30A570E460999CF1B02466C
:104CD000312F8346CAE900237ADD43A3D3E90023B9
:104CE000DDE9040101F092FB06460F4602460B4641
:104CF00040464946CDE9068901F0D4F902460B4603
:104D000080468946DDE9060101F0CCF932463B4692
:104D100001F0C8F936A3D3E9002306460F46DDE9C2
:104D2000040101F073FB32463B4601F0BBF9024639
:104D30000B46CDE9022334E701F0B6F9304B9F4230
:104D400004460D4626D02CA3D3E9002301F0ACF98C
:104D500002460B46CAE900232946204601F0A2F983
:104D600025A3D3E9002301F09FF94FF0FF35CAE9ED
:104D70000201B7E6DAF80420DAF80C3002F100425A
:104D800003F100434542CAF80420CAF80C30A9E6F2
:104D9000032392E610A3D3E9002301F085F910A3C1
:104DA000D3E900230D46044601F07EF902460B4686
:104DB000CAE900232946204601F074F908A3D3E983
:104DC000002301F071F94FF0FF35CAE9020189E6CD
:104DD000DDE90689EFE600BF0000601A61B4D03D4E
:104DE0007370032E8A19A33B0000002E8A19A33B7F
:104DF000C14920259A837B393163621A61B4D03D61
:104E0000FB21F93F2DE9F8435D4EB6460E4076454D
:104E10000C46054600F0958000290B46024673DDDE
:104E20000F157ED0A7F2FF37C3F31303F80743F43F
:104E3000801364D403EBD27100260B447F10520020
:104E4000B64616204FF400110EEB01049C424FEAC7
:104E5000D2754FEA420203DC1B1B04EB010E0E4429
:104E6000013805EB43034FEA5101EDD1844620247C
:104E70004FF0004109E020D003EBD275013C4FEA2E
:104E800051012B444FEA420220D09E4501EB0C0514
:104E9000F1DA002D05EB010C09DBF0469542CEEB73
:104EA000030300D9013B521B0844C646E4E7BCF1AA
:104EB000000FF2DB0EF10108F0E7954217D8002D44
:104EC00005EB010C47DB98460023ECE7134310D1B8
:104ED0004008731003F17F5303F50013F20703EB4F
:104EE000075948BF40F000404946BDE8F883734683
:104EF000C2E7411C33D000F001031844E8E75B002F
:104F000003EBD273520095E721F000460643ECD044
:104F100069BB0F46D30A153F5205002BFAD0DD02BC
:104F200020D4002100E001465B00DC0201F1010019
:104F3000F9D5C0F1200422FA04F423437F1A8240F9
:104F400070E702460B4601F061FA2A46234601F05B
:104F5000ABF8BDE8F883BCF1000FABDAB3E701367C
:104F60002046B6E720244FF0FF310020E3E7024659
:104F70000B4601F097F802460B4601F071FBB4E7CF
:104F80000000F07FFFFFFFFF2DE9F04F21F000460A
:104F9000B6F1795F85B00C4692469B4605466BDAC2
:104FA00001F0E4FC002800F0E8802A462346284669
:104FB000214601F02BFA74A3D3E9002380468946E9
:104FC00001F024FA72A3D3E9002301F06DF8424600
:104FD0004B4601F01BFA70A3D3E9002301F062F8FD
:104FE00042464B4601F012FA6DA3D3E9002301F0CB
:104FF0005BF842464B4601F009FA6BA3D3E9002364
:1050000001F050F842464B4601F000FA68A3D3E99C
:10501000002301F049F842464B4601F0F7F9CDE98B
:1050200000010022644B4046494601F0EFF9DDE9FA
:10503000002306460F464046494601F0E7F952462E
:10504000804689465B462846214601F0DFF9024644
:105050000B464046494601F025F802460B463046CD
:10506000394601F01FF802460B460020534901F073
:1050700019F805B0BDE8F08F02460B4601F0C6F9FD
:1050800041A3D3E900238046894601F0BFF940A33C
:10509000D3E9002301F008F842464B4601F0B6F987
:1050A0003DA3D3E9002300F0FDFF42464B4601F04B
:1050B000ADF93BA3D3E9002300F0F6FF42464B468F
:1050C00001F0A4F938A3D3E9002300F0EBFF424636
:1050D0004B4601F09BF936A3D3E9002300F0E4FF2F
:1050E0004B46424601F092F9354B9E42CDE9000114
:1050F00097DD344B9E424FF0000238DCA6F50013DA
:1051000000202E4916461F4600F0CCFFCDE90201D3
:105110000022294B4046494601F078F932463B4689
:1051200000F0C0FFDDE9002306460F464046494631
:1051300001F06CF95246804689465B462846214676
:1051400001F064F902460B464046494600F0AAFFCA
:1051500002460B463046394600F0A4FF02460B4695
:10516000DDE9020100F09EFF05B0BDE8F08F164BAF
:10517000164FCDE902230026CAE71049002005B0EA
:10518000BDE8F08FAFF30080D43888BEE9FAA8BD3F
:10519000C4B1B4BD9EEE213EAD529C804F7E923E86
:1051A0009015CB19A001FA3E7751C1166CC1563F3C
:1051B0004C5555555555A53F0000E03F0000F03FC8
:1051C0003233D33F0000E93F0000E73F0000D23F09
:1051D0002DE9F04FADF51D7D784CA69E784D54F825
:1051E000264009942646D41E85FB0475E417C4EBBB
:1051F000A50424EAE4741D460B93631CA3EB83030C
:10520000013D02EBC30308932B460D940295651BE9
:10521000F41804900A9116D42C44013422AEA79FAE
:1052200008E057F8250001F08BF80135A542E6E9C2
:10523000020108D0002DF4DA013500200021A5423A
:10524000E6E90201F6D1099B002B2FDB099BDDF873
:10525000089074AA02EBC30B0DF5E47A029B002BB5
:10526000C0F295810B9BC3EB090824AB03EBC80884
:10527000049BA3F1080524AB03EBC9040026002717
:10528000F5E9022374E8020101F0C0F802460B467A
:105290003046394600F008FF444506460F46EFD138
:1052A000EAE90267DA4509F10109D7D1099D05F15B
:1052B0008043023B9B001A1D10A90A440B440F9225
:1052C0000E939CAB03EBC503002D53E928672BDD40
:1052D0009CAB03EBC504A83C0DF13C0A0DF5E47B47
:1052E0000022384B3046394601F090F801F03EFB81
:1052F00001F026F80022344B8046894601F086F8FA
:1053000002460B463046394600F0CCFE01F02EFB3B
:1053100074E802234AF8040F4946404600F0C4FEF0
:105320005C4506460F46DBD1089C3046394622468E
:1053300000F02EFE00224FF07F5306460F4601F08C
:1053400065F800F099FD0022204B01F05FF802465D
:105350000B463046394600F0A5FE0F46064601F0E2
:1053600005FB814600F0ECFF02460B46304639460D
:1053700000F098FE002C06460F4640F3EF80691EB1
:1053800010AAC4F1180352F8212042FA03F000FADF
:1053900003F3D31A10AAC4F1170842F8213081444C
:1053A00043FA08F8B8F1000F3DDD002D09F10109BD
:1053B00040F3D482002214460FA911E04CA1000052
:1053C000ABAAAA2A0000703E0000704100002040F5
:1053D000C3F180700BB108600124013295420DDDEC
:1053E00051F8043F002CF3D0C3F1FF13013203F551
:1053F0007F4395420B604FF00104F1DC089B002BCA
:105400000DDD012B00F0B280022B08D16A1E10AB1B
:1054100010A953F82230C3F3150341F82230B8F134
:10542000020F00F08280002200233046394601F04E
:1054300055FA002800F05C82099B05F1FF3B5B45B3
:1054400010DC05F1804310AA013B0F9802EB8303A7
:10545000002253F80419834242EA0102F9D1002ADA
:1054600040F0B280099B10AA013B52F82330002B78
:1054700040F072820E9A012352F804190133002978
:10548000FAD0E9186A1C8A420C9149DC0D990B98F4
:105490005118DB0001F180410593A79B05440139B8
:1054A000E80003EB810A24ABD20003EB000B74ABE2
:1054B00013440193A2F10803069007934FF00009EB
:1054C0005AF8040F00F03CFF029B002BEBE80201AE
:1054D00028DB069B03EB0904079B09EB030824ABBD
:1054E0001C449844049B0026A3F108050027F5E915
:1054F000022374E8020100F089FF02460B463046A1
:10550000394600F0D1FD444506460F46EFD1019BD8
:10551000E3E802670193059B09F108099945CFD19A
:105520000C9DCEE600260027F1E732463B460020E0
:10553000AF4900F0B7FD06460F46002C3FF473AFAD
:10554000089AAB49002000F023FD02460B46304686
:10555000394600F0A7FD06460F4664E710D16B1EE2
:1055600010AA52F823304FEAE3581BE76A1E10AB2B
:1055700010A953F82230C3F3160341F822304EE746
:1055800000229C4B01F0C8F958B980464BE7002631
:105590000027EAE90267DA4509F101097FF45EAE06
:1055A00084E6002D09F10109C8BF4FF002083FF75A
:1055B00001AF32463B4600208D4900F073FD4FF0AD
:1055C000020806460F462EE710AB089A53F82B3018
:1055D000CDF81490183ACDF8048008926BB90BF10D
:1055E0008043013B10A901EB830353F804190BF12D
:1055F000FF3B183A0029F8D00892089A7C4900200D
:1056000000F0C6FCBBF1000F04460D46C0F2B681A7
:105610004FEACB030DF5E87810AA02EB8B0608EBF6
:1056200003090493043609F1080756F8040D00F045
:1056300087FE22462B4600F0E9FE002267E90201C0
:105640006D4B2046294600F0E1FEB84504460D4664
:10565000EBD10DF5987A4B46CDF808A0DDF824A0E3
:10566000CDF818B04FF000099B46BAF1000FC0F218
:105670002881DFF888815D465BA3D3E900230026FB
:105680000027002403E0A14510DBF8E90223F5E838
:10569000020100F0BBFE02460B463046394600F0E0
:1056A00003FD0134A24506460F46ECDA029B03EBEC
:1056B000C903ABF1080BC3E9006772AB5B4509F1A5
:1056C0000109D2D1A69BDDF818B0DDF808A0032BA4
:1056D00000F28380DFE813F0D3009400940004000C
:1056E000BBF1000F40F35481049BCDF808B00AEBE6
:1056F0000308D8E90067D34658E9029A32463B4688
:105700004846514600F0D0FC04460D4602460B4682
:105710004846514600F0C6FC32463B4600F0C4FC09
:10572000C8E9000168E90245C34526462F46E3D192
:10573000DA46DDF808B0BBF1010F40F32981049B84
:105740005344D3E90067984699460DF59C7B59E987
:1057500002343046CDE902341A463946234600F079
:10576000A3FC04460D4602460B46DDE9020100F0AB
:1057700099FC32463B4600F097FCC9E9000169E913
:105780000245CB4526462F46E1D1002308F1080803
:105790001D4650AC1846294678E9022300F084FCE7
:1057A000444503460D46F5D1019A002A00F0D88001
:1057B0000A9FDAF80440DAF80C20DAF80010DAF878
:1057C00008003B6105F1004504F1004402F100438B
:1057D0007D617C60FB603960B860059B03F0070069
:1057E0000DF51D7DBDE8F08F00000040FB21F93F65
:1057F0000000F03F0000E03F0000703E60A10000AC
:10580000049C00260834544433463046194674E953
:10581000022300F049FC544506460B46F5D1019A97
:1058200030461946002A4FD00A9803F10044324608
:1058300044600660DAE9000100F034FCBBF1000FBF
:1058400002460B460DDD012410461946FAE90223F3
:1058500000F02AFC0134A34502460B46F4DA019914
:1058600009B103F1004319460A9B1046C3E902013E
:10587000059B03F007000DF51D7DBDE8F08F049B2F
:10588000002208339A441346104619467AE9022347
:1058900000F00AFC0BF1FF3BBBF1FF3F02460B4659
:1058A000F2D1019909B103F1004319460A9B104650
:1058B000C3E90001059B03F007000DF51D7DBDE860
:1058C000F08F00260027F1E60A9B3246C3E900016B
:1058D0000B46DAE9000100F0E5FBBBF1000F0246E0
:1058E0000B46B0DC19460A9B1046C3E90201BFE72C
:1058F000089BCDF814905A4230463946CDF80480C2
:1059000000F046FB00222C4B06460F4601F004F83F
:10591000002840D00022294B3046394600F076FD61
:1059200001F024F8044600F00BFD0022224B00F0A9
:105930006DFD0B4602463946304600F0B3FB01F0E0
:1059400015F8089B183305F1010B089310AB43F8C9
:10595000250043F82B4050E6012392E500244DE555
:1059600018462946DAE90023DAE902450A9FC7E921
:105970000401C7E90023C7E902452EE7A69B032BD4
:105980003FF62BAFDFE803F0151010020DF5987A03
:1059900000231D4608E73046394600F0E7FF10AB0C
:1059A000AB4643F8250028E6002633460DF5987AE5
:1059B00035E70022134674E7000070410000703E96
:1059C0002DE9F04F21F00046B6F1795F85B00C4625
:1059D00090469946054604DA00F0C8FF002800F01A
:1059E00085802A4623462846214600F00FFD0646BC
:1059F0000F4602460B462846214600F007FD3EA30F
:105A0000D3E9002382468B463046394600F0FEFC3F
:105A10003BA3D3E9002300F045FB32463B4600F0B0
:105A2000F5FC39A3D3E9002300F03EFB32463B46A8
:105A300000F0ECFC36A3D3E9002300F033FB324640
:105A40003B4600F0E3FC34A3D3E9002300F02CFB39
:105A50000E9BCDE900019BB30022334B40464946E3
:105A600000F0D4FCDDE90023CDE90201504659469F
:105A700000F0CCFC02460B46DDE9020100F012FB0F
:105A800032463B4600F0C2FC42464B4600F00AFB61
:105A900023A3D3E9002306460F465046594600F09B
:105AA000B5FC02460B463046394600F0FDFA024688
:105AB0000B462846214600F0F5FA05B0BDE8F08F08
:105AC00002460B463046394600F0A0FC14A3D3E949
:105AD000002300F0E7FA52465B4600F097FC2A46A6
