:1000000000800020BD010000F5420000AD4200006C
:10001000AD420000AD420000AD420000AD42000024
:10002000AD420000AD420000AD420000F5420000CC
:10003000F5420000AD420000C95A0000CD5A000050
:10004000F5420000F5420000F5420000F5420000D4
:10005000F5420000F5420000F5420000F5420000C4
:10006000F5420000F5420000F5420000F5420000B4
:10007000F5420000F5420000F5420000F5420000A4
:10008000F5420000F5420000F5420000F542000094
:10009000F5420000F5420000F5420000F542000084
:1000A000ED400000F9400000F5420000F54200007C
:1000B000F5420000F5420000F5420000F542000064
:1000C000F5420000F5420000F5420000F542000054
:1000D000F5420000F5420000F5420000F542000044
:1000E000F5420000F5420000F5420000F542000034
:1000F000F5420000F5420000F5420000F542000024
:10010000F5420000F5420000F5420000F542000013
:10011000F5420000F5420000F5420000F542000003
:10012000F5420000F5420000F5420000F5420000F3
:10013000F5420000F5420000F5420000F5420000E3
:10014000F5420000F5420000F5420000F5420000D3
:10015000F5420000F5420000F5420000F5420000C3
:10016000F5420000A9480000F5420000F5420000F9
:10017000F5420000F5420000F5420000F5420000A3
:10018000F5420000F5420000F5420000F542000093
:10019000F5420000F5420000F5420000F542000083
:1001A000F5420000F5420000F5420000F542000073
:1001B000F5420000F5420000F5420000564B4CF2BB
:1001C000205210B51A804DF628121A8000BF00BFC9
:1001D00004F094F8514B4FF010621A60504A9A6044
:1001E000504ADA60504A136813F4807304D14F49BF
:1001F0000B604FF4A85313604D4B1A78110703D5C9
:100200001A7842F008021A704A4B4B492A221A7097
:100210004A4A4B4B8B4204D252F8040F43F8040B6A
:10022000F8E7484B484900228B4202D243F8042B9E
:10023000FAE74649464A002352F8230041F82300D2
:1002400001336F2BF8D1434B434A802103F8011B44
:100250009342FBD1414B3D4A1A60414B8A221A70AE
:10026000A3F5805324225A70A0221A709A7992071B
:10027000FCD59A79D406FCD43A4A937903F00C035E
:10028000082B384BF9D103221A7140225A719A79FE
:100290009006FCD5334A9179324B4906FBD5324A58
:1002A000324911600221516020221A709A7902F0BD
:1002B0000C020C2AFAD12E4B2E4A1A602E4B2F4AD2
:1002C0001A6000225A60072243F8042C2C4AC3F813
:1002D0000C2D62B604F0BEF9144B1B68DA0705D585
:1002E000284804F049F9284B284A1A60284B1B7803
:1002F0005B0609D5244C254B22689A4204D121483B
:1003000004F03AF90023236003F0FEFF06F074FDC9
:1003100005F01AFDFEE700BF0E20054030800440C6
:10032000823F04000100002B10D0034014D0034092
:1003300002D0074000E00740249CFF1F70830000AC
:10034000308CFF1F249CFF1F38A1FF1F0082FF1F5E
:100350000000000000E400E05FE400E008ED00E0E1
:100360000050064000400640448004400000030165
:1003700004800440C010050014E000E0FF76010096
:1003800000002020869623631CE00340A5C3945AF6
:1003900000F00740FFFFFFFFFFFFFFFFFFFFFFFF32
:1003A000FFFFFFFFFFFFFFFFFFFFFFFFFFFFFFFF5D
:1003B000FFFFFFFFFFFFFFFFFFFFFFFFFFFFFFFF4D
:1003C000FFFFFFFFFFFFFFFFFFFFFFFFFFFFFFFF3D
:1003D000FFFFFFFFFFFFFFFFFFFFFFFFFFFFFFFF2D
:1003E000FFFFFFFFFFFFFFFFFFFFFFFFFFFFFFFF1D
:1003F000FFFFFFFFFFFFFFFFFFFFFFFFFFFFFFFF0D
:10040000FFFFFFFFFFFFFFFFFFFFFFFFDEF9FFFF23
:1004100010B5054C237833B9044B13B10448AFF33E
:1004200000800123237010BD249CFF1F00000000EA
:1004300074830000084B10B51BB108490848AFF39E
:1004400000800848036803B910BD074B002BFBD0A0
:10045000BDE81040184700BF00000000289CFF1FA7
:1004600074830000249CFF1F00000000F0B50121F0
:1004700083B00D2004F09AF8254B1B78D3B90022E5
:100480000092244B2448292100F0F0F980B9012181
:100490000D2004F085F84FF4FA7004F08DF8002177
:1004A0000D2004F07DF84FF4FA7004F085F8EEE7C3
:1004B00003B0F0BD194C1A4D21681A4F1A4E40F284
:1004C000EE222B783BB13B78D80704D523683068FF
:1004D0001B1A0E2B0BD8236828785B1AA0B1B3F532
:1004E000FA6FEED92B7801202BB904F065F82B7840
:1004F0000120002BF9D03B78DB07F6D52368326862
:100500009B1A0E2BF1D9BAE79342DAD9EFE700BF75
:10051000149EFF1FD48FFF1F449CFF1F249EFF1FAC
:10052000189FFF1F949FFF1F30A1FF1FF0B50121EF
:1005300089B00D2004F034F8002201A9514800F0E0
:100540001FFB9DF81C30042B7FD04F4D4F4B2F6865
:100550006A681E78BDF80C004D494E4CC7F1640323
:1005600002FB03F2642303FB07F303FB0023323394
:1005700081FB0302DB17C3EB621202F1320381FB42
:100580000301DB17C3EB61116A602160002E6AD1A1
:10059000414D2B688B4258D0404E32688A4254DA23
:1005A0003F4F3B68981A66D0891A00EBD073C1EBB5
:1005B000C11101EB630303FB00F2002A93FBF0F38C
:1005C000B8BF03F1FF331B06364803F0FE43184360
:1005D00004F068FE31683A682368521A4FD05B1AFB
:1005E000C3EBC31302EBD27103EB610303FB02F114
:1005F000002993FBF2F3B8BF03F1FF331B042A4831
:1006000003F4FE03184304F04DFE0A2003F0D4FF68
:1006100031683A682368521A2FD05B1AC3EBC313B0
:1006200002EBD27103EB610303FB02F1002993FBA0
:10063000F2F3B8BF03F1FF331B041C4803F4FE03BD
:10064000184304F02FFE23682B60002004F092FE74
:100650000028FAD101460D2003F0A2FF052003F087
:10066000ABFF09B0F0BD124805F08CFA104805F058
:1006700035FA21688CE70F48AAE70F48E1E70F48F1
:10068000C1E700BF449CFF1F189EFF1F149EFF1F61
:100690001F85EB51409CFF1F0C8DFF1F108DFF1F0E
:1006A000148DFF1F0BB010000990006408800064D7
:1006B0003492FF1F0BB0103F08803F6409903F64E5
:1006C00070B5084C084B002520465A2629464FF4A1
:1006D000E8721E605D6006F077FE231DC4F8683185
:1006E00070BD00BF449CFF1F189EFF1F38B501F06E
:1006F0007F0504466900D0F8680100F097FA207081
:100700000A2003F059FF94F900302BB9D4F868316E
:1007100083F85C51012038BD002038BD38B5012276
:1007200004460D46D0F86801002100F067FB2070F8
:1007300008B1002038BD01221146D4F8680100F04C
:100740005DFB20700028F4D1032D33D8DFE805F0DD
:1007500076025A361A21424805F090F8414805F0D1
:10076000BDF941F699120121D4F8680100F09CFB13
:100770002070F8B901464FF47012D4F8680100F007
:1007800093FB2070B0B948F2E801D4F8680100F09A
:1007900061FA207070B901461222D4F8680100F0A5
:1007A0005BFA207030B90E220121D4F8680100F004
:1007B00053FA2070B0FA80F0400938BD4FF48042FF
:1007C0000121D4F8680100F06FFB20700028F1D1FE
:1007D00001464FF49012D4F8680100F065FB2070D8
:1007E0000028E7D12049D4F8680100F033FA2070DE
:1007F0000028DFD102460321D4F8680100F0FEFA98
:100800002070D7E74FF480420121D4F8680100F04E
:100810004BFB20700028CDD101464FF40012D4F8D4
:10082000680100F041FB20700028C3D147F230512D
:10083000D4F8680100F00EFA2070BBE70122032112
:10084000D4F8680100F0DAFA20700028B2D140F63E
:10085000D4020321D4F8680100F026FB2070A9E738
:10086000B47900003492FF1F400D03002DE9F043DE
:100870000446D0F86801292580F85C51D4F8680155
:10088000012580F85D51D4F8685183B04FF4C876E3
:10089000C5F860311846A5F85E61261D0D469046E4
:1008A0009DF8287003F0F4F8304600F0D3FB294699
:1008B00020702046FFF71AFF20B90025284603B014
:1008C000BDE8F08304F5B67905464946304600F0A8
:1008D000A9F90646207068B9B8F1000F1AD1D4F80A
:1008E000CC31834A23F07F4323F0FF0393426ED041
:1008F000FB232370B8F1000FDFD00F217D4804F0F7
:10090000BDFF94F900107C4805F03CF97A4805F0E9
:10091000E5F8D2E70D21794804F0B0FF764805F0FC
:10092000DDF80D21764804F0A9FF484606F028FEC0
:100930000146484604F0A2FF04F5C6790821714833
:1009400004F09CFF484606F01BFE0146484604F0B2
:1009500095FF04F5D67906216B4804F08FFF4846D1
:1009600006F00EFE0146484604F088FF624805F096
:10097000B5F80B21654804F081FF33460A2294F84C
:10098000CD115D4805F0BEF80921614804F076FFFD
:1009900033460A2294F8CE11574805F0B3F856486A
:1009A00005F09CF8D4F8CC31514A23F07F4323F072
:1009B000FF03934240F0828094F90030002B9CD1D9
:1009C0001321544804F05AFF4B4805F087F8D4F837
:1009D000680100F0D9FE0646207000288AD1B8F1DF
:1009E000000F37D10DF1010201A9D4F8680100F020
:1009F000A9FF207000287FF460AF0DF103020DF114
:100A00000201D4F8680100F0FFFB207000287FF499
:100A100071AFB8F1000F15D10021D4F8680100F0D2
:100A200009F9207000287FF465AF39462046FFF7AA
:100A300075FE94F90030002B7FF45CAF284603B0BC
:100A4000BDE8F0831621344804F018FF2A4805F069
:100A500045F8E1E72121314804F010FF264805F070
:100A60003DF80DF1010201A9D4F8680100F06AFF18
:100A70000F2120702A4804F001FF33460A22019911
:100A80001D4805F03FF81421264804F0F7FE3346D0
:100A90000A229DF80110184805F034F8164805F0B0
:100AA0001DF894F90030002B7FF424AF1E211E485E
:100AB00004F0E4FE104805F011F89EE721211B48E0
:100AC00004F0DCFE334694F8CD110B480A2205F001
:100AD00019F82C2004F056FF33460A2294F8CE1160
:100AE000054805F00FF8044804F0F8FF00E700BFE0
:100AF00000010100D87A00003492FF1FD079000075
:100B0000E0790000F0790000FC790000047A000030
:100B1000107A0000407A0000C07A0000547A000089
:100B2000787A0000887A0000A07A00001C7A000021
:100B300030B50D7E0F4C89B06946284600F074F838
:100B40000E210D4804F09AFE00230A222946204671
:100B500004F0D8FF0321094804F090FE684606F02F
:100B60000FFD0146684604F089FE204604F0B6FFFA
:100B700009B030BD3492FF1F087C0000187C0000D3
:100B800070B5044684B03AB9D0F8680100F038FD79
:100B90000646304604B070BD0D461E48292104F0BB
:100BA0006DFE1D4804F09AFF2946D4F8680100F054
:100BB00027FD294606462046FFF7BAFF03AAD4F8C8
:100BC0006801032100F0D8F91821144804F056FEFA
:100BD000039805F063FF4FF05E5105F0B7FF05F095
:100BE00083FB022402460B4600940B4804F0D4FF1A
:100BF000094804F073FF1321094804F03FFE2989D6
:100C0000054804F0BFFF044804F068FF304604B014
:100C100070BD00BF1C7C00003492FF1F487C0000A8
:100C2000647C000002F0E6BC02F036BD4A088A216E
:100C300002F066BE152907D80122054B8A401340F1
:100C400013B10174002070476FF00700704700BFB8
:100C50000B00300002F030B801F004BF02F00EB813
:100C6000F0B583B002AB002403F8014D0E461746E1
:100C700001211A46054602F089FE0446D8B9012F23
:100C80009DF807301AD0042E3AD8DFE806F0272462
:100C9000211E030003F07F06B3420CD0324601212F
:100CA000284602F02DFE044628B985F830616969AE
:100CB000284602F001F8204603B0F0BD042E1FD8EC
:100CC000DFE806F01B1815120F0003F0BF06E3E77C
:100CD00003F0FB06E0E703F0D706DDE703F0EF06DD
:100CE000DAE743F08006D7E743F04006D4E743F065
:100CF0000406D1E743F02806CEE743F01006CBE721
:100D00006FF00304D7E700BF70B582B002AA0023DA
:100D10000C4602F8013D012102F038FE78B99DF839
:100D20000730C3F30016C3F3C005C3F38001C3F358
:100D30008012DB092670A5706170E270237102B029
:100D400070BD00BF30B583B0144601AA01F00CFDA0
:100D500090B9019B094DA5FB032189094FF47A72D3
:100D600002FB1133C3EB034303F5FA73A5FB032323
:100D7000090401EB9313236003B030BDD34D62101F
:100D800030B583B00D460DF10202F821044602F0A1
:100D90000BFE08B103B030BD01AA0421204602F0C9
:100DA00011FE0028F6D1BDF802201AB92B68A36104
:100DB00003B030BD019BB3FBF2F32B60F7E700BF3C
:100DC000037F0B700020704730B583B00D460DF1E6
:100DD00006022021044602F0E7FD38B9BDF80630CE
:100DE00033B1DB0001222B602362227703B030BDD8
:100DF000236A2B60207703B030BD00BF052942D89D
:100E0000F8B58AB100EB81034FF0010ED3F834C07E
:100E100000234E1E154607460C46042E29D8DFE84F
:100E200006F021180F072B00964601239446F0E7A1
:100E30005B00FE226021384602F07EFD10B1F8BD55
:100E400087F82BE04DB13919012381F828300020B3
:100E5000F8BD87F82AE0002DF5D13919284681F828
:100E60002850F8BDCCF34F224421384602F056FDFD
:100E7000E4E787F828E0E5E71B01EF226021384628
:100E800002F05AFDDAE76FF003007047052905D834
:100E90000144002091F8283013707047002313702C
:100EA0006FF00300704700BF431893F8283053B128
:100EB00070B516460D460446052922D8DFE801F034
:100EC0000F191517080800EB810118464A6370478F
:100ED000C2F34F22642102F021FD08B170BD6263AC
:100EE00004EB85040020666370BDE263F8E72264CA
:100EF000F6E7C2F34F22442102F010FD0028EDD1A5
:100F0000EEE76FF0030070BD30B5044683B01546C0
:100F100005292DD8DFE801F01012222403030DF17A
:100F20000602642102F040FD20B9BDF806305B02E4
:100F30002B60002003B030BD436BF9E70DF10602D2
:100F4000442102F031FD0028F4D1BDF806305A02E8
:100F500043B9A36B2B6084F82900EBE7C36BE7E789
:100F6000036CE5E701232A60A26384F82930E1E7F6
:100F70006FF00300DEE700BF052915D80139042909
:100F80000DD8DFE801F0030703030300C36D13600E
:100F900000207047D0F84831136000207047D0F827
:100FA00040311360002070476FF00300704700BFAE
:100FB00030B583B00D460DF107020121044602F061
:100FC000E5FC58B99DF8073084F830311B064BBF5B
:100FD000012303462B70287084F84C3003B030BDD9
:100FE0002DE9F843037C0F4601F8083B0646FFF75E
:100FF000C7FE68BB387307F110013046FFF7E4FE07
:1010000030BB07F11401304600F09EFC00BB0446E3
:1010100007F1240506F1270907F117082A46A1B2AE
:101020003046FFF771FF0134043588B919F8013FE4
:1010300008F8013F062CF1D107F13C013046FFF7DB
:10104000B7FF28B9391D3046BDE8F84301F096BE18
:10105000BDE8F883F0B5012393B0FE22892105464F
:1010600002F06AFC002800F0C5800DF10702C021E3
:10107000284602F08BFC4FF47A7400234FF4C870BA
:101080005F49604AA5F85241A5F85401C5F85811C6
:1010900085F8F0302B62C5F8D42002A92846FFF766
:1010A0009FFF044698B98DF808008DF8090002AE3C
:1010B0000FCE05F1100EAEE80F000FCEAEE80F0018
:1010C0000FCEAEE80F0096E80F008EE80F004FF449
:1010D0002063012664204FF461714FF4FA72A5F881
:1010E0003C31A5F83401A5F83611A5F83821802146
:1010F000324685F85061284602F002FC3246074627
:10110000FF21284602F0FCFB00223843114604432D
:10111000284602F0F5FB64B20DF10602044391216A
:10112000284602F033FC64B29DF8063085F83A3167
:10113000044332460021284602F0E2FB64B200225A
:101140000443FF21284602F0DBFB64B20443002283
:101150008021284602F0D4FB64B2204343B2002B26
:1011600043D1194632462846FFF748FE3446034627
:101170000122A1B228461444BBBBFFF73FFE062C58
:101180000346F5D188BB85F82A0085F82B00024676
:1011900004212846FFF732FE034630BB02460521F4
:1011A0002846FFF72BFE0346F8B94FF490136B6304
:1011B0004FF4804201212846FFF776FE0346A0B98E
:1011C0004FF40C13EB6395F82B308BB9FF222B6493
:1011D00085F830210121284602F092FB01220346C6
:1011E00085F8322108B985F81501184613B0F0BD0D
:1011F0000023EBE702468821284602F081FB34E712
:10120000856B0100A4700900012300F0F1BD00BF4F
:1012100010B590F8DA3082B0042B0C460DF10702BD
:101220000AD0142102F0B2FB20B99DF80730DB0789
:1012300014D4207002B010BD132102F0A7FB9DF85A
:10124000073013F0180F03F0070318BF6FF0050005
:10125000042B03D00023237002B010BD01232370A0
:1012600002B010BD2DE9F0438FB00C460C2304AA48
:101270001421054602F02EFB8646002840F08A80A5
:101280009DF816E09DF819109DF817209DF818702C
:101290009DF812609DF81330A07502EB0E2201EB51
:1012A0000727B5F852E19DF81B10206003EB0623D9
:1012B00092B2BFB29DF81A6060607F0252029BB288
:1012C00001EB0626E2602761A382BEF57A7F95F8DE
:1012D00031719DF81010B6B221D006FB0EF6DFF882
:1012E000CCC095F81C80D5F820E006F5FA768CFB8A
:1012F000069CF617C6EBAC16B8F1000F0ED01FFA1D
:101300008EFE03FB0EFE4FEA2E2E724546D0B6B27D
:1013100002FB06F6CEEB020EB6FBFEF6B6B2002FCF
:101320003FD0B001C0B2B608E0750DF10F002681C4
:1013300001900094284601F0F9FF864650BB9DF8C5
:101340000FC084F818C005F150060FCE07AF0FC7C5
:101350002389ADF8243096E807006389ADF826307C
:10136000E36894F81790B4F814800A9323696468CA
:10137000089487E8070007AC8DF834C08DF83390E7
:101380000B93ADF830800FCC50350FC597E80700B0
:1013900086E8070070460FB0BDE8F0831FB948F635
:1013A000E0260020C0E740F6AE06BDE7D34D621050
:1013B00070B582B014460E210DF106021D46064698
:1013C00002F0F2FABDF80620094B520413402360E4
:1013D00058B90DF1060230460C2102F0E5FABDF8CD
:1013E0000620034B520413402B6002B070BD00BFB7
:1013F0000000FE1F70B582B001AB0D466A460121A8
:101400000646FFF7D5FF009BB3F57F0F044603D8D0
:10141000019BB3F57F0F1DD9E4B9F5B90422FF2173
:10142000304602F06DFA224605467021304602F041
:1014300067FA22460543FF21304602F061FA6DB299
:101440002246802145EA0004304602F059FA64B28F
:10145000204344B2204602B070BD3046034901F03B
:10146000F9FC0446204602B070BD00BF0C8EFF1F81
:1014700070B50122044682B08021057C02F040FA5A
:101480000122FF21204602F03BFA002211462046AD
:1014900002F036FA94F83A219121204602F030FA0F
:1014A00001220021204602F02BFA0022FF212046D3
:1014B00002F026FA20460022802102F021FA012DB6
:1014C00035D015D3032D04D06FF00706304602B097
:1014D00070BDA0B304220021204602F011FA064696
:1014E0000028F3D10423304684F8323102B070BDB5
:1014F00001220021204602F003FA012306468DF85E
:1015000007300028E2D1054685B30DF1070200211E
:10151000204602F03BFA9DF80730DB0705F1010594
:1015200017D5B0B9C82DEFD16FF00606CEE720B9B8
:1015300094F8DA30013B022B13D90222CBE794F85E
:10154000DA30013B022BC5D801212046FFF752FFBC
:10155000C0E7C82D14BF06466FF00606304602B03D
:1015600070BD29462046FFF745FFE6E79DF80730A6
:1015700013F00103AAD01D46C7E700BF027C0AB1E1
:1015800000F0CABD10B50446FFF772FF00B110BDF0
:10159000204600F0C1FD0028F9D1032384F8323140
:1015A00010BD00BF70B5064682B0002501220B2198
:1015B000304602F0A5F9002204460B21304602F025
:1015C0009FF90DF1070204431321304602F0DEF9C2
:1015D0009DF8073064B2204301355B0740B2EDB29D
:1015E00009D0032D03D00028E0D002B070BD6FF009
:1015F0000B0002B070BD032D08BF6FF00B00F4E7C5
:1016000038B50023037404460D46FFF7B7FF00B159
:1016100038BD29462046FFF725FE0028F8D10146AF
:101620002046BDE83840FFF7BDBF00BFF8B59DF8C4
:101630001870002940F0A480142A0BD0152A054602
:101640000E461C4634D0042C2FD8DFE804F00C26BC
:101650002C282A00002F0CBF102201228421BDE873
:10166000F84002F04DB900220A21284602F048F95C
:10167000002840F08880002F14BF10230023EF22A1
:101680008421284602F058F988B985F8DA400146E5
:101690002846BDE8F840FFF785BF0122E4E70322B2
:1016A000E2E70422E0E70222DEE76FF00A00F8BD7D
:1016B0000122FF2102F024F9324631460446284631
:1016C00002F01EF932460443FF21284602F018F9C1
:1016D00064B2012204438021284602F011F964B269
:1016E000022204438521284602F00AF964B204224A
:1016F0000443FF21284602F003F964B23246044352
:10170000CD21284602F0FCF864B211220443CC211A
:10171000284602F0F5F864B207220443FF21284668
:1017200002F0EEF864B232460443BE21284602F0CD
:10173000E7F864B206220443FF21284602F0E0F8ED
:1017400064B209220443CC21284602F0D9F864B2DD
:1017500032460443FF21284602F0D2F864B2012247
:101760000443FF21284602F0CBF864B2324604431A
:101770003146284602F0C4F864B2204340B2F8BDB6
:101780006FF00900F8BDF8BDF0B597B004464022EF
:10179000002106A805F018FE002320460121ADF81F
:1017A0000E308DF80B308DF80C30049300F0FCFCFB
:1017B00094F81421012A40F2B38003AA04A9204618
:1017C00000F034FB0546002D40F0A48094F8503121
:1017D000002B00F0A2805A49204601F03BFB054651
:1017E000002840F0978000952A4629460423204689
:1017F000FFF71CFF0546002840F08C800122FF21E6
:10180000204602F07DF80DF10E02064684212046A6
:1018100002F0CAF82A46FF2146EA0005204602F0F7
:101820006FF86DB2284345B2002D73D1BDF80E306C
:101830001B01C4F8D43006A92046FFF7D1FB0546AA
:10184000002867D10DF10B020921204602F09EF815
:10185000054600285ED106AE0FCE9DF80B7004F150
:10186000100507F0010784F831710FC50FCE0FC5C1
:101870000FCE0FC596E80F008DF80B7085E80F00AE
:101880000DF10B020121204602F080F805460028E8
:1018900040D19DF80B3084F8303102460146204695
:1018A000FFF7DEF90546A8BB024602212046FFF7F6
:1018B000D7F9054670BB0323014684F832310DF198
:1018C0000D02204601F0DAF9054618BB9DF80D30EF
:1018D00084F8E8300DF10D020121204601F0CEF927
:1018E0000546B8B99DF80D3084F8E03005AA03210B
:1018F0002046FFF727FA054660B9059BC4F8E43097
:1019000005AA04212046FFF71DFA054610B9059BDC
:10191000C4F8DC30284617B0F0BDD4F84C115BE7B2
:1019200094F8131107D00C293FF647AF204600F07A
:10193000EBF8054647E720293FF63FAFF6E700BF43
:10194000188DFF1F00F072BA10B582B00C460DF171
:101950000602282102F028F850B9BDF80630C3F37A
:101960000B03B3F5006F05D2FA2202FB03F32360E9
:1019700002B010BDA3F58053C3EB431203EB820307
:101980005B00236002B010BDF0B4D6084FF0FF3406
:101990008E421C601AD202F007078519344615F8EA
:1019A000012BB44203BF3A41D2B23846002012F0B4
:1019B000010F4FEA520206D101300828F7D1013455
:1019C000A142ECD102E000EBC4001860F0BC70470B
:1019D0002DE9F04F87B01E46139B129F039701908D
:1019E000109DABB38A469046DFF8B0B000244FF0AC
:1019F000010910E05BF82220003218BF0122524595
:101A00001FD1854203F1010702D9335C19433154D8
:101A1000139BA3421CD003AB3A4629464046FFF72E
:101A2000B3FF039B119A03F007019A18B3F1FF3F2C
:101A30004FEA921204F101044FEAD30009FA01F1CE
:101A4000D8D1149B1F606FF0310007B0BDE8F08F54
:101A5000149B01981F6032460623B02101F024FF39
:101A60000028F2D1019804AA0623B02101F032FF28
:101A7000002DEAD032789DF810309A42E3D13544F7
:101A800004AB013605E016F8012B13F8011F914253
:101A9000D9D1AE42F7D107B0BDE8F08FC48FFF1F98
:101AA00070B5C02288B00E460121044690F830512E
:101AB00001F026FF08B108B070BD01A92046FFF76C
:101AC0009FFD0028F7D10122FF21204601F018FFD9
:101AD0000028F0D13246B621204601F065FF0028EB
:101AE000E9D10246FF21204601F00AFF0028E2D199
:101AF0002A460121204601F003FF0028DBD184F8AB
:101B0000305108B070BD00BF70B50E4688B01546A4
:101B1000FF210122044601F0F3FE00283AD0002301
:101B200084F8243184F8253184F8263184F827316B
:101B300084F8283184F8293155B32448816869B97B
:101B40000122531C51B9B6322C2B4FEA921205D008
:101B500050F822101A46531C0029F4D007A8B421CB
:101B600006220293049001910092039604F5927369
:101B700004F5957229462046FFF72AFF30B9012364
:101B800084F8136184F8145184F8153108B070BDDD
:101B90002B46E3E702464F21204601F0B1FE002824
:101BA000BDD12C224E21204601F0AAFE024600287B
:101BB000B5D1FF21204601F0A3FE0028AFD1B42209
:101BC000B621204601F09CFEA9E700BFC48FFF1F8D
:101BD00041F0010210B50021044601F091FE0246D9
:101BE00008B1104610BD204600F096FA02460028C3
:101BF000F7D101462046FFF7D5FC02460028F0D178
:101C000020461146BDE8104001F07ABE2DE9F04FA4
:101C100083B0002488469246FF2101220646994659
:101C20008DF807409DF838509DF83C7001F068FE33
:101C3000224621468346304601F062FE2246FF21BD
:101C40004BEA0004304601F05BFE64B2204344B22C
:101C5000B8F1000F1FD055BB97BB0122FF213046C2
:101C600001F04EFE012204430021304601F048FEFF
:101C700064B200220443FF21304601F041FE64B209
:101C80009DF807300D9A204323F0100340B21370E3
:101C900003B0BDE8F08FE5B9002FDED04B468022BF
:101CA000EE21304601F048FE204344B2D5E70C9ABD
:101CB000CB21304601F06AFE204344B2002FCCD045
:101CC0000DF10702EE21304601F060FE204344B2E0
:101CD000C3E75246CB21304601F012FE204344B206
:101CE000002FBAD0DAE700BF2DE9F04186B0002519
:101CF0008DF8175004460E4617461D4673B1012253
:101D000090F830811146204601F0FAFD70B10023B1
:101D1000337000B9FDB906B0BDE8F081012211466B
:101D20002046984601F0ECFD0028F0D140212046E5
:101D3000FFF74EFF0028EAD1012FE8D10DF117037C
:101D400003900193024603460297009639462046C7
:101D5000FFF75CFFDDE742460121204601F0D0FDA0
:101D60000028D8D184F8308106B0BDE8F08100BFEA
:101D70002DE9F041044686B00E4617461D4673B164
:101D800090F8308102220121204601F0B9FD70B1A6
:101D90000023337000B9FDB906B0BDE8F08102221E
:101DA00001212046984601F0ABFD0028F0D1014604
:101DB0002046FFF70DFF0028EAD1012FE8D10DF1F1
:101DC0001703029000930246034603970196394693
:101DD0002046FFF71BFFDDE742460121204601F0C8
:101DE0008FFD0028D8D184F8308106B0BDE8F0819D
:101DF000F8B51D46174600232A46044690F8306180
:101E0000FFF772FF00B1F8BD03462A463946204667
:101E1000FFF7AEFF0028F6D132460121204601F03F
:101E20006FFD0028EFD184F83061F8BD2DE9F04F47
:101E300093B0002309910A9280F8243180F825316B
:101E400080F8263180F8273180F8283180F8293150
:101E50000122FF2104460E930F938DF834308DF844
:101E60003530B0F83C9101F04BFD064618B13046D4
:101E700013B0BDE8F08F02464F21204601F040FD2F
:101E800006460028F3D12C224E21204601F038FDD1
:101E900006460028EBD10246FF21204601F030FD26
:101EA00006460028E3D1B422B621204601F028FDE1
:101EB00006460028DBD102468021204601F020FDA5
:101EC00006460028D3D103460DF135020DA9204660
:101ED000FFF78EFF06460028C9D112AD04F59573B1
:101EE00045F8100D03204FF0B40E039004F59277DF
:101EF00006200693029631461A468DE80140049565
:101F00003B462046FFF764FD06460028AFD10DF1A1
:101F100036012046DDF83880FFF7C2FD064600286E
:101F2000A5D1BDF836B0D9453AD208F1B4039B0922
:101F30006F4A52F82310002384F8243184F82531A5
:101F400084F8263184F8273184F8283184F829313F
:101F500069B9B8F12B0F0AD84346B5339B0908F18C
:101F6000010852F8233013B9B8F12C0FF4D1B42280
:101F700006234FF0030A019200930495CDF80880E0
:101F8000CDF80CA03B46069A01212046FFF720FD24
:101F9000002800F097800646304613B0BDE8F08F69
:101FA0004FF0000A5246CDF81CA0D9455CD9C9EBC8
:101FB0000B0B10A80622394602F0A4F85B46002B52
:101FC000B8BF5B4208934FF0030B0B9642460FAB32
:101FD00006210698FFF7D8FCDDF83CA001260AF19F
:101FE000B4050AF0070E0623BAF1FF3F0AEB060814
:101FF0004FEADA0C3A464FF0B001204625FA03F5D5
:1020000006FA0EFE0BEB060A40D0394E56F8255064
:10201000079E003518BF0125B54237D1BCF1050F29
:1020200034D817F80C504EEA050E07F80CE001F012
:102030003BFC0DF136010028ADD12046FFF730FD05
:10204000062239460028A6D1BDF83630C9EB030573
:10205000002DB8BF6D42994510A81DD2089B0B9E5C
:102060009D421ED89DF81C2009980A9DC0F800A02A
:1020700001232A7084F81531036884F813312B7812
:1020800084F81431304613B0BDE8F08F6FF031069C
:10209000304613B0BDE8F08F02F034F8D34608950F
:1020A00094E71346B0210246204601F0FDFB10A93B
:1020B00005460622384602F025F8DA46002DD1D032
:1020C0002E46D4E60DF136012046DDF83880FFF7C4
:1020D000E7FC00287FF45FAFBDF836B0D94504D3E4
:1020E00001238246024607935FE7012207925CE7DD
:1020F000C48FFF1F013830F0FF0309D000234008D0
:10210000013320F0FF029BB2002AF8D11B029BB2E0
:10211000184480B2704700BF70B582B002AE002391
:1021200006F8013D0546C82408E09DF80720012A6D
:1021300028460AD0013C0BD001F052FC314628461B
:10214000FFF766F803460028EFD0184602B070BDCE
:102150006FF00603184602B070BD00BF70B50022D4
:1021600082B08321064601F0CBFB054678B9C8242E
:1021700002E060B9013C13D00DF107028321304623
:1021800001F004FC9DF807300546002BF1D03046E5
:102190000122832101F0B4FB284340B202B070BD9C
:1021A0006FF00605F3E700BF2DE9F04F90F8F060FF
:1021B00091B04FF00009072ECDF81C90CDF820907B
:1021C00000F081800F4601228021054601F098FB36
:1021D00001228046FF21284601F092FB4A4648EA48
:1021E00000084946284601F08BFB4FFA88F8062282
:1021F00048EA0008FF21284601F082FB4FFA88F8E0
:1022000048EA00080DF115028321284601F0BEFBC3
:102210009DF815204FFA88F848EA000842F00402B9
:102220008321284601F06CFB4FFA88F8072248EA20
:102230000008FF21284601F063FB4FFA88F80122CD
:10224000812148EA0008284601F05AFB4FFA88F835
:1022500048EA0008284601F0C3FB4FFA88F848EA2C
:10226000000801228021284601F04AFB4FFA88F835
:1022700048EA000017F0010B44B21CD1CDF80CB0B5
:10228000CDF808B007F0020202F0FF03019332B16B
:1022900006F0020202F0FF08002A00F09D8007F01D
:1022A000040202F0FF099AB1700740F16F814FF00C
:1022B000000AD0460EE0F30740F1EE81CDF80C9015
:1022C000CDF80890DEE74C46204611B0BDE8F08F0F
:1022D000CA46C84600228121284601F011FB062289
:1022E0000443FF21284601F00BFB64B20DF11502F7
:1022F00004438321284601F049FB9DF8152064B270
:10230000044302F0FB028321284601F0F9FA64B28B
:1023100001220443FF21284601F0F2FA64B20122AF
:1023200004430021284601F0EBFA64B20022044382
:10233000FF21284601F0E4FA64B204430022802120
:10234000284601F0DDFA64B2204344B2002CBBD130
:10235000BBF1000F14D0F10712D49DF8083085F8B6
:1023600013319DF80C3085F8143109AA05F22913B0
:1023700005F22F1012F8011B03F8011F9842F9D142
:10238000019B13B1B20740F1DF81B9F1000F1CD0FE
:1023900073071AD44FEA4A21079A089BC5F82011FF
:1023A000C5F81821C5F81C31B8F1000F00F0DA812A
:1023B0004FF47A73A8F5C85803FB08F84FEA1818C9
:1023C000C8F100080FFA88F3EB603E43204685F819
:1023D000F06011B0BDE8F08F02229421284601F090
:1023E0008FFA81462846FFF7B9FE49EA0000044308
:1023F0000DF116029021284601F0C8FA64B27B2242
:1024000094210443284601F07BFA64B20443284631
:10241000FFF7A4FE64B20DF1170204439021284691
:1024200001F0B4FA64B2772294210443284601F003
:1024300067FA64B204432846FFF790FE64B204438F
:1024400006AA9021284601F0BDFA069A64B2D1008E
:10245000204301F0780144B2C2F3C620C2F3864C97
:10246000C2F3061E4FEA52698DF8151078229421A6
:102470008DF82E0028468DF82DC08DF82FE08DF8B0
:102480002C9001F03DFA04432846FFF767FE64B242
:1024900006AA04439021284601F094FA069A9DF872
:1024A00015E064B29101204301F040010EEB527E31
:1024B00044B28DF81510C2F30620C2F3C631C2F340
:1024C000865C8DF830E08DF83210C2F3460E942110
:1024D00079228DF8330028468DF831C08DF834E02C
:1024E00001F00EFA04432846FFF738FE64B206AA4C
:1024F00004439021284601F065FA069A9DF815C01C
:1025000064B24FEA820E2043C2F3C6410EF07C0E45
:1025100044B2C2F306300CEB926C8DF815E08DF8E6
:102520003610C2F3461E94217A228DF837002846D1
:102530008DF835C08DF838E001F0E2F90443284603
:10254000FFF70CFE64B206AA04439021284601F06E
:1025500039FA069A9DF815108DF83E8064B201EBA9
:102560009271C2F3C658C2F3064CC2F3462E204302
:10257000C2F3860244B28DF839108DF83A808DF896
:102580003BC08DF83CE08DF83D2088E67B2294210D
:10259000284601F0B5F980462846FFF7DFFD48EAF6
:1025A0000000044307AA9021284601F00BFA64B208
:1025B0007C2294210443284601F0A2F964B204432A
:1025C0002846FFF7CBFD64B208AA044390212846B1
:1025D00001F0F8F964B2732294210443284601F013
:1025E0008FF964B204432846FFF7B8FD64B2044390
:1025F00006AA9021284601F0E5F9069A64B24FEA4E
:10260000022A942174220443284601F079F964B225
:1026100004432846FFF7A2FD64B206AA04439021B2
:10262000284601F0CFF964B275229421044328466C
:102630001FFA8AF89DF81BA001F062F964B2044306
:102640002846FFF78BFD64B206AA04439021284672
:1026500001F0B8F9069A64B2942104434AEA080AE0
:1026600028464FEA0228762201F04AF964B2044370
:102670002846FFF773FD64B206AA0443902128465A
:1026800001F0A0F964B29DF81B201FFA88F82043DE
:1026900044B242EA08081DE66B229421284601F064
:1026A0002FF980462846FFF759FD48EA0000044309
:1026B00006AA9021284601F085F9DDF818E064B2F9
:1026C000CEF3062324229421044302932846CEF31A
:1026D000C033039301F014F964B204432846FFF7B2
:1026E0003DFD64B206AA04439021284601F06AF930
:1026F000069A8DF8272064B2110E20434FEA124C3F
:102700004FEA122E44B225228DF824102846942137
:102710008DF825C08DF826E001F0F2F80443284634
:10272000FFF71CFD64B206AA04439021284601F07D
:1027300049F9069A64B2110E2043120C44B28DF886
:1027400028108DF829209DE59DF816209DF817305A
:1027500085F8F12085F8F2300BA905F1F30004F0BB
:1027600097FE12E643462FE6F0B585B00024022915
:1027700015468DF80340ADF80440064607D90329F5
:102780005ED0042921D020462C6005B0F0BD214642
:102790000DF10202FEF762FA00284AD09DF80230DD
:1027A0004B4A4C4C9DF8031002FB03F202F5FA72FF
:1027B000A4FB0232930901FB033303EBD213A4FB06
:1027C0000334A4092C6005B0F0BD02A9FEF79CFA01
:1027D0009DF80B30002B60D11C460DF102073A46E4
:1027E00001213046FEF73AFA00286ED10DF10602BB
:1027F0003046712101F0D8F8BDF80630DAB21B0A74
:1028000002FA03F301331C1BA4B2314A9DF80230D3
:10281000304902FB03F303F5FA73A1FB03239A0982
:10282000DB0904FB0234A1FB0434A4092C6005B0CD
:10283000F0BD30460DF10302462101F0A7F8ADE7E7
:102840000DF102022146FEF709FA00289CD101464B
:102850000DF102023046FEF701FA20B9304601AA16
:10286000512101F0A1F8BDF804309DF8026018492B
:10287000184CDAB201FB06F11B0A02FA03F301F568
:10288000FA71A4FB012101339AB28B09C90903FB38
:102890000213A4FB0334A40976E70DF102073A46BC
:1028A00021463046FEF7DAF90028AED101AA5121BF
:1028B000304601F079F8BDF80420D3B2140A03FAC7
:1028C00004F40134A4B2002889D06442A4B29CE785
:1028D000002F3A00D34D6210F0B5022985B015469D
:1028E000044639D9032900F0838004295FD102A965
:1028F000FEF70AFA9DF80B0000285DD106460DF19F
:10290000050701213A462046FEF7A8F9014600BB1B
:102910009DF80500514B524A03FB00F303F5FA738F
:10292000A2FB0332D0094FF47A73920903FB05032B
:10293000B3FBF2F016FA80F080B2002840F08380FA
:1029400002467121204600F0E9FF014608B9C4F8AB
:10295000DC50084605B0F0BD00210DF10502FEF780
:102960007DF901460028F4D13C4A9DF805303C49E8
:1029700002FB03F303F5FA73A1FB0323D9094FF418
:102980007A7202FB05159B09B5FBF3F39AB2B2F517
:10299000807F5CD8013BDAB293B2A4F8D8302046ED
:1029A000462100F0ADFF0146084605B0F0BD6FF0CE
:1029B0000301084605B0F0BD0DF1050700213A46B8
:1029C0002046FEF74BF901460028C2D151210DF1F6
:1029D0000602204600F0E8FF01460028B9D1BDF804
:1029E0000620D3B2100A03FA00F0013086B288E75D
:1029F0000DF105020021FEF731F9184B184A014686
:102A00009DF8050003FB00F303F5FA73A2FB033204
:102A1000D6094FF47A73900903FB0563B3FBF0F01A
:102A200080B2B8B9ADF80600A4F8D800002990D15A
:102A300002465121204600F071FF0146002888D14E
:102A4000C4F8E45085E7FFF755FB024679E7FF231A
:102A50001A46A2E7FFF74EFBE4E700BF002F3A005B
:102A6000D34D62102DE9F04184B0002312F001072C
:102A70008DF8033030D106468846144651BBA2F18A
:102A80000C03062B28D80C2A00F085800E2A00F0B3
:102A90008480102A41D0122A00F0AB806310013BE1
:102AA00002AA03213046DDB2FFF75EFE002876D091
:102AB00086F8E84090B971693046FEF7CBF868B9FE
:102AC0000246012330460DF10301FFF751F904B02E
:102AD000BDE8F081012904D06FF0030004B0BDE827
:102AE000F081A2F10803062BF6D8082A00F08380B3
:102AF0000A2A00F0A1800C2A00F0AF800E2A1AD01A
:102B00006310013B01AA04213046DDB2FFF72CFE21
:102B1000002861D086F8E040CCE74022572100F041
:102B2000EFFE08225621304600F0EAFE0028B5D01C
:102B300004B0BDE8F0814822114600F0E1FE082211
:102B40004721304600F0DCFE0322054632213046A4
:102B500000F0D6FE072205433021304600F0D0FEBB
:102B60006DB242460543FF21304600F0C9FE6DB20A
:102B7000202205433021304600F0C2FE6DB20543ED
:102B80003A46FF21304600F0BBFE6DB2284340B20A
:102B90000028A3D1B4E71822C0E73022BEE703AA79
:102BA00002213046FFF7E0FD002881D12A4650215E
:102BB000304600F0A5FE00287FF47AAF029A032188
:102BC0003046FFF789FE00287FF472AF039A022196
:102BD0003046FFF781FE6BE72A467021304600F051
:102BE0008FFE002896D1019A04213046FFF774FE2B
:102BF00090E7502292E71022482100F081FE224601
:102C00004721304600F07CFE022205463221304644
:102C100000F076FE0C2205433021304600F070FEB5
:102C20006DB242460543FF21304600F069FE6DB2A9
:102C30003022054311469EE72822482100F060FE1D
:102C400008224721304600F05BFE03220546322170
:102C5000304600F055FE09227DE73822482100F079
:102C60004FFE08224721304600F04AFE0322054667
:102C70003221304600F044FE08226CE710B51446BD
:102C800082B099B1012903D06FF0030002B010BDEA
:102C90000DF10702702100F079FE0028F6D19DF8B1
:102CA000073001335B00237002B010BD0DF1070245
:102CB000502100F06BFEF0E770B544F61F6384B05E
:102CC0004FF4FA64002299420094019243D90C46D1
:102CD00002A90546FEF718F8B8B99DF80830A4F621
:102CE000E806A3B99DF809308BB99DF80A3073B98D
:102CF0009DF80B309BBB9DF80C0030B1A6F226224C
:102D000004212846FFF7E8FD6C6104B070BD6A46F7
:102D100002212846FFF728FD0028F6D19DF808304B
:102D20002BB1009B03F24E239E4214D9F61A9DF854
:102D30000A303BB1009B03F2B2235B00B3420AD2DC
:102D4000F61AD5E79DF80930002BD1D0009B03F58A
:102D50002573B342F4D36FF0030004B070BD01AA31
:102D600003212846FFF700FD019B03F52573B342BD
:102D7000F1D20028C9D1F61ABDE700BF70B540F600
:102D8000363386B00B604FF4FA6200230D4604A977
:102D9000029203930646FDF7B7FF044688B99DF8F3
:102DA00010308BB99DF8113073B99DF812305BB9B2
:102DB0009DF813302BBB9DF81430002B3AD12B68B3
:102DC0007361204606B070BD02AA02213046FFF7AB
:102DD000CBFC18BB9DF810302BB1029B2A6803F284
:102DE0004E2313442B609DF81230DBB99DF811304F
:102DF000002BDDD0029B2A6803F5257313442B605A
:102E0000D6E703AA03213046FFF7AEFC039B2A68EE
:102E100003F5257313442B600028CCD004462046CC
:102E200006B070BD029A2B6802F2B22203EB420395
:102E30002B60BDE701AA04213046FFF795FC019BFA
:102E40002A6803F2262313442B600028B8D00446D6
:102E5000E5E700BFF0B50024074683B00E462046E4
:102E6000355DDDB1D0B9FF2D04F101031CD0042D77
:102E700016D801AAF15C0234334402EB050E13F8B4
:102E8000010F02F8010B7245F9D12C442B4601AA1F
:102E9000384600F009FD355D002DE3D103B0F0BDEB
:102EA0001C466FF00300DBE7F35CA21C032B27D862
:102EB000DFE803F01D140B023319B25CDB7803EB7F
:102EC0000223A7F83C310434CAE73319B25CDB783B
:102ED00003EB0223A7F838310434C1E73319B25C9D
:102EE000DB7803EB0223A7F836310434B8E7331953
:102EF000B25CDB7803EB0223A7F834310434AFE78C
:102F000014466FF00300ABE770B5002382B00E46A5
:102F100013600DF1070114460546FDF751FF48B94E
:102F20009DF8073033B1B28A2B6A03FB02F380337A
:102F30001B0A236002B070BDF0B5B0F85471D0F830
:102F40005851059E069CDDF81CE005FB07F5803511
:102F50002D0A05FB07F5002A7FD0570807EB8127CC
:102F6000B7FBF2F101EB410101FB01F101F5004179
:102F7000090C04F5004C4FEA1C4C3C4F0CF1030CBF
:102F800006FB03F2A7FB0C3C4FEA9C0C02F5004247
:102F9000CCEBCC0C120CBCF5803F02FB02F25AD2F7
:102FA0000334A7FB0437BF08C7EBC70707F5004783
:102FB0003E0C06FB06F702EB5E063E44B6FBFEF453
:102FC000A4032B482B4B7F346408A0FB0424A409E2
:102FD00004FB01F101F5FA71A3FB01218909090143
:102FE00001F5FA71A3FB013205F120049209A4094D
:102FF0004FF080439B089C42FCD3002B34D000262A
:10300000F718A7429ABFE41B03EB560676089B0805
:10301000F6D14AB1174BA3FB013105EBD111B1FB3E
:10302000F2F2B2F1804F1AD24FF080439B089342E4
:10303000FCD8BBB10021CC1894429ABF121B03EB01
:10304000510149089B08F6D18E4228BF0E46089BC5
:1030500000201E60F0BD084FADE7114689E74FF034
:103060008043E7E71E46F2E71E46D2E7ABAAAAAACC
:1030700009040281D34D62100000F0FF2DE9F04FEA
:1030800089B09046026A069207AA04460E469946FF
:10309000D1F810A0CF68FFF737FF002840F0298152
:1030A000079D3D4406AA31462046FFF72DFF002824
:1030B00040F01C8194F8E0304FF47A7C0CFB05F270
:1030C000082B02F5004214BF03210221120C0592C5
:1030D00000F0118194F8E8B08C4ADFF838E2D4F8B7
:1030E000E40002FB03F302FB0BF202F5FA72AEFB03
:1030F00002B203F5FA73AEFB03B34FEAD21B0CFB2B
:1031000000B09209B0FBF2F2D4F8DC004FEAD31B16
:103110000CFB00B09B09B0FBF3F31344DB0201FB93
:1031200003F303F5FA73AEFB03239B0940F27762C6
:1031300002FB03F303F5FA73AEFB033E05F18001D6
:10314000090A4FEA9E1501FB05F280324FF47A73AB
:10315000120A03FB0AF36E4818BF02EB42024FEA61
:10316000134A18BF9200059B08BF0C224FEA0A4A77
:10317000BAFBF3FA824528BF82464FF4167E0EFB57
:103180000AFE4FF080439B089342FCD84FF0000AA0
:103190000AEB030090429ABF121A03EB5A0A4FEA55
:1031A0005A0A9B08F4D1069BB6F808C0594A5A48F7
:1031B0004FF47A7606FB03F3B3F5481F059E28BF4C
:1031C0004FF448133604C3F5FA7BB34403F5FA739E
:1031D0001E44A2FB0B3B514B00FB0CFCA2FB062642
:1031E0004FEA9B10A3FB0C230202B009B2FBF0F0E4
:1031F00000029A0AC0F5803302FB03F303F5004393
:103200001B0C03F580335B0803FB03F39B0B4FF4AC
:10321000487C0CFB03FC0EF500420CF5004C120C34
:1032200002FB02F24FEA1C4C0CFB0C2CBCF1804F51
:103230004FEA4A0A4FF0804202D292089445FCD3EA
:103240000020861866459ABFC6EB0C0C02EB5000B6
:1032500040089208F5D10204314E32483232A6FBC2
:10326000022640F6B53C7609B6FBFAF60CFB06F6EC
:1032700006F59C520832A0FB0220400BB0F5704FBF
:1032800028BF4FF4704000FB00F000F58850043078
:10329000B0F1804F4FF0804202D292089042FCD3AE
:1032A000002606EB020C84459ABFCCEB000002EB33
:1032B000560676089208F4D14FF47A7202FB06F6AD
:1032C000194ACDF80C90964228BF16464FF4487C18
:1032D0000295CDF804E03A46C8F800600902C4F847
:1032E00040612046CDF800C0FFF726FE09B0BDE8DA
:1032F000F08F3D46D6E60C4BC8F80030C4F840319C
:10330000C9F8000009B0BDE8F08F00BF002F3A00F7
:1033100066666600D34D62109A990600517BC637E7
:103320001F85EB515917B7D1AE878F022DE9F04FAA
:103330004FEAD1098BB009F00F084FF2A106002423
:10334000924626FA08F60122FF218DF80E408DF8EC
:103350000F408DF810408DF81140ADF812400994DF
:103360009B461640044600F0CBFA002851D0BDF829
:1033700012707F02C4F848719DF80E50002D3ED0A7
:103380009DF81050002D00F0B58000259DF81130FB
:10339000002B40F0F8809B461F46159B1B7813B905
:1033A000149A002353810DF10F0201212046FDF7ED
:1033B0006DFD08BB9DF80E309DF810109DF8112092
:1033C000002B08BF0125B8F1040F18BF9DF80F307E
:1033D00084F82E501ABFB3FA83F35B090123002946
:1033E00008BF0127002A08BF4FF0010B84F82F30D7
:1033F00084F8307084F831B00BB0BDE8F08F9DF8E0
:103400001070002FC2D19DF81130002B6FD19B4658
:10341000C3E70DF11202B621204600F0C5FABDF84F
:10342000127002467F020028A4D1FF21204600F03E
:1034300067FAC4F84871014600289DD10DF10E02CB
:103440002046FDF723FD9DF80E500190002D53D12D
:10345000019B002BD3D104AA02212046FDF716FDC3
:103460009DF810200346002A65D0002840F09D807A
:1034700007AA02212046FDF747FD079A0346002AC6
:1034800059D0974294BF002701270193002BBAD14E
:103490000DF1110203212046FDF7F8FC9DF81120E3
:1034A000019B002A69D010BBBBF1000F6FD04FEA1F
:1034B0000A2ABAFBFBFA08AA03212046FDF724FDDD
:1034C000089B002B59D09A452CBF4FF0000B4FF0B2
:1034D000010B00287FF461AF002E50D108F1FF33BB
:1034E000022B2AD8159A052313705CE7019F4FF031
:1034F000000B52E72F4686E7054600287FF440AFD1
:1035000009AB05AA14992046FFF7B8FD00287FF4FF
:1035100037AF149A099B5381294606AA2046FDF726
:10352000F3FC069D0190002D92D0059B9D422CBF7F
:10353000002501258CE7019FA7E7B8F1060F28D0E9
:10354000B8F1090F25D009F00D09B9F1080F10D015
:10355000012F0ED0B8F1040F1FD0BBF1010F1CD00A
:10356000012D1ED0159A00239B4613701D461F4641
:1035700016E7159A0323137015E79B46A9E7159ADA
:10358000FF2313700FE700274FF0000B05E7DA4623
:1035900091E7159A0423137005E7159A0223137017
:1035A00001E7159A01231370FDE69DF81130002BF9
:1035B0009CD1DDF804B05F46EFE600BFF8B50F46DA
:1035C000022116460546FEF7EFFD044658B995F868
:1035D000F13053B195F8F2303B7006F1400005F13F
:1035E000F30103F055FF2046F8BD387086F840001F
:1035F0002046F8BD30B583B00C460A460DF10701F0
:103600000546FFF7DBFF30BB9DF807306BB3222B7D
:1036100023D9262B2FD915221A49204600F072FDF6
:103620000822194904F1200000F06CFD04F1600249
:10363000C021284600F0AAF968B90DF10602284613
:10364000C22100F0A3F99DF8063001221B0984F87D
:10365000623084F8612003B030BD202B0BD00C22E7
:103660000A49204600F04EFDDAE70C2208492046C0
:1036700000F048FDD4E70C220649204600F042FD48
:10368000CEE700BFBC7C0000D47C0000A47C00001E
:10369000987C0000B07C000008B505282ED8DFE833
:1036A00000F00A11181F260308460E22174900F0E1
:1036B00029FD002008BD08460C22154900F022FD16
:1036C000002008BD08460B22124900F01BFD002017
:1036D00008BD08460C22104900F014FD002008BD6A
:1036E00008460F220D4900F00DFD002008BD0846D8
:1036F0000B220B4900F006FD002008BD08460A22F7
:10370000084900F0FFFC002008BD00BF847E0000D7
:10371000447E0000507E00005C7E0000687E000059
:10372000787E0000DC7C000090F8603090F861202A
:103730009A4205D95A1C034480F86020187E7047CD
:103740004FF0FF30704700BF70B5049D40002E68F9
:1037500085F86300012085F8AE0085F8AD001C46B1
:1037600028463368164698473CB12B6816F8011B6B
:103770001B6828469847013CF7D12846012100F0F4
:103780001DFB002070BD00BF2DE9F843089C0127F8
:1037900045008046206884F8635084F8AE7084F851
:1037A000AD70D0F8009020461D461646C8473946F1
:1037B000204600F003FB3B464146EAB2204600F0BB
:1037C00087FBEDB1114F10E094F8603094F8612060
:1037D0009A4203F1010004EB030114D984F860005C
:1037E000087E06F8010B013D0AD023685B69BB42E5
:1037F000EAD020469847013DC0B206F8010BF4D14B
:103800000020BDE8F883FF20EBE700BF2937000068
:1038100010B584B004AC009304F8012D01232246B6
:10382000FFF792FF04B010BD30B585B0144604AA6E
:10383000251202F8045D009302238DF80D40FFF776
:1038400083FF05B030BD00BF00B583B000930123F6
:10385000FFF79AFF03B05DF804FB00BF10B584B01A
:103860001446009303AA0223FFF78EFFBDF80C3025
:103870005BBA238004B010BD10B584B01446009329
:1038800003AA0423FFF780FFBDF80C309DF80E104B
:103890009DF80F205BBA9BB241EA032342EA03235F
:1038A000236004B010BD00BF10B590F85C41D0F8A3
:1038B000600182B03F2B0090204694BF00246FF03F
:1038C0000304FFF741FF00280CBF20466FF01300F0
:1038D00002B010BD10B590F85C41D0F8600182B024
:1038E0003F2B0090204694BF00246FF00304FFF7A5
:1038F0004BFF00280CBF20466FF0130002B010BD34
:1039000008B5D0F8603190F85C01FFF781FF00281E
:1039100014BF6FF01300002008BD00BF08B5D0F839
:10392000603190F85C01FFF77FFF002814BF6FF053
:103930001300002008BD00BF2DE9F041054690F8B6
:103940005C6182B0144698463046D5F860310DF17E
:1039500007020F46FFF778FF20B16FF0130002B0A7
:10396000BDE8F0819DF80720D5F86031224048EA93
:1039700002043946304622468DF80740FFF748FFDB
:103980000028EAD102B0BDE8F08100BF08B5D0F848
:10399000603190F85C01FFF757FF002814BF6FF00B
:1039A0001300002008BD00BF08B5D0F8603190F8C2
:1039B0005C01FFF753FF002814BF6FF013000020D5
:1039C00008BD00BF08B5D0F8603190F85C01FFF782
:1039D00053FF002814BF6FF01300002008BD00BF84
:1039E00082B000230193019BF92B06D800BF019BF5
:1039F00001330193019BF92BF8D9002002B07047E5
:103A00000020704790F8612090F86000101A70470D
:103A100090F8603090F861209A4286BF1B18187E9B
:103A20004FF0FF30704700BF704700BF38B5054604
:103A3000B0F8AE0090B195F8AD301446C3F149022C
:103A400094420CD805F163001844224600F05AFB5A
:103A500095F8AD30234485F8AD30204638BD0120BF
:103A600014462871EEE700BFB0F8AE306BB190F8A5
:103A7000AD30482B07D8C218013380F8AD30012093
:103A800082F863107047012303710020704700BF64
:103A90000023426980F8603080F8613080F8AC30F3
:103AA00080F8AD3080F8AE3080F8AF3006CA30B460
:103AB0000D680469C0F8B4302A43C0F8B8300A6011
:103AC000A370426990F8B1301649146813441D7A06
:103AD0005B7B01EBC5051B026D6803F4E06343F0FB
:103AE00064032B6090F8B23013449D7CDB7D01EBC6
:103AF000C5011B02496803F4E06343F064030B60F3
:103B000021685368194205D0036927225A70036956
:103B100004229A71036920225A71036980229A70E3
:103B200030BC70478081000010B50269D378DBB2E9
:103B3000D90604463ED510215806D17039D503F078
:103B4000040303F0FF02002B52D03E49D4F8B42006
:103B500000230B7084F8AD30002A5BD0904794F8B6
:103B6000AD30002B56D02369D0229A70236994F887
:103B700063201A712369012284F8AC200222DA70D2
:103B800010BD314B84F8B0009C424AD02F4B9C4270
:103B900052D094F8611013794729DBB207D829482D
:103BA000007820B16018013184F861100376022397
:103BB000D37010BD5906C2D4917801F0100101F004
:103BC000FF000029DDD013F001031ED194F8AC10E2
:103BD00094F8AD00884281BF4B1C091984F8AC30C1
:103BE00091F8633013712369D0229A702269DEE75D
:103BF000236984F86120C0229A702369114A1979D7
:103C0000012111700222DA7010BDC0239370226965
:103C10001379CCE70122002384F8AD2084F86330C7
:103C2000A1E7626994F8B130094913440322187A74
:103C300000F0E2FB2269ACE7626994F8B130054913
:103C4000F3E700BF209EFF1FD48FFF1F9090FF1F40
:103C5000B93C0000C53C00000369DB7803F0200399
:103C600073B190F8B0300133DBB2012B80F8B03083
:103C70001BD9426990F8B1301344187A00F038BC6F
:103C800070B5426903F0FF0590F8B1301344044663
:103C9000187A00F02DFCD4F8B8305BB184F860508D
:103CA00094F86100BDE87040184790F8AF30002BE1
:103CB000DFD0704770BD00BF0148FFF7CDBF00BF28
:103CC000D48FFF1F0148FFF7C7BF00BF9090FF1FB1
:103CD0002DE9F047374FDFF8E0903B68026982B08A
:103CE00006460093DDF800800021A025D3789B06CE
:103CF0005BD53B680193019BC8EB03030F2BF5D900
:103D000049B1102BF2D000209070336980229A7054
:103D100002B0BDE8F087726996F8B130134405210E
:103D2000187A00F043FC726996F8B130134401210F
:103D300093F812A0504600F039FC092400215046A7
:103D400000F02EFC2B46013BFDD10121504600F036
:103D500027FC2B46013BFDD1013CEFD1706996F861
:103D6000B11001444FF4A0720C7A4B7B09EBC401F3
:103D70001B02496803F4E06343F064030B6096F8A8
:103D8000B2300344997CDB7D09EBC1011B02496819
:103D900003F4E06343F064030B60013AFDD1326940
:103DA000D3789B064FF00101A3D4012002B0BDE8F7
:103DB000F08700BF249EFF1F80810000F0B50369DB
:103DC0001222DA700269937803F0200385B004466A
:103DD0000D46002B5ED0B42393703C4922690B68DA
:103DE0000093009E05E00B680193019B9B1B042B35
:103DF00042D8D37803F0200303F0FF00002BF2D069
:103E000094F8AD30002B31D04FF0000E4FF0020C83
:103E100004EB0E0393F8633013710B680393039F55
:103E2000206907E09B060DD50B680293029BDB1B04
:103E3000052B28D8C378DBB203F0020202F0FF069C
:103E4000002AEFD080F803C02669F378DBB2DF06E2
:103E500032462DD49F062BD5DB0731D40EF1010E4F
:103E600094F8AD305FFA8EFE7345D1D800201DBBAB
:103E7000002384F8AE3004E09070236980229A70A9
:103E8000042005B0F0BD86702369802204209A705A
:103E900005B0F0BD03F0FF06FFF71AFF10B90420CC
:103EA00005B0F0BD236984F8AF60B0229A7094E742
:103EB0008023B3700420DAE726698023B370D7E744
:103EC000BEF1000F0CBF02200320F6E7249EFF1F67
:103ED0002DE9F04106690025122780F8605080F82E
:103EE0006150F770D0F810C09CF802E00EF0200E80
:103EF00088B00446884615461E46BEF1000F49D0DC
:103F0000B4238CF80230784B21691A680092DDF8EE
:103F100000E006E01A6801920198CEEB0000042848
:103F200030D8C87800F0200000F0FF070028F1D05A
:103F30004FEA480242F00102D2B20A711A680292B4
:103F4000DDF808E0206906E01A6803920399CEEBD9
:103F5000010105292AD8C17801F0020101F0FF070B
:103F60000029F1D04FF0020C80F803C02269D1780B
:103F700011F0110722D12DBB002E0CBFA0238023EE
:103F8000937003E08F70236980229A70384608B0DE
:103F9000BDE8F0810EF0FF07FFF79AFE0028F5D08C
:103FA000236984F8AF70B0229A70ACE787702369F8
:103FB000802238469A7008B0BDE8F0818023937063
:103FC0000027E3E7012D75D0A021917021690A79BE
:103FD000BE4667464FF0A80C1A680492049805E0A4
:103FE0001A680592059A121A052A4AD8CA7802F068
:103FF000020202F0FF08002AF2D0CF702169CA78CD
:10400000D2B212F0100F08465AD1920658D5013D8F
:10401000EDB2012D49D0BEF1470F3BD90A79012DF0
:10402000DAD11A680692069D05E01A680792079A87
:10403000521B052A46D8C27802F0020202F0FF01A4
:10404000002AF2D00223C3702269D378DBB2D906EA
:104050003AD49B0634D5B023BEF1470F93703FD8B6
:10406000226904EB0E0312791A760EF1010E5FFA43
:104070008EFE16B1236980229A7084F861E077463B
:1040800084E781F80280236980229A70774684F859
:1040900061E07BE704EB0E0291F8048082F818805F
:1040A0000EF1010E5FFA8EFEB9E781F802C02169B8
:1040B0000846B0E7A82191702069BE460279B0E7B2
:1040C000774663E78170DEE71021A023D170013BC2
:1040D000FDD12269937803F0F7037746937055E793
:1040E00023691B79C5E700BF249EFF1F0148FFF726
:1040F0001BBD00BFD48FFF1F0148FFF715BD00BFD8
:104100009090FF1F01B441EA000313F003036FD145
:10411000403A41D351F8043B40F8043B51F8043B8A
:1041200040F8043B51F8043B40F8043B51F8043B91
:1041300040F8043B51F8043B40F8043B51F8043B81
:1041400040F8043B51F8043B40F8043B51F8043B71
:1041500040F8043B51F8043B40F8043B51F8043B61
:1041600040F8043B51F8043B40F8043B51F8043B51
:1041700040F8043B51F8043B40F8043B51F8043B41
:1041800040F8043B51F8043B40F8043B51F8043B31
:1041900040F8043B403ABDD2303211D351F8043BD1
:1041A00040F8043B51F8043B40F8043B51F8043B11
:1041B00040F8043B51F8043B40F8043B103AEDD280
:1041C0000C3205D351F8043B40F8043B043AF9D2D1
:1041D00004320AD0D2071CBF11F8013B00F8013BA2
:1041E00003D30B7803704B78437001BC704700BF5A
:1041F0000C2A4AD310F0030311D0C3F10403D21ADE
:10420000DB071CBF11F8013B00F8013B07D311F895
:10421000013B00F8013B11F8013B00F8013B11F0B4
:1042200003033FF475AF30B4043AC91AC3F1040C68
:1042300051F8044B022B19D0032B0BD0240A51F850
:10424000043B1D0644EA050440F8044B1C46043AAE
:10425000F4D216E0240E51F8043B1D0244EA050492
:1042600040F8044B1C46043AF4D20AE0240C51F8FE
:10427000043B1D0444EA050440F8044B1C46043A80
:10428000F4D20432B1EB0C0130BC043AA0D3013AB1
:1042900011F8013B00F8013BF9D20B7803704B7821
:1042A00043708B78837001BC704700BF08B5104C19
:1042B00008E0236859050DD423681A050FD4236834
:1042C000DB0411D423685803F3D500F0EDFA23681A
:1042D0005905F1D500F00EF823681A05EFD500F066
:1042E00009F82368DB04EDD500F004F8EAE700BF25
:1042F0003480044008B5FFF7D9FF00BF014B1022FE
:104300001A80704700200540704700BF094908B572
:104310000B6830B16A461844A2F58052904202D22E
:104320000860184608BD02F061FD0C2303604FF0E1
:10433000FF3008BD4C91FF1F704700BF10B40F4BFA
:1043400053F8302092F880422CB1012369B182F8F1
:10435000803010BC704703EBC0035B681A6841B93A
:1043600022F002021A6010BC704782F8003110BCC3
:10437000704742F003021A6010BC70478081000051
:104380001C4A02EBC00301295B6811D004291BD031
:1043900052F83000002280F8802229B1022920D072
:1043A000032922D01A6070474FF480721A60704758
:1043B00052F830004FF4A27280F880121A601A6826
:1043C00022F020021A60704752F830104FF4A272A7
:1043D000012081F880021A601A6842F020021A60F7
:1043E000704740F203121A6070474FF481721A60EE
:1043F000704700BF80810000212848D8F8B5042A02
:1044000044D8DFE802F0484B4E0345004FF4102635
:104410002B4B03EBC0030D465C68216811F4E0618F
:1044200048D0284B284A2949C3F89C2104F140422E
:104430002748C3F8A411A2F59221264FC3F8A00182
:104440007C292548C3F8A871C3F8AC012CD9A2F582
:1044500094237C2B2AD9A2F596237C2B28D9A2F56C
:1044600098237C2B29D9A2F59A227C2A27D81B488D
:1044700072B6236823F4702343F08072C4F384017E
:104480001643236040F82150266062B6F8BD70479D
:104490004FF43026BCE74FF40026B9E74FF440262E
:1044A000B6E74FF42026B3E70D48E1E70D48DFE714
:1044B0000D48DDE7FFF764FFB3E70C48D8E7F8BD28
:1044C000808100000082FF1FE18CFF1F898CFF1F8D
:1044D000B58CFF1F5D8CFF1F318CFF1F2892FF1FC3
:1044E0005091FF1F8891FF1FD891FF1F0892FF1F57
:1044F0001A4B03EBC00010B4426802F14043A3F52D
:1045000092217C2923D9A3F594217C290DD9A3F5E7
:1045100096217C291FD9A3F598217C2919D9A3F5C7
:104520009A237C2B11D80E4C00E00E4C72B6136807
:104530000D4823F08773C2F3840123F4803343F0E2
:104540008073136044F8210062B610BC7047074CBA
:10455000ECE7074CEAE7074CE8E700BF8081000082
:104560002892FF1F8891FF1F394300005091FF1FC1
:104570000892FF1FD891FF1F30B4054B054D064C24
:10458000002210211A602A602060196030BC704738
:1045900014D0034004D0034000D00340704700BF54
:1045A000212801D8FFF7CABE704700BF212801D8D3
:1045B000FFF7E6BE704700BF2DE9F843054672B627
:1045C000204F214B214A1B683C68126862B6520199
:1045D00002D5322B88BF013495B3C3F5BB331C4ED3
:1045E000DFF86490DFF86480FF334FF47A72A6FB43
:1045F000031302FB04F404EB931472B6D9F8001011
:104600003A68D8F800E062B6C1F5BB33FF33A6FBC9
:1046100003031EF0806FC4EB93134FF47A7002D043
:10462000322988BF013200FB0233B3F57A7F04D30D
:10463000013D05D004F57A74DFE701F0A1FBDCE76A
:10464000BDE8F883249EFF1F18E000E004ED00E0C1
:10465000ABAAAAAAF8B52E4B2E49DFF8D4E0DFF8B2
:10466000D4C02D4E2D4D2E4C2E4A2F4F4FF400000E
:1046700018604FF0807018604FF0007018604FF0B5
:10468000806018604FF000601860002008602823E8
:104690004BF6FF71CCF80010CEF800303360136099
:1046A0002B6023603B60B3629362092245F8242C9F
:1046B000C4F8D80F05F57F65C7F8D41F07F5FF27A5
:1046C00007F5FA67C6F8F83F2B6006F5FF26C4F831
:1046D000D42F05F5FD2504F5FF24386006F2F476A5
:1046E0001248316005F5FF6504F5FD642B60236019
:1046F000026001F0BBFBFFF751FF1420FFF75CFFE6
:1047000000F00CFD4FF48C70BDE8F840FFF754BF8B
:1047100008E100E00480034014800340248003404B
:104720002C8003401C8003403480034000800B40F9
:104730000C80034008800340431E042B14D872B63B
:104740000A4951F8230068B170B4094C058834F85F
:104750001320466841F82360521B24F8132062B6E8
:1047600070BC704762B6704700207047849EFF1F80
:10477000F09FFF1F013804280BD872B6074B53F87F
:10478000203043B100205B680130002BFBD162B6C2
:104790007047002070471846F9E700BFDC9EFF1FF6
:1047A000F0B472B61A491B4E012311F8014B194F90
:1047B0009A00240742F0010505D556F8324064B14D
:1047C00056F83520BAB10133062BEED162B6124B42
:1047D00000221A70F0BC00F01BBD0F4C0F4D217869
:1047E00007EB4313083001395860217047F8325005
:1047F00062B6F0BC7047084A0949137807EBC50454
:104800000830013B6060137047F8351062B6F0E77E
:10481000C88200000080FF1F0D9FFF1F880040001E
:10482000C8004000431E042B1DD81B4A400140F025
:10483000100030B4104472B6184CE25C032A1BD846
:10484000DFE802F00212151703220D88E25410F07F
:10485000080F14BFC823882343EA05430831416089
:10486000036062B630BC704708300222EDE70522D3
:10487000EBE708300422E8E7094A52F8230038B190
:10488000084A52F82300416042F8231062B6E9E773
:1048900042F82310034AF7E70080FF1F1C9FFF1F09
:1048A000DC9EFF1FF09EFF1F2DE9F04FDFF818B3CD
:1048B000DFF818A387B044E0AE4F4FEA930807EB48
:1048C000C809013ED9F8042003F00803F6B2A2F1AA
:1048D000080003F0FF04002B40F0058157F8383042
:1048E0001B0C99B222F8081C002B00F0F380A24B9D
:1048F00022F8064C42F8044C53F82620002A00F017
:104900006E819E4D55F8263058609D4C45F8260026
:1049100034F81630194424F8161000F059FC002819
:1049200000F05681974A984B19F0080F00F10800E3
:1049300018BF1346C9F8040047F8383008238BF82D
:1049400000309BF80040E4B261071DD58F4B1B7807
:10495000BBB18F490A7802F0FF032AB1013BDBB2F9
:104960000B70002B00F0B4838A490A7802F0FF0331
:104970002AB1013BDBB20B70002B00F0F88000F095
:10498000DFFC04238BF8003004F0080303F0FF027F
:10499000002B00F0D5809AF80030DBB21E098BD1D5
:1049A0009C08DFF8D09159F8342009EBC401C2F318
:1049B0008302013A49680C2A7DD8DFE802F0808042
:1049C0007C7C7C7C7C7C447C7C7C07000868724D11
:1049D0006C4F4A68714B49F8347081B2704E6A600E
:1049E00040F2816400222860A1424FF00100C9F822
:1049F000102001931A60C9F81820307000F2F3807B
:104A0000B1F5D06F80F03383B1F5817F00F0CE82B5
:104A100000F24C81802900F02482822940F08D82AE
:104A2000A98801F07F01052900F287825D4F5E4C65
:104A300089000F44227062703A78970740F1328300
:104A40002070022011E2554B01931A684AB3574B6C
:104A50005749534E18880C7837784028054684F01B
:104A6000010E28BF402544F00204002F81F800E029
:104A7000A0EB050009EBC40E0CBF8821C82180B251
:104A800087F0010741EA0541CEF80420188037700D
:104A90002A4449F8341010B9402D18BF0022019B58
:104AA0001A603D4B1A88B2F5A06F04D100219A78A4
:104AB0005970404B1A70404A012313703EE7364A42
:104AC000158842F22100854200F05A812D4A49F8AA
:104AD0003420F0E72B4A2C4B19F0080F18BF13466F
:104AE00047F838302AE700F093FB344A344952F84B
:104AF0002630002B00F0348158688C5D42F8260087
:104B000003F10802C9F80420032C05D8DFE804F0FB
:104B1000120F150204228A551A8819F0080F0CBFCB
:104B20008823C82343EA024347F8383006E70222C5
:104B30008A55F1E703228A55EEE705228A55EBE70D
:104B4000E00700F15781210600F18181A20706D517
:104B50001C4A1D4913780220DBB213700870E3066B
:104B600002D5194B10221A7007B0BDE8F08F00F083
:104B700065FF04E70080FF1F849EFF1F2C9EFF1F20
:104B8000F09FFF1FC800400088004000189FFF1FD3
:104B9000999EFF1F849FFF1F049FFF1F289EFF1FDA
:104BA000989EFF1FC0200740109FFF1F409EFF1FC1
:104BB0000C9FFF1F9820074094200740DC9EFF1F9A
:104BC0001C9FFF1F8820074080200740902007403F
:104BD000B64A47F83800137801331370AEE643F84D
:104BE0002600B34D91E642F22104A14200F0B480C8
:104BF00000F2ED80B1F5086F00F05381B1F5106F50
:104C000040F09B81AB4AA9781170AB4D042402E0BF
:104C10000134182C0CD059F834301A06F8D505EBAD
:104C2000C40301345868083800F0F2FA182CF2D1A5
:104C3000A249A34BA34A0291A3499D4DA34C0596BB
:104C4000039504944FF000080E4615461C46206854
:104C500028B1476800F0DCFA3846002FF9D100236C
:104C60002360039B28681A46002342F8283028B1A5
:104C7000476800F0CDFA3846002FF9D100222A60AB
:104C8000029A33781146002241F8042B049A0291CB
:104C9000023B4FF0000122F81810032B00F29A811A
:104CA000DFE813F0C7019501C701950140F2023218
:104CB000914240F03781A98801F07F01052900F277
:104CC0003C816A88002A40F03881814C89000C447C
:104CD0008046217841F00201217000200290844634
:104CE000864604467B490D7845F0020709EBC70369
:104CF000B8F1000F5C600CBF8824C82444EA0C03A0
:104D000085F0010449F8373032700C706A4F724BED
:104D1000DFF8C0C1002840F01781BEF1400F1BD161
:104D200044F0020409EBC403029FDFF88CE15F60EA
:104D3000002A40F01E81020442F0880286F80080BA
:104D40000D7007444EF834203B46402804D1002023
:104D5000624A019910800B60614A01231370AAE630
:104D60008B5D032B00F21B8101A252F823F000BFE0
:104D70003D4900003D490000434E0000494E0000FF
:104D8000928862B9574ACD1D11F8013B02F8013FE4
:104D90008D42F9D1544A1268862A00F0BF804D49ED
:104DA0004D4E0878327840F0020580F0010008701E
:104DB00009EBC501002A4FF00000486082F00102B3
:104DC0000CBF8821C82149F8351032707EE642F2C6
:104DD0002124A14240F0AD80A988002940F06081E3
:104DE000424F434A434C3F68AD78176080460A46BD
:104DF000257072E73A49304B3F48364EDFF8D0C055
:104E00003E4DDFF810E13E4F02240C703D4C18601F
:104E10005C6098603C48D8601A619A610D233270DA
:104E20003A4C8CF800303A4EFF232B7001209F251E
:104E30008EF800303A7033702570087007B0BDE806
:104E4000F08F00238B5579E501238B5576E52049BA
:104E5000304B80220D2008701A70A2077FF57FAEBC
:104E600076E62D4C022022706270EA88824280F041
:104E7000308118490D78402A45F00207964609EB23
:104E8000C70028BF4FF0400E04EB0E0344600293AE
:104E9000CEEB02004FEA0E4C4FF001080022C8246E
:104EA0002CE7044A1C4C12782270DEE70D9FFF1F8E
:104EB0002C9EFF1F189FFF1F0080FF1FF09EFF1FEB
:104EC000849EFF1FDC9EFF1F1C9FFF1FF09FFF1F84
:104ED000C02007400C9FFF1F989EFF1F409EFF1F92
:104EE0009420074027A1FF1F28A1FF1F249EFF1F1A
:104EF00030A1FF1F949FFF1F8800400088200740BB
:104F000098200740449EFF1F9C9EFF1F842007405F
:104F10008C20074080200740109FFF1F754A0F21FB
:104F200011703CE7B1F5A06F07D100224FF00108E6
:104F3000D3E642F221329142F7D06F4B0F221A7022
:104F40006E4A01231370B6E540287FF6E9AE44F0BF
:104F5000020407EBC401029E4E60AAB183F80080F0
:104F6000674A8CF8005033464038403347F83420C5
:104F7000EEE6029B86F80080020442F0C8020D7043
:104F800003444EF83420E0E683F80080029B5D4A3B
:104F90008CF800504038403347F83420D8E619F0F8
:104FA000080F0CBF022303238B55C7E4A98801F027
:104FB0007F010529C1D86A88002ABED14E4C8900DC
:104FC0000C448046217821F00201217085E64FF0E3
:104FD0000103337008F10108B8F1050F04F104046E
:104FE00005F1040506F101067FF431AE464B059E3E
:104FF000464D474F002119704FF0010817F8013B4B
:1050000005F8043B1B0718D44FEA880444F0020259
:1050100044F00304002349F8323049F834303D4B62
:105020009D4208F10108E9D196F8008088F001025C
:1050300053E64FF000033370CCE700F0C9F80028C6
:105040003CD009EB48134FEA8804083058602D4BD8
:1050500049F8343000F0BCF830B344F0010309EBF8
:10506000C30208305060264A49F83320CEE72A4A66
:105070005468002C3FF461AF6888AF8804E00C32BC
:105080005468002C3FF459AF13888342F7D15388FA
:10509000BB42F4D1000A03280CBF20781089E4E653
:1050A00080461AE60220E0E6174B44F001021B7826
:1050B00049F83200144A01331370A7E7124B124A21
:1050C0001B784FEA8804013349F834001370C1E7B4
:1050D00000BE4028864628BF4FF0400E04EB0E036A
:1050E000CEEB00004FEA0E4C029300224FF0010875
:1050F000F8E500BF999EFF1FC0200740942007409D
:10510000C8004000880040000D9FFF1FC4200740DA
:10511000C8820000D8200740D08200002DE9F0416D
:1051200000F03AFF00231F491A4601EBC30041F883
:1051300033200133182B42604FF000041948F4D19A
:10514000194A1A4F13681A491A4D1B4EDFF874C0DA
:10515000DFF874E0DFF8748043F480231360C0F359
:1051600007233B70C0F307430B70000EFF2302F5CB
:1051700028322870D4328CF80030104D8EF8003070
:105180000F483370012388F80030702681F85040B2
:105190004FF40074102107F8183C2E700460117051
:1051A000BDE8F0810080FF1F348004409C20074050
:1051B000B0200740B42007401020074049E400E039
:1051C00008E100E080200740882007409420074045
:1051D00072B60D480268B2FA82F31D2B10DC4FF054
:1051E0000041D94022EA0102026062B6074803EB9F
:1051F000C303DB00C2180021C15010465160704744
:1052000062B60020704700BF3092FF1FBC83FF1FB3
:105210000D4B0E4AC31AA2FB03231B091D2B0CD8EE
:105220000B4A127852B972B60A484FF00041026830
:1052300021FA03F31A43026062B67047064A1278F5
:10524000002AF0D0FFF7ACBABC83FF1F398EE338D9
:105250000D9FFF1F3092FF1F189FFF1F38B50E4B89
:105260000E4C1B68218805468BB1B1F5917F05D2A4
:105270000B4A4B1C55549BB2238038BD0022084872
:1052800098470021064A55540123238038BDB1F5C3
:10529000917FEDD338BD00BF489FFF1FFE9FFF1FCA
:1052A00004A0FF1F2DE9F843214E224F316801234E
:1052B00080463B70B1B1204D4B8801EB8302013336
:1052C00000240F2BC2F808802C7004D84B800023D8
:1052D0003B70BDE8F88340230B800420FFF7A2FA5F
:1052E0003460F4E7DFF8549099F80030002BF0D0E8
:1052F000114D45F6215408E0013C12D02B7883B9BA
:1053000000F03EFD99F800307BB10420FFF732FA3F
:105310000528F1D8FFF75CFF014630600028EBD08C
:10532000CAE701232B70BDE8F883BDE8F88300BF0E
:10533000649FFF1F389FFF1F689FFF1F189FFF1F5D
:1053400070B50A4C257845B9094E316801232370A0
:1053500009B14B8813B90023237070BD9B000B80EB
:105360000420FFF75FFA3560F5E700BF389FFF1FA5
:10537000649FFF1F2DE9F041AD4E33680746002BB7
:1053800000F092801D885A88910803EB8101043255
:10539000AA428C6842D25A8004F00F064FEA1428C1
:1053A000A449A6F1080208F00F00C4F30313062A6B
:1053B00000F101050B701AD9B31E012B5FFA88F0BA
:1053C0004ED9052E48D0042E00F0A481731F022B65
:1053D0007FD90F2E0ED1F72842D8F02802D0964B55
:1053E0001B883BB1FFF73AFF0020BDE8F08127B1F1
:1053F000BD4202D00020BDE8F081082EC4F3033383
:1054000000F08780092E11D00A2E40F094800A2BDC
:10541000F0D18A4B8A4A1B68A02181E01846FFF729
:10542000F7FE0520FFF788F93060B5E7092BE1D1D9
:10543000270E00F07B81834B814A1B689021C4F3C7
:1054400007461170EDB2FCB2002B00F09D802246A1
:1054500031462846984797E0F02843D9F72841D0AD
:10546000F1380E28C6D801A353F820F023560000C7
:1054700007560000F5550000F5530000F5530000F5
:10548000E7550000F5530000C7560000F553000033
:1054900091560000AB560000CF550000F5530000B8
:1054A000B75500009B550000674B1B78002BA1D01F
:1054B0000520FFF741F90346306000289AD005889F
:1054C000002D7FF460AFFFF7A3FE35602846BDE8EE
:1054D000F081FFF7C3FEC4F30740FFF7BFFE072EBE
:1054E00002D1200EFFF7BAFE534B584A198858488C
:1054F0001468584D524A017000270E0AF0201F8090
:105500002E7010700CB301225348A0470120BDE853
:10551000F081082B7FF46EAF504B494A1B68802105
:10552000C4F307461170EDB2240E6BB32846224631
:105530003146984728E00B2E11D10B2B7FF45AAF40
:10554000474B3F4A1B68B021EAE7464B1B68002BDC
:1055500000F0FB80404898470120BDE8F0810C2E08
:1055600040F000810C2B7FF445AF3F4B344A1B6861
:10557000C0211170EDB2C4F30746002B00F0C880C3
:1055800028463146240E98473849314A314B0D7030
:1055900016701C700120BDE8F081354B1B68002B94
:1055A00000F0D6809847C4F30746254BEDB2240E91
:1055B00083F80080E8E72F4B1B68002BF2D12E4BBD
:1055C0001B68A3B1FE209847C4F30746EDE72B4BB9
:1055D0001B68002BE6D1284B1B6843B1FC20984781
:1055E000C4F30746E1E7264B1B68002BDAD1C4F36E
:1055F0000746DAE7234B1B68C4F30746002BD4D0D9
:1056000030469847D1E7204B1A68002AEFD0260C85
:10561000630C06F07F0003F47E531843F6B2904704
:10562000C3E71A4B1B68C4F30746002BE8D1BCE75D
:10563000709FFF1F02A0FF1FFE9FFF1F4C9FFF1FB9
:10564000FC9FFF1F809FFF1F189FFF1F489FFF1F8A
:1056500000A0FF1F01A0FF1F04A0FF1F789FFF1FD6
:105660007C9FFF1F609FFF1F3C9FFF1F03A0FF1F2A
:10567000289FFF1F2C9FFF1F309FFF1F6C9FFF1F46
:105680005C9FFF1F749FFF1F449FFF1F589FFF1FBA
:105690003F4B1B68002B85D13E4B1B68002BA6D0CF
:1056A000FA209847C4F307467FE73B4B1B68002B63
:1056B0007FF478AF374B1B68002B98D0FB209847BE
:1056C000C4F3074671E7354B1B68002B7FF46AAFC4
:1056D000304B1B68002B8AD0F8209847C4F307464C
:1056E00063E70E2B7FF486AE2D4A2E4B1268E02125
:1056F0001970002A47D0260C610C06F07F0301F4D4
:105700007E511943EDB2A1F5005128469047F6B2FB
:10571000240E39E7FFF7A2FDC4F30740FFF79EFD13
:10572000200EFFF79BFD0020BDE8F0811E4B1D4AB7
:105730001B6880211170EDB2C4F3074683B1314676
:1057400028463A4698473C461EE70120BDE8F081CE
:10575000104B1B68002B3FF44AAFFF20984746E7E9
:105760001C4611E70D2EBCD10D2B7FF443AE0F4B21
:105770000C4A1B68D0211170EDB2C4F30746002B10
:105780007FF4FEAEC4E7C4F30746EDB2240EFBE699
:10579000549FFF1F309FFF1F349FFF1F249FFF1F39
:1057A000409FFF1FFC9FFF1F789FFF1F509FFF1F01
:1057B00038B50F4D286878B143880288C118013385
:1057C00093420C7A02D24380204638BDFFF720FD79
:1057D000002320462B6038BD064B1B782BB10220DE
:1057E000FEF7AAFF28600028E6D14FF0FF3038BD51
:1057F000909FFF1F189FFF1F10B5094C206818B11C
:1058000043881844007A10BD064B1B782BB1022048
:10581000FEF792FF20600028F2D14FF0FF3010BD5C
:10582000909FFF1F189FFF1F044B054A1B6850885D
:105830001BB11A885B88D31A18447047909FFF1FCA
:10584000F09FFF1F0B4B1B789BB110B50A4C2068D3
:1058500048B1FFF7DDFC002302202360FEF76CFF58
:1058600030B1FFF7D5FC0220FEF766FF0028F8D123
:1058700010BD7047189FFF1F909FFF1F2DE9F04F2D
:10588000DFF8F89083B0012289F80020019169B314
:10589000DFF8EC80364F019E8346D8F80000B0B3A5
:1058A000344D4488C4F14001B14228BF314604EB75
:1058B000010E00221FFA8EFE2A70761AA0F802E06E
:1058C00000F1080251B1013C224459441BF8014B3C
:1058D00002F8014F8B45F9D1B0F802E0BEF13F0F5D
:1058E0000BD8254A05211170002ED6D1019800232E
:1058F00089F8003003B0BDE8F08F402202800146F5
:105900000320FEF78FFF0022C8F80020E9E73A786D
:105910002AB3184D4AF2F9244FF0010A07E0013C7E
:1059200016D02A78A2B900F02BFA3A78BAB103203F
:10593000FEF720FF0728F2D889F800A0FFF748FCFF
:10594000C8F800000028ACD10C4B013C1870E8D11D
:1059500001234FF0FF302B7003B0BDE8F08F002320
:105960004FF0FF3089F8003003B0BDE8F08F00BF82
:10597000189FFF1F8C9FFF1F849FFF1F859FFF1F86
:10598000889FFF1F00B583B002AB012103F8010D12
:105990001846FFF773FF03B05DF804FB38B50E4DF2
:1059A0000E4C28680123237028B1408800232370FF
:1059B000C0F1400038BD0A4B1B7813B9002020709D
:1059C00038BD0320FEF7D6FE0728F7D8FFF700FC06
:1059D00028600028E9D1F1E7889FFF1F859FFF1FFE
:1059E000189FFF1FF8B5114B1B788BB1104E114D4E
:1059F000346801272F7064B10F4A6388002717703D
:105A0000214623800320FEF70DFF376000232B7013
:105A1000F8BDFFF7DDFB084B28B1014603201C70E1
:105A2000FEF700FFF2E71F70F0E700BF189FFF1FAF
:105A3000889FFF1F859FFF1F849FFF1F38B50E4B58
:105A40001B7873B90D4C216861B103F0FF054B88D9
:105A50000B800320FEF7E6FE256038BD084B0122CF
:105A60001A7038BDFFF7B4FB0028F7D00146BDE837
:105A700038400320FEF7D6BE859FFF1F889FFF1F7B
:105A8000849FFF1F70B5EFF3108272B60C4C206834
:105A900080B10C4E00254369236073B19D6102B94A
:105AA00062B6457783689847EFF3108272B6206834
:105AB0000028F0D102B962B670BD3360EFE700BFD5
:105AC000989FFF1F9C9FFF1FFFF7DCBF024A1368D0
:105AD00001331360704700BF249EFF1F30B504469A
