:1000000000800020BD010000851C0000411C000094
:10001000411C0000411C0000411C0000411C00006C
:10002000411C0000411C0000411C0000851C000018
:10003000851C0000411C0000C1190000C51900000A
:10004000851C0000851C0000851C0000851C00002C
:10005000851C0000851C0000851C0000851C00001C
:10006000851C0000851C0000851C0000851C00000C
:10007000851C0000851C0000851C0000851C0000FC
:10008000851C0000851C0000851C0000851C0000EC
:10009000851C0000851C0000851C0000851C0000DC
:1000A0006D0D0000790D0000851C0000851C00000E
:1000B000851C0000851C0000851C0000851C0000BC
:1000C000851C0000851C0000851C0000851C0000AC
:1000D000851C0000851C0000851C0000851C00009C
:1000E000851C0000851C0000851C0000851C00008C
:1000F000851C0000851C0000851C0000851C00007C
:10010000851C0000851C0000851C0000851C00006B
:10011000851C0000851C0000851C0000851C00005B
:10012000851C0000851C0000851C0000851C00004B
:10013000851C0000851C0000851C0000851C00003B
:10014000851C0000851C0000851C0000851C00002B
:10015000851C0000851C0000851C0000851C00001B
:10016000851C000031220000851C0000851C000059
:10017000851C0000851C0000851C0000851C0000FB
:10018000851C0000851C0000851C0000851C0000EB
:10019000851C0000851C0000851C0000851C0000DB
:1001A000851C0000851C0000851C0000851C0000CB
:1001B000851C0000851C0000851C0000574B4CF27C
:1001C000205210B5DA814DF62812DA8100BF00BF47
:1001D00001F05CFD524B4FF010621A63514A9A6372
:1001E000514ADA63514A136913F4807303D153619E
:1001F0004FF4A85313614E4B9A78110703D59A78A0
:1002000042F008029A704B4B4B482A221A704B4B13
:10021000DA1C121AC11E22F00302994288BF002282
:10022000474901F039FC474B4748DA1C121AC11EF6
:1002300022F00302994288BF0022002103F04CFC07
:10024000424943484FF4DE7201F026FC414B424ADA
:10025000802103F8011B9342FBD14FF0E0233C4A7D
:10026000C3F8082D3D4B8A221A70A3F5805324222F
:100270005A70A0221A709A799207FCD59A79D406FE
:10028000FCD4374B9A7902F00C02082AFAD10322E7
:100290001A7140225A719A799006FCD5304A9379A6
:1002A0005906FCD51E4B2F4959640221996420211F
:1002B0001170917901F00C010C29FAD12A4A5A6087
:1002C0004FF0E023294A5A6100229A6107221A61FD
:1002D000274AC3F8202D62B601F0EEFD134B5B698F
:1002E000DA0705D5234801F0DBFD234B234ADA6109
:1002F000234B1B785B0609D51F4C204BE2699A42C1
:1003000004D11C4801F0CCFD0023E36101F0C4FCE2
:1003100003F04CFC01F0B8FBFEE700BF00200540F5
:1003200000800440823F04000100002B00D0034005
:1003300000D0074000E00740308CFF1F5896FF1F99
:1003400028420000549CFF1F5896FF1F0000000029
:100350000082FF1F00E400E05FE400E00050064080
:100360000040064000000301C0100500FF760100B8
:10037000000020200E7F0D6600E00340A5C3945AC4
:1003800000F00740FFFFFFFFFFFFFFFFFFFFFFFF42
:10039000FFFFFFFFFFFFFFFFFFFFFFFFFFFFFFFF6D
:1003A000FFFFFFFFFFFFFFFFFFFFFFFFFFFFFFFF5D
:1003B000FFFFFFFFFFFFFFFFFFFFFFFFFFFFFFFF4D
:1003C000FFFFFFFFFFFFFFFFFFFFFFFFFFFFFFFF3D
:1003D000FFFFFFFFFFFFFFFFFFFFFFFFFFFFFFFF2D
:1003E000FFFFFFFFFFFFFFFFFFFFFFFFFFFFFFFF1D
:1003F000FFFFFFFFFFFFFFFFFFFFFFFFFFFFFFFF0D
:10040000FFFFFFFFFFFFFFFFFFFFFFFFDEF9FFFF23
:100410000548064B1B1AD90F01EBA301491002D066
:10042000034B03B1184770475896FF1F5896FF1F9C
:100430000000000008B5054B1BB105490548AFF3A6
:100440000080BDE80840FFF7E3BF00BF00000000E8
:100450005896FF1F284200002DE9F047364F3B78A1
:1004600082B093BB01210D2001F09EFD01210D20E2
:1004700001F074FD3B7803BB062300932F4A3048FC
:100480000C235A2100F0E0FC3B7890B9002B4BD1B3
:1004900001210D2001F062FD4FF4FA7001F0C0FD62
:1004A00000210D2001F05AFD4FF4FA7001F0B8FD63
:1004B000EEE77BBB02B0BDE8F0872C21214802F0BB
:1004C00023FE214801F0C8FAD6E7204D204C2E68C3
:1004D000DFF88080DFF880A040F2EE2904E0B3F579
:1004E000FA6FBFD802F016FF02F014FF23784BB169
:1004F00098F80030DB0705D52B68DAF800209B1A46
:100500000E2BAFD82B6822789B1B002AE7D14B45D6
:10051000E8D9A7E70D21114802F0F6FD0A4802B01C
:10052000BDE8F04701F098BA1F210D4802F0ECFD3C
:10053000054801F091FAABE77696FF1FA08DFF1FEB
:100540007096FF1F783F0000FC8FFF1F9096FF1FE3
:100550008197FF1F2C99FF1F3099FF1FC83F000094
:10056000A83F00002DE9F04739483A4F3A4D3B4E3D
:10057000DFF8EC80DFF8ECA0DFF8EC9000F006FC90
:100580000024388022E033882341DA0718D598F810
:100590000030002B4ED10921344802F0B5FD34481B
:1005A00001F05AFA0D20002101F0D8FC287800044F
:1005B00000F4FE0040F4004040F0080002F0B4FAFD
:1005C000388801340C2C05F1020528D040FA04F3D8
:1005D000D907D8D53388234113F00103F1D198F816
:1005E000002072BB0821504602F08EFD204801F029
:1005F00033FA01210D2001F0B1FC2878000400F449
:10060000FE0040EA090002F08FFA388840FA04F34D
:10061000DB07B8D501340C2C05F10205D6D13080AA
:10062000002002F0EDFA0028FAD1BDE8F0470A20D8
:1006300001F0F6BC00230A2221460D4801F01AFA07
:10064000A9E70A2221460A4801F014FACAE700BFC6
:100650007096FF1F7496FF1F5C8DFF1F7896FF1F1B
:100660007696FF1FD83F000009900064E43F000029
:10067000FC8FFF1F014800F085BB00BF7096FF1F75
:100680000020704790F8612090F86000101A7047C1
:1006900090F8603090F861209A4205D95A1C0344C2
:1006A00080F86020187E70474FF0FF30704700BF21
:1006B00090F8603090F861209A4286BFC018007EA2
:1006C0004FF0FF30704700BF704700BFB0F8AE304A
:1006D0002BB190F8AD30482B03D9012343600020A3
:1006E0007047C218013380F8AD30012082F86310E2
:1006F000704700BF38B5B0F8AE40A4B190F8AD3047
:10070000C3F14904A24284BF01224260054698BF5A
:10071000144663301844224601F0BEF995F8AD3016
:10072000234485F8AD30204638BD00BF70B5164C67
:100730002369DB7813F0200514D094F8B03001332E
:10074000DBB2012B84F8B03002D894F8AF3043B953
:10075000636994F8B1201344BDE87040187A01F041
:100760005BBB70BD636994F8B1201344187A01F043
:1007700053FBD4F8B830002BF3D094F8610084F820
:100780006050BDE8704018475C8EFF1F70B5164C76
:100790002369DB7813F0200514D094F8B0300133CE
:1007A000DBB2012B84F8B03002D894F8AF3043B9F3
:1007B000636994F8B1201344BDE87040187A01F0E1
:1007C0002BBB70BD636994F8B1201344187A01F013
:1007D00023FBD4F8B830002BF3D094F8610084F8F0
:1007E0006050BDE870401847A08DFF1F426900238C
:1007F000A0F86030C0F8AC3010B4D2E900140A6838
:10080000C0F8B43022430469C0F8B8300A60A3705D
:10081000426990F8B1301849134493F808C05B7BE3
:1008200001EBCC0C1B02DCF8044003F4E06343F062
:100830006403236090F8B23013449C7CDB7D01EBB1
:10084000C4011B024C68116803F4E06343F06403C5
:10085000236009685368194205D0036927225A703A
:10086000036904229A71036920225A710369802264
:100870009A7010BC704700BF6C40000010B503694F
:10088000D978CAB2C906044622D510215006D970BB
:100890001DD512F0040250D03D49D4F8B4200023F5
:1008A0000B7084F8AD30002A5BD0904794F8AD30DF
:1008B000002B56D02369D0229A70236994F86320C4
:1008C0001A712369012284F8AC200222DA7010BD6B
:1008D0005106DED4997811F0100117D12D4A80F815
:1008E000B01090424FD02C4A904241D094F8611001
:1008F0001A794729D2B2E8D8254800780028E4D0F0
:10090000481C214484F861000A76DEE712F00102F7
:1009100020D190F8AC1090F8AD00884281BF4A1CFD
:10092000091984F8AC2091F863201A712369D02248
:100930009A7023690222DA70C9E7236984F861207A
:10094000C0219970124A236901211170022218797D
:10095000DA70BCE7C0229A7003691A790222DA7051
:10096000B5E70122002384F8AD2084F86330A1E7C5
:10097000436990F8B120094913440322187A01F021
:10098000D7F92369B2E7436990F8B1200449F3E746
:100990007A96FF1FA08DFF1F5C8EFF1F2D070000A2
:1009A0008D0700002DE9F047374C0269236882B0BB
:1009B0000093DDF80080D378990618D5334E0546AC
:1009C000002102E0D3789B0611D523680193019B97
:1009D000A3EB08030F2BF5D969B1102BF2D000203F
:1009E00090702B6980229A7002B0BDE8F0870120D8
:1009F00002B0BDE8F08795F8B1206B69134405217A
:100A0000187A01F0D1FA6B6995F8B12013440121ED
:100A100093F812A0504601F0C7FA09274FF0A00939
:100A20000021504601F09AFA4B46013BFDD10121CD
:100A3000504601F093FA4B46013BFDD1013FEFD107
:100A4000696995F8B1300B444FF4A072187A5B7B5A
:100A500006EBC0001B02406803F4E06343F064034C
:100A6000036095F8B2300B44997CDB7D06EBC10145
:100A70001B02496803F4E06343F064030B60013A2E
:100A8000FDD101212A699DE79096FF1F6C4000006F
:100A9000F0B503691222DA700269937813F0200628
:100AA00085B004460D4652D0B42393703249206974
:100AB0000B680093009E05E00A680192019A921B60
:100AC000042A3DD8C37813F02003F5D094F8AD3054
:100AD0006BB34FF0000CE646022604EB0E0393F8CE
:100AE000633003710B680293029F206907E092064E
:100AF0000AD50A680392039AD21B052A20D8C37824
:100B0000DAB213F00203F2D0C6702369DA78D7B2F2
:100B1000D206184626D4BA0624D5FA0726D494F865
:100B2000AD300CF1010C5FFA8CFE7345D5D8002076
:100B300015B1236980229A70002384F8AE3004E056
:100B40008370236980229A70042005B0F0BDFFF7FE
:100B500029FF28B1236984F8AF60B0229A70A5E715
:100B60000420F2E780229A700420E1E7BEF1000F32
:100B70000CBF02200320DDE79096FF1F2DE9F04710
:100B80009046994600220369A0F860201222DA708C
:100B900003699C7814F0200588B007468A4600F067
:100BA0009F80B4229A70704E3B6932680092009A1E
:100BB00008E030680190019CA4EB020CBCF1040F2A
:100BC00000F28680DC7814F02005F2D04FEA4A0269
:100BD00042F00102D2B21A713368029302983A6964
:100BE00006E0336803930399091A052900F282800D
:100BF000D47814F00205F4D04FF0020C82F803C050
:100C00003B69DC7814F011057CD1B8F1000F00F0DD
:100C10008480B8F1010F00F08D80A0229A703969AC
:100C20000B794FF0A80E33680493049805E03268FE
:100C30000592059A121A052A68D8CB7813F0020398
:100C4000F5D081F803C03969CB78DCB2DB06084601
:100C50000A4641D4A4063FD508F1FF385FFA88F868
:100C6000B8F1010F04D181F802E0396908460A465B
:100C7000472D59D90379B8F1010FD4D133680693C0
:100C8000069805E0316807910799091A052956D891
:100C9000D37813F00203F5D00223D3703A69D378E6
:100CA000D806D9B255D48B0616D5B023472D9370EC
:100CB0004CD83A697C19127922766B1CDDB2B9F1F5
:100CC000000F02D03B6980229A7087F8615003E0E0
:100CD0009D703B6980229A70284608B0BDE8F08775
:100CE000FFF760FE0028F7D03B6987F8AF50B022CD
:100CF0009A7058E795703B69802228469A7008B030
:100D0000BDE8F08780229A700025E5E78B703B698B
:100D100080229A7087F86150DEE7B9F1000F14BFA6
:100D20008022A0229A70D7E77B19007918766C1C74
:100D3000E5B2A0E7A8229A703A6913799EE793700A
:100D40003B6980229A7087F86150C5E73B691B793F
:100D5000B5E71021A023D170013BFDD13A6993780A
:100D600003F0F7039370B7E79096FF1F0148FFF772
:100D700085BD00BFA08DFF1F0148FFF77FBD00BFED
:100D80005C8EFF1F00220260704700BF00B589B073
:100D900001680022012002230190009202A800F0C5
:100DA000F1F802A800F0C8F9C0F30B0009B05DF833
:100DB00004FB00BF2DE9F0438FB001274FF000087E
:100DC0000197CDF800800C463B4601680546164663
:100DD00002A85E2200F0D6F802A800F0ADF95E2C61
:100DE00003D0A4F17303072B10D80123224600245B
:100DF00029680193009408A800F0C4F822463146FF
:100E000008A800F019F90FB0BDE8F083814642460A
:100E1000414602A800F010F9296801973B46224696
:100E2000CDF8008008A800F0ADF84246314608A889
:100E300000F002F942465FFA89F102A800F0FCF8DE
:100E40000FB0BDE8F08300BF2DE9F043054689B03F
:100E500000689DF840800E4691461F4610B1102153
:100E600000F034FF102000F02FFF314604464A46C0
:100E700000F084F92C600121204600F089F9064633
:100E800020B90026304609B0BDE8F08363228021F6
:100E90002846FFF78FFF012001F0C2F800225E21F3
:100EA0002846FFF787FF012300220193009229685B
:100EB0005D2202A800F066F802A800F03DF9C0B279
:100EC0002428DED1412421463A462846FFF772FF06
:100ED000611C02344246C9B22846E4B2FFF76AFFF9
:100EE000592CF0D1284601222B21FFF763FF284619
:100EF00001222C21FFF75EFF28460E222D21FFF74D
:100F000059FF284600222E21FFF754FF28460122D0
:100F10002F21FFF74FFF284605223021FFF74AFF18
:100F2000284601223121FFF745FF284600223221C1
:100F3000FFF740FF284600223321FFF73BFF2846FA
:100F400000223421FFF736FF284600223521FFF723
:100F500031FF284600225B21FFF72CFF2846102294
:100F60005C21FFF727FF284620225D21FFF722FFA3
:100F700028468C225E21FFF71DFF304609B0BDE8F0
:100F8000F08300BF03730023428143619DF8042076
:100F900043609DF80030016042738373704700BF67
:100FA00070B5B0F80AC084B003460068ADF80CC054
:100FB00040B15C7B03ABCDE90034012300F004F9C0
:100FC00004B070BD58680028FAD01E7A032E5FFA6C
:100FD0008CF521D00C46964676B1022E11D165F0E3
:100FE0007F058DF80C505B7B0093724603AB214666
:100FF00000F008FB04B070BD05F07F058DF80C50C3
:10100000F1E7012EEFD19DF80C2002F07F0242F0B3
:1010100040028DF80C20E6E75B7B8DF80D50013324
:101020004FEA1C2C2CF0010C009303AB8DF80CC084
:1010300000F0E8FAC4E700BF30B50B465AB9047BAC
:10104000042C26D8416154B900F10F012246BDE8B5
:101050003040FFF7A5BF042A14461AD84361857BA8
:1010600000F10F0104F10E0C50FA8CFC8E4600F1D9
:101070000E025DB98EF800300CF1FF3C94454FEA4A
:1010800013230EF1010EE1D0002DF3D08CF80030C7
:10109000F2E7002030BD00BF10B5844684B040891F
:1010A000ADF80C0014464FEA102EC2B2DCF8000076
:1010B0000B4648B100219CF80D200191009403A932
:1010C00000F0F2F804B010BDDCF804000028F9D0FC
:1010D0009CF8081003291ED079B1022912D102F020
:1010E0007F028DF80C20FF219CF80D2001910094C7
:1010F00003A900F0DDFA04B010BD62F07F028DF8A4
:101100000C20F0E70129EED19DF80C2062F03F029F
:101110008DF80C20E7E700948DF80D209CF80D2049
:10112000FF214EF0010E0191013203A98DF80CE070
:1011300000F0BEFAC6E700BF38B500F10F05027B2C
:1011400029460446FFF7A8FFA0B1207B70B10E30FE
:101150002318A27B29460E34002000023AB91D78DC
:101160002843013BA34201F10101F6D138BD0D78BE
:101170002843F6E74FF0FF3038BD00BF4FF0000CBA
:1011800042602022017080F808C0C260704700BF32
:1011900038B5044640680D46FFF728FB012121724F
:1011A0000DB9084638BD227863688A4083F8632009
:1011B00083F8AE1083F8AD106068FFF769FCB0FAF1
:1011C00080F0400938BD00BF2DE9F041DDF81C80FA
:1011D0001F46C368154642449A4218D802784368AD
:1011E000520083F86320012204460E4683F8AE20A5
:1011F00083F8AD20B8F1000F0CD0069B53B14068C6
:101200000699036842465B689847804502D00020F3
:10121000BDE8F0816068036831465B682A469847FC
:101220008542F4D160683946FFF732FCB0FA80F0AD
:101230004009BDE8F08100BF2DE9F8431546064698
:10124000D2B20F4601784068FFF798FC854223D15F
:10125000FDB10024DFF84C90A04612E090F8603019
:1012600090F861209A4203F10101034417D980F8F4
:1012700060101B7E07F808300134A4B2A542A046D6
:1012800007D9706803685B694B45E7D09847C3B2DC
:10129000F0E70120BDE8F8830020BDE8F883FF23D4
:1012A000E8E700BF910600002DE9F0411F46C36842
:1012B000069E9DF81C809A4211D8054600786B68FE
:1012C000400083F86300012083F8AE0083F8AD008E
:1012D000686803685B6814469847844202D000201F
:1012E000BDE8F08168684146FFF7D2FB044600285C
:1012F000F5D196B1EB68321B9A4228BF1A46B31A51
:10130000A3428CBF00230123391928461444FFF758
:1013100093FF0028E3D0A642ECD80120BDE8F0817D
:101320002DE9F04F037B91F800E0002B0CBF012763
:1013300080271EEA070F804B0D4608BF01268168F3
:10134000B3FBF1F318BF0026002A00F0F280DCB2F4
:10135000013A5B0103F4FF5105EB02083B464FF0F5
:10136000000C002C62D0002900F0A9800A46013A46
:10137000FDD1427B12F0F70F40F0C28090F91020AF
:10138000B2F1FF3F00F0CA801EEA030914BF012238
:101390000022B2420ED0B9F1000F00F0A580D0F8C3
:1013A000149090F824A099F8002042EA0A0201263D
:1013B00089F80020D0F8189090F826A099F800201D
:1013C00042EA0A0289F800201CB111B10A46013A2A
:1013D000FDD190F91120013208D0C26990F8259012
:1013E000127812EA090F18BF43EA0C0CD0F81890D3
:1013F00090F826A099F8002022EA0A0289F8002035
:1014000090F91120013201D085F800C0027B4AB961
:101410005B00DBB2002BA4D1A84500F08A8015F850
:1014200001EF9BE75B08002B9BD1F5E7427B12F0B5
:10143000F70F0FD190F91020B2F1FF3FA4D1D0F8EF
:10144000189090F826A099F8002042EA0A0289F83C
:101450000020BEE7D0F8189090F826A099F8002058
:1014600042EA0A0289F8002090F9102001320ED0D9
:10147000D0F8149090F824A099F800201EEA030FE9
:1014800014BF42EA0A0222EA0A0289F80020D0F8D0
:10149000189090F826A099F8002022EA0A0289F80C
:1014A000002090F911200132B0D0C26990F8259047
:1014B000127812EA090F18BF43EA0C0CA4E7427B2A
:1014C00012F0F70FC6D190F91020B2F1FF3F7FF470
:1014D0005BAFD0F8189090F826A099F8002042EA67
:1014E0000A0289F8002074E7D0F814A090F824B01C
:1014F0009AF8002022EA0B024E468AF8002059E7AB
:10150000D0F8189090F826A099F8002042EA0A0234
:1015100089F800200A46013AFDD1A5E7D0F81890D5
:1015200090F826A099F8002042EA0A0289F80020E3
:101530004CE7BDE8F08F00BF20A107000368002B37
:1015400036D030B44268D97A126819B372B6D97AF3
:10155000CC0708D54FF0E024DD68D4F8800128409E
:101560009861C4F88001880708D54FF0E0241D6910
:10157000D4F884012840D861C4F88401490708D50B
:101580004FF0E0205C69D0F8881121401962C0F862
:10159000881162B61B68D968914207D0054C06498C
:1015A0001C6042F08040DA601861196030BC7047FE
:1015B000704700BF01403F0000003F8010B5044667
:1015C00090F90E00431C03D00121C0B200F0C6FC0C
:1015D0002368B3B1DA7AA2B1D00704D54FF0E02185
:1015E0009869C1F80001910704D54FF0E021D8694E
:1015F000C1F80401520704D54FF0E0221B6AC2F87B
:10160000083110BD2DE9F047044682B01E460A9D00
:101610008A469046FFF792FF94F90E00431C42D190
:10162000D5B1013E06EB05090DF1070503E0FFF713
:1016300077FE4E4510D0276816F8013F8DF8073029
:10164000012229462046002FF1D0134638462A466B
:1016500000F090F94E45EED1B8F1000F1CD0D04407
:101660000AF1FF3608F1FF380DF1070503E0FFF737
:1016700057FEB04510D0276816F8013F8DF80730A7
:10168000012229462046002FF1D0134638462A462B
:1016900000F070F9B045EED12046FFF78FFF012032
:1016A00002B0BDE8F087C0B2002100F057FCB7E7F8
:1016B0002DE9F04F044683B09B46DDF830A09DF83D
:1016C00034800F461546FFF739FF94F90E00431C8E
:1016D00048D1D5B1013F07EB05090DF1070503E03E
:1016E000FFF71EFE4F4510D0266817F8013F8DF812
:1016F0000730012229462046002EF1D013463046FD
:101700002A4600F037F94F45EED1BAF1000F22D04A
:10171000DA440BF1FF360AF1FF3A0DF1070507E055
:10172000FFF7FEFD9DF8073006F8013FB24512D0E5
:1017300027688DF80780012229462046002FEFD028
:10174000134638462A4600F015F99DF8073006F88A
:10175000013FB245ECD12046FFF730FF012003B036
:10176000BDE8F08FC0B2002100F0F8FBB1E700BF88
:10177000844600682DE9F0410C4611461A46C368BC
:1017800013F0807F7A4B03604BD1D30700F1D180F7
:101790009CF82460174646EA0626002F00F0B78022
:1017A00034B12678637846EA032676BA0234B6B2B4
:1017B000DCF8043093F808E0022F0EF1FF3E4FEA08
:1017C0000E3E0CBF46F0805346F010431FFA8EFECB
:1017D0004363023F0AE011B105F8010B2946013AC3
:1017E00003F47043734517D9DCF80000C36A13F0A3
:1017F000F00FF5D012F0010F806B0D46EBD1C0F366
:10180000072819B105F8028B4870294603F4704384
:101810007345A2F10202E7D8002F78D0DCF800006F
:10182000BEE7D3075FD49CF824701646BFB2002EE3
:1018300045D024B1637814F8027B47EA0327DCF82B
:10184000043093F808E0022E0EF1FF3E4FEA0E3E00
:101850000CBF47F0805347F010431FFA8EFE4363DE
:10186000023E0AE011B105F8010B2946013A03F4E2
:101870007043734517D9DCF80000C36A13F0F00F0A
:10188000F5D012F0010F806B0D46EBD129B105F8B0
:10189000020BC0F307204870294603F470437345D8
:1018A000A2F10202E7D856B1DCF80000C1E729B185
:1018B00000F8023BC3F307234B700146023A82B1A2
:1018C000DCF80030D86A10F0F00FF8D0D4079B6B2A
:1018D0000846ECD511B100F8013B0146013A002A57
:1018E000EED1BDE8F08184B314F8013B012A18BFA2
:1018F00043F0004343639CF82470561E96E7C3F3FD
:10190000072419B100F8024B4B700146023A002A35
:10191000E7D0DCF80030D86A10F0F00FF7D0D40729
:101920009B6B0846EBD511B100F8013B0146013A2B
:10193000EDE79CB114F8013B012A18BF43F00043C6
:1019400043639CF82460571E25E79CF82470012A05
:101950001ABF47F0004343634763CEE79CF8246017
:10196000012A1ABF46F0004343634663EBE700BF1A
:1019700000041F800BB1FFF7FBBE704770B5EFF39B
:10198000108272B60C4C206880B10C4E0025436961
:10199000236073B19D6102B962B683684577984749
:1019A000EFF3108272B620680028F0D102B962B657
:1019B00070BD3360EFE700BF8496FF1F8096FF1F66
:1019C000FFF7DCBF024A136801331360704700BFA2
:1019D0009096FF1F70B5012A8AB008BF0A22A1B3F2
:1019E0004FF0210E02E05FFA86FE2946B1FBF2F5C8
:1019F00002FB15145FFA84FC092C0CF1300498BF2B
:101A00005FFA84FC0EF1280488BF0CF1370C6C449B
:101A100088BF5FFA8CFC91420EF1FF3604F824CCAB
:101A2000E1D24BB10EF1FF3E5FFA8EFE0EF12803BC
:101A30006B442D2203F8242C036801A95B68CEF1C6
:101A40002202714498470AB070BD30228DF82520DB
:101A50004FF0210EE5E700BF00B5036883B040F604
:101A60000D22ADF804205B68022201A9984703B05B
:101A70005DF804FB32B9036800B51B685DF804EB40
:101A8000C9B21847FFF7A6BF08B5FEF7E5FCFEF799
:101A900069FD01F03FFCFAE701B441EA000313F0ED
:101AA00003036FD1403A41D351F8043B40F8043B63
:101AB00051F8043B40F8043B51F8043B40F8043B28
:101AC00051F8043B40F8043B51F8043B40F8043B18
:101AD00051F8043B40F8043B51F8043B40F8043B08
:101AE00051F8043B40F8043B51F8043B40F8043BF8
:101AF00051F8043B40F8043B51F8043B40F8043BE8
:101B000051F8043B40F8043B51F8043B40F8043BD7
:101B100051F8043B40F8043B51F8043B40F8043BC7
:101B200051F8043B40F8043B403ABDD2303211D367
:101B300051F8043B40F8043B51F8043B40F8043BA7
:101B400051F8043B40F8043B51F8043B40F8043B97
:101B5000103AEDD20C3205D351F8043B40F8043B67
:101B6000043AF9D204320AD0D2071CBF11F8013B63
:101B700000F8013B03D30B7803704B78437001BC32
:101B8000704700BF0C2A4AD310F0030311D0C3F1F1
:101B90000403D21ADB071CBF11F8013B00F8013B1C
:101BA00007D311F8013B00F8013B11F8013B00F8A5
:101BB000013B11F003033FF475AF30B4043AC91A86
:101BC000C3F1040C51F8044B022B19D0032B0BD09A
:101BD000240A51F8043B1D0644EA050440F8044B6E
:101BE0001C46043AF4D216E0240E51F8043B1D02C0
:101BF00044EA050440F8044B1C46043AF4D20AE0D7
:101C0000240C51F8043B1D0444EA050440F8044B3D
:101C10001C46043AF4D20432B1EB0C0130BC043A55
:101C2000A0D3013A11F8013B00F8013BF9D20B783F
:101C300003704B7843708B78837001BC704700BF92
:101C400008B50F4C636B58030DD4636B59050FD463
:101C5000636B1A0511D4636BDB04F3D500F012F843
:101C6000636B5803F1D500F0E3FA636B5905EFD5C8
:101C700000F008F8636B1A05EDD500F003F8EAE709
:101C80000080044008B5FFF7DBFF00BF014B1022C6
:101C90001A80704700200540704700BF094A08B508
:101CA0000346106833B169460344A1F580518B4265
:101CB00001D2136008BD01F073FF0C2303604FF0E5
:101CC000FF3008BD188FFF1F01F03ABC01F040BC87
:101CD00001F1FF3C70B56546002401E07046013417
:101CE000B0FBF2FE02FB1E03092B03F130068ABF94
:101CF0003733F3B2DBB2904205F8013FEED2631CFA
:101D00000022CA54C8187CB162461CF8015F10F862
:101D100001ED8CF800E0A1EB0C030232013B521AFA
:101D200023449A420570EFDB084670BD704700BF40
:101D3000212835D8042A33D830B42A4B2A4D53F8F9
:101D4000223005EBC0021B045468226812F4E062E2
:101D500039D0264A2648C2F89C012648C2F8A0017C
:101D60002548C2F8A4012548C2F8A8012448C2F8B1
:101D7000AC0104F14042A2F592207C2811D8214800
:101D800072B6226822F4702222601343C4F38402E4
:101D900043F0807340F82210236062B630BC704775
:101DA0007047A2F594207C2815D9A2F596207C28AE
:101DB00013D9A2F598207C2811D9A2F59A227C2A61
:101DC000ECD81148DCE755F8300080F880224FF459
:101DD00080722260BDE70D48D2E70D48D0E70D487C
:101DE000CEE700BF584000006C4000000082FF1F9B
:101DF000018DFF1FCD8CFF1F998CFF1F658CFF1F6E
:101E0000318CFF1F1C8FFF1FF48FFF1F548FFF1F8C
:101E1000A48FFF1FD48FFF1F1A4B03EBC0035A6818
:101E200002F14043A3F592217C2905D9A3F5942121
:101E30007C2914D8144900E0144910B472B6136810
:101E4000134C23F08773C2F3840023F4803343F0F0
:101E50008073136041F8204062B610BC7047A3F550
:101E600096217C2909D9A3F598217C2907D9A3F5C6
:101E70009A237C2B05D80749DFE70749DDE70749A7
:101E8000DBE770476C400000548FFF1F1C8FFF1F63
:101E90002D1D0000F48FFF1FA48FFF1FD48FFF1F85
:101EA000034B002210215A615A6018605961704733
:101EB00000D00340704700BFF0B54FF0E0244FF46E
:101EC00000054FF0807CC4F80851C4F808C14FF0F9
:101ED000007CC4F808C11D4A1D481E494FF0806CA3
:101EE000C4F808C1282300274BF6FF7609254FF0D8
:101EF000006CC4F808C183B057609660D36053612A
:101F0000D3615362D3625363D363536415604760F4
:101F10008660C360436105604F608E60CB604B613B
:101F20000D6001F06FFAFFF7C5FF0B4C23680093BB
:101F3000009B132BFAD900F037FD23680193019B16
:101F4000B3F5967FF9D303B0F0BD00BF0080034026
:101F50000090034000800B409096FF1F212816D868
:101F600010B4104B53F8302092F880422CB101236A
:101F700071B982F8003110BC704703EBC0035B6895
:101F80001A6849B142F0030210BC1A6070477047EA
:101F900082F8803010BC704722F0020210BC1A6038
:101FA000704700BF6C400000212820D81B4A02EB7C
:101FB000C00301295B680FD004291DD052F83000FE
:101FC000002280F8802299B1022922D003290DD164
:101FD0004FF481721A60704752F830004FF4A272C9
:101FE00080F880121A601A6822F020021A60704786
:101FF0004FF480721A60704752F830104FF4A2729A
:10200000012081F880021A601A6842F020021A60EA
:10201000704740F203121A60704700BF6C40000026
:102020002DE9F843044672B6204F4FF0E022936941
:102030003D68D2F8042D62B6520102D5322B88BF1A
:1020400001350CB9BDE8F883DFF86490DFF86480EF
:10205000A9EB0303A8FB03234FF47A7202FB05F5F7
:1020600005EB93154FF0E02672B6B1693A68D6F8E1
:1020700004CD62B6A9EB0103A8FB03031CF0806F3B
:10208000C5EB93134FF47A7002D0322988BF013226
:1020900000FB0233B3F57A7F04D3013CD2D005F5BF
:1020A0007A75E1E701F036F9DEE700BF9096FF1F91
:1020B000FF760100ABAAAAAA431E042B17D872B65A
:1020C0000C4951F8230080B110B40B4CB0F800C09B
:1020D00034F81320A2EB0C02D0F804C041F823C05E
:1020E00024F8132062B610BC704762B67047002017
:1020F000704700BF2497FF1F8497FF1F01380428F3
:102100000BD872B6074B53F8203043B100205B6800
:102110000130002BFBD162B6704700207047184693
:10212000F9E700BF5497FF1F10B472B6194A1A4C52
:10213000042312F8011B090743F0010C05D554F8DC
:10214000331061B154F83C10B9B10433182BF0D1FD
:1021500062B6124B00221A7010BC00F09DBC0F49F1
:1021600004EBC302083050600A780D4844F833008D
:10217000013A0A7062B610BC7047084A094904EB7C
:10218000CC0308305860137844F83C10013B1370BE
:1021900062B6F0E7044200000080FF1F8E97FF1F29
:1021A00088004000C8004000421E042A0ED81C4B84
:1021B000400140F0100010B4034472B6194CA05C0A
:1021C00003281CD8DFE800F013150318704705201A
:1021D000A05413F0080F088814BFC82288220831C1
:1021E00042EA004259601A6062B610BC7047032090
:1021F000EEE708330220EBE708330420E8E70A4B58
:1022000053F8220038B1094B53F82200416043F8DB
:10221000221062B6E9E743F82210044BF7E700BF4B
:102220000080FF1F7C97FF1F5497FF1F6897FF1FB9
:102230002DE9F04FDFF8D0A2DFF8D0B285B03DE055
:10224000B34D9E0805EBC607013A796813F0080301
:10225000D4B2A1F1080040F0BA8055F836204FEA18
:10226000124C120C21F808CC00F0A98021F8063C91
:1022700041F8043CA74B53F82420002A00F00382C5
:10228000A54B53F82420506043F82400A34B33F8A7
:102290001420944423F814C000F0DEFB002800F062
:1022A000EB8117F0080F9E4B00F1080018BF5B464A
:1022B000786045F8363008238AF880309AF8803004
:1022C0005907DCB21DD5974B1B78BBB196490A78EC
:1022D00002F0FF032AB1013BDBB20B70002B00F0D0
:1022E000488392490A7802F0FF032AB1013BDBB22E
:1022F0000B70002B00F0ED8100F066FC04238AF8DF
:10230000803014F0080200F0CC819AF89020D3B20B
:10231000120995D1DFF8F8919B0809EBC30459F82D
:1023200033006468C0F3830009287CD00FD80138DB
:10233000012808D87E4A158842F22100854200F023
:10234000FB8149F833B001238AF89430B3E70D28B4
:10235000F9D1D4E90007774D49F833B0744E764C83
:10236000C9F8102083B240F2816CC9F818202A60A5
:1023700063454FF00102C6E90007227000F2FF80BA
:10238000B3F5D06F80F0CB82B3F5817F00F0268269
:1023900040F2DE8040F2023293427BD107F07F07A9
:1023A000052F00F20881020C40F00581634911F805
:1023B000273043F0020301F82730134670E017F08E
:1023C000080F574B18BF5B4645F8363073E700F0EF
:1023D00063FB5B495B4A51F82430002B00F05781C6
:1023E000586841F82400115D03F108007860032962
:1023F00005D8DFE801F0120F1502042111551A88E3
:1024000017F0080F14BFC823882343EA024345F896
:10241000363050E702211155F1E703211155EEE75F
:1024200005211155EBE7434D2A683AB34649424C22
:102430000F88464894F800E00678402F3B4628BFB6
:102440004023BEF1000F8EF0010E84F800E046F04C
:10245000020486F00106067009EBC400426014BF56
:10246000C820882040EA03401A44FB1A9BB249F86E
:1024700034000B80002B00F036812A602C4B1A8828
:10248000B2F5A06F7FF45FAF9A788AF898200022A7
:102490005A7058E7B3F5A06F40F08D8000221346C4
:1024A000B6F806C02948944528BF94466746027886
:1024B000402F28BF402742F0020E3E0409EBCE0811
:1024C00046F0C806C8F8043049F83E6000263B4490
:1024D0002670BCEB070782F00106067040F0118100
:1024E000BCF13F0F4FF0010509D946F0020602701A
:1024F00009EBC60225705360882349F83630012362
:102500008AF894301FE700BF00200740C800400051
:102510000080FF1F2497FF1F3897FF1F8497FF1F1E
:10252000880040008197FF1F8297FF1F3499FF1F8B
:102530004C97FF1F1897FF1F1597FF1FC0200740DC
:102540005497FF1F7C97FF1F1697FF1F1497FF1FBD
:10255000802B00F08B81822B2DD107F07F07052F78
:1025600029D8A74A00231380A64B13F827309F07CA
:1025700040F1FC8101231370A14B022290E742F24B
:10258000210C6345BBD01DD942F2212293420DD1CB
:10259000BFB2002F82D19C4B1A689C4B1A609C4B97
:1025A000C0F3074000221870134679E742F2213247
:1025B00093423FF473AF0F238AF8C03001238AF8A7
:1025C0009430C0E6B3F5086F00F04A81B3F5106FA0
:1025D000F1D1904BC0F307400425187059F83530FD
:1025E0001A0606D40135182D0CD059F835301A06C4
:1025F000F8D509EBC50301355868083800F04CFAE6
:10260000182DF2D1844A854B0292854A0192854E5B
:10261000854ADFF818820394009200251C4656F87C
:10262000047B2FB138467F6800F036FA002FF9D1CD
:10263000009BD8F8007043F8045B46F8045C0093F4
:102640002FB138467F6800F027FA002FF9D1029B9E
:1026500048F8045B43F8045B0293019B23F8025B98
:1026600001932378023B032B00F20981DFE813F08A
:102670003F0104013F0104016D4A45F8360013781B
:102680000133137017E643F82400674BFCE5115D36
:10269000022926D07FF60FAE03291DD10123135541
:1026A00009E6E0076ED4210621D4A20708D5614BC4
:1026B00093F888200221D2B283F8882083F8801012
:1026C000E30603D55B4B102283F8802005B0BDE8FC
:1026D000F08F00F0FBFD0FE617F0080F14BF032387
:1026E00002231355E7E53F2F98BF0022C5E6514B63
:1026F00080220D2183F8C01083F88020A207DFD547
:10270000D5E746F002060270402F09EBC6003A46B4
:1027100028BF402243601004134440F08800012188
:10272000BA1A49F83600217055D02B60424B1A80F6
:1027300001238AF8943006E692885AB93F4AE51D8B
:1027400014F8011B02F8011FAC42F9D13C4A12688F
:10275000862A3CD03B4C3C4825780278002D85F0F9
:102760000105257042F0020482F00102027009EBBB
:10277000C4024FF00000506014BFC822882249F8FC
:102780003420DEE52B4B30483049314C022583F8AC
:10279000945002702F480C602F4D48608C600D24BF
:1027A000CD60FF200A618A6183F8C04001219F2427
:1027B00083F8880083F8800083F8982083F88C00E1
:1027C00083F8844083F8941005B0BDE8F08F234A65
:1027D0000F201070BEE73F2FA7D890E607F07F07C5
:1027E000052F3FF6E8AE000C7FF4E5AE054A12F87F
:1027F000273023F0020302F82730002213464FE669
:102800001C97FF1FC02007409096FF1F3099FF1FA5
:102810002C99FF1F8197FF1F6897FF1F7C97FF1F51
:102820008497FF1F2497FF1F3897FF1F5497FF1FA0
:102830008E97FF1F002007401697FF1F2399FF1F49
:102840002499FF1F1597FF1F1497FF1F0080FF1F7C
:10285000880040009496FF1FD496FF1F8297FF1FA9
:10286000484B49491B780B700B4619E6464A002332
:102870001380454B022213E64FF001032370434BB4
:10288000B34204F101047FF4CAAE414E039CDFF869
:102890000481414F00233370042518F8013B3F4A5F
:1028A000AB541B0725D445F0020145F00302043563
:1028B0000023182D49F8313049F83230EDD1384F26
:1028C00025783A7842F0020009EBC00C85F0010649
:1028D000CCF80430002D4DD1882382F001022670FF
:1028E0003A7049F8303001238AF894302BE525708E
:1028F000C5E700F0B1F8002832D009EBC503083075
:10290000586049F8357000F0A7F808B345F00103A6
:1029100009EBC3020830506049F833B0C3E7214ADD
:102920005368002B3FF447AE000CBFB204E01369BC
:102930000C32002B3FF43FAE11888142F7D1518811
:10294000B942F4D1000A03280CBF1A781289A7E50E
:1029500033780133337045F0010349F83300A2E7BF
:10296000337849F8350001333370CCE7064B022247
:1029700096E500BE2670C82382F001063E7049F835
:102980003030BCE58197FF1F1C97FF1F3897FF1F52
:102990008E97FF1F0442000088004000C0200740BF
:1029A0001497FF1FA441000070B500F091FD0023B3
:1029B0001A4A194642F8331002EBC3000133182BB0
:1029C0004160F7D1164C174B606B174D40F48020D7
:1029D0006063C2F3072483F89C40144CFF204FF03F
:1029E000010CC2F30746120E83F8B0604FF0E02EE0
:1029F00083F8B42083F8800083F88800187483F883
:102A000094C0217083F884C0702385F849304FF456
:102A100000721023CEF80821237270BD0080FF1FC2
:102A2000008004400020074000E400E0002107404F
:102A300000F04EBB00F01EBB00F0F8BA00F032BB55
:102A400000F018BC00F0F2BB0846114600F05CBB79
:102A5000084600F0DDBB00BF72B60D490B68B3FA43
:102A600083F01D2810DC4FF00042C24023EA02032D
:102A70000B6062B6074A00EBC000C10002EBC00069
:102A8000002353504360704762B60020704700BF78
:102A90000C90FF1FBC83FF1F0E4BC31AB3F5076FCB
:102AA00010D20D4A127872B972B60C4A0C49A2FBC8
:102AB000032308684FF000421B0922FA03F3034383
:102AC0000B6062B67047074A1278002AECD0FFF715
:102AD0002BBB00BFBC83FF1F8E97FF1F398EE338CF
:102AE0000C90FF1F8197FF1F38B50C4B0C4D1B68D6
:102AF0002988044643B1B1F5917F09D24B1C9BB2A2
:102B0000084A2B80545438BDB1F5917FF6D338BDB7
:102B100004480022984700210123F1E7D897FF1FBE
:102B20001299FF1FF097FF1F2DE9F843DFF8888007
:102B3000DFF88890D8F800100123074689F80030A4
:102B4000B9B11F4D4B8801EB8302013300240F2BD9
:102B50002C70976005D84B80002389F80030BDE8C1
:102B6000F88340230B800420FFF71EFBC8F80040C9
:102B7000F2E7144E3378002BF1D0114D45F6215475
:102B800008E0013C13D02B788BB900F0C3FB3378FD
:102B9000002BE4D00420FFF7B1FA0528F1D8FFF7A5
:102BA0005BFF0146C8F800000028EAD0CAE701230D
:102BB0002B70BDE8F88300BF9897FF1F9597FF1F04
:102BC0009497FF1F8197FF1F70B50B4C257845B96F
:102BD0000A4E31680123237009B14B8813B90023D1
:102BE000237070BD9B000B800420FFF7DDFA0023EB
:102BF00035602370F5E700BF9597FF1F9897FF1F7B
:102C00002DE9F041AC4E33680746002B63D01C8899
:102C10005A8822F003011944043294428D686DD918
:102C20005A80C5F30323A54A05F00F065C1CC5F3C3
:102C300003131370A6F10803062B4FEA152814D9C5
:102C4000B31E012B5FFA88F060D9052E00F0B68024
:102C5000042E00F09A81731F022B40F2A1810F2EE7
:102C600000F0E9800020BDE8F0810FB1BC42F9D14D
:102C7000082EC5F303336DD0092E7DD00A2E00F047
:102C80008D800B2E00F092800C2E00F0B3800D2E64
:102C900000F0C3800E2BE5D1894B8A4A1B68E021E6
:102CA0001170002B00F09B81690CC5F3064201F402
:102CB0007E511143E4B2A1F50051204698472E0CF5
:102CC000F6B22D0E804B814A1C70814B16701D7020
:102CD0000120BDE8F0817F4B1B78002BC2D005207E
:102CE000FFF7EAF9034630600028BBD00488002CC7
:102CF0008ED1FFF7D1FE34602046B4E71846FFF7C7
:102D0000CBFE0520FFF7D8F930608AE7F1380E28AE
:102D1000A8D801A353F820F05B2F0000532E000029
:102D20007B2E0000652C0000652C0000812F000028
:102D3000652C00008D2E0000652C00009F2E0000E9
:102D4000112F00002B2F0000652C0000432F0000E6
:102D5000692F0000082B85D15F4B5A4A1B688021E0
:102D6000C5F307461170E4B22D0E002BAAD02A46F7
:102D7000314620469847A5E7092B7FF473AF2A0E0A
:102D8000504B00F01F8190211970544B1B68C5F304
:102D90000746E4B2D5B2002BE9D193E70A2B7FF4C2
:102DA00061AF4F4B474A1B68A021D9E70B2B7FF43B
:102DB00059AF4C4B434A1B68B021D1E7F02801D9E9
:102DC000F728A3D1FFF790FE474B404A19884048A7
:102DD000464C11700D0A3B4A05702468002018808B
:102DE000F0231370002C00F0E68041480122A04738
:102DF000012038E70C2B7FF435AF3E4B314A1B687E
:102E0000C0211170E4B2C5F30746002B3FF459AF5F
:102E1000314620462D0E984754E70D2B7FF422AF04
:102E2000354B284A1B68D0211170E4B2C5F3074620
:102E3000002BEDD145E7F7283FF668AFF02804D026
:102E4000294B1B88002B3FF40DAFFFF74DFE0020F0
:102E500009E72A4B1A68002A00F08F806B0C03F4F4
:102E60007E53C5F306402E0C1843F6B29047154B1F
:102E7000E4B283F800802D0E24E7214B1B68C5F3D4
:102E80000746002BF3D030469847F0E71D4B1B68F0
:102E9000002B00F0A9809847C5F30746E7E71A4BD7
:102EA0001B68002BF7D1194B1B68002B65D0FA204B
:102EB0009847C5F30746DAE79097FF1FEC97FF1F87
:102EC000B897FF1F1499FF1FED97FF1FEE97FF1F85
:102ED000EF97FF1F8197FF1FB097FF1FB497FF1F4A
:102EE000E897FF1FAC97FF1F1299FF1FD897FF1F8E
:102EF000F097FF1FBC97FF1FA097FF1FC497FF1FEE
:102F0000C897FF1FA497FF1FCC97FF1FC097FF1FF5
:102F10003C4B1B68002BBED13B4B1B68002B2CD0BD
:102F2000FB209847C5F30746A1E7384B1B68002BE9
:102F3000B1D1354B1B6803B3FC209847C5F3074656
:102F400095E7334B1B68002BA5D12F4B1B68A3B112
:102F5000FE209847C5F3074689E72E4B1B68C5F34B
:102F60000746002B8FD182E72B4B1B68002B92D199
:102F7000254B1B680BB1FF209847C5F3074676E742
:102F8000264B1B68002B86D1F7E7FFF7ADFDC5F395
:102F90000740FFF7A9FD280EFFF7A6FD002062E617
:102FA000FFF7A2FDC5F30740FFF79EFD072E7FF454
:102FB0000BAF280E06E71A4B1B68F3B11948984768
:102FC000012050E680211970174B1B68E4B2C5F34D
:102FD0000746A3B1314620461546984772E6C5F329
:102FE0000746E4B22D0E6DE6074B1B68002BC4D0DC
:102FF000F8209847C5F3074639E7012033E61D4618
:1030000060E600BFA897FF1FC097FF1FD097FF1F64
:103010009C97FF1FE097FF1FDC97FF1FE497FF1FA0
:10302000D497FF1FF097FF1FB097FF1F38B50F4CC5
:10303000206878B143880288C11801339A420D7A1A
:1030400002D94380284638BDFFF726FD00232360C0
:10305000284638BD064B1B782BB10220FFF72CF811
:1030600020600028E6D14FF0FF35EBE71899FF1FED
:103070008197FF1F10B5094C206818B14388184488
:10308000007A10BD064B1B782BB10220FFF714F815
:1030900020600028F2D14FF0FF3010BD1899FF1FBB
:1030A0008197FF1F084B094A1B6810B554881BB154
:1030B0001A885B88D31A1C440CB1204610BD00F05E
:1030C00029F9204610BD00BF1899FF1F8497FF1FE4
:1030D0000B4B1B789BB110B50A4C206848B1FFF729
:1030E000DBFC002302202360FEF7E6FF30B1FFF790
:1030F000D3FC0220FEF7E0FF0028F8D110BD704796
:103100008197FF1F1899FF1F2DE9F04FDFF8EC9012
:1031100083B0012289F80020019179B3384FDFF89C
:10312000E480019D384EDFF8E4A083463968A1B3FE
:10313000B1F802E0CEF1400CAC4528BFAC460EEB36
:103140000C040022A4B23270A5EB0C054C8001F1F6
:103150000802BCF1000F0AD00EF1FF3E7244DC44BD
:103160001BF8014B02F8014FDC45F9D14C883F2C8C
:103170000BD805228AF80020002DD7D10198002312
:1031800089F8003003B0BDE8F08F40220A800320A8
:10319000FFF70AF800223A60EBE798F800202AB31C
:1031A0004AF2F92408E0013C19D03278BAB900F0AB
:1031B000B1F898F80020CAB10320FEF79FFF072856
:1031C000F1D84FF0010389F80030FFF745FC0146C4
:1031D00038600028ACD1013C89F80000E5D101231A
:1031E0004FF0FF30337003B0BDE8F08F00234FF095
:1031F000FF3089F8003003B0BDE8F08F1D99FF1F44
:103200002099FF1F8197FF1F1C99FF1F3499FF1FF3
:1032100000B583B0034601210DF107008DF807309A
:10322000FFF772FF03B05DF804FB00BF38B50E4D29
:103230000E4C28680123237028B140880023C0F178
:103240004000237038BD0A4B1B7813B90020207052
:1032500038BD0320FEF752FF0728F7D8FFF7FCFB25
:1032600028600028E9D1F1E72099FF1F1D99FF1F71
:103270008197FF1FF8B5114B1B788BB1104E114D84
:10328000346801272F7064B10F4B00271F706388CB
:10329000238021460320FEF787FF376000232B7031
:1032A000F8BDFFF7D9FB084B014620B103201C7085
:1032B000FEF77AFFF2E71F70F0E700BF8197FF1F6C
:1032C0002099FF1F1D99FF1F3499FF1F38B50E4B22
:1032D0001B7853B90D4C216841B103F0FF054B88B1
:1032E0000B800320FEF760FF256038BDFFF7B4FBBD
:1032F000014620B1BDE838400320FEF755BF044B1E
:1033000001221A7038BD00BF1D99FF1F2099FF1FB1
:103310003499FF1F2DE9F843324E337863B1324FB1
:103320003A784AB90122D9073A7043D49A0726D489
:1033300000225B073A7001D4BDE8F8832B4B1A6872
:10334000002AF9D0EFF30582002AF5D1EFF31085BA
:1033500072B6186800283AD0254C2178002936D159
:1033600042691A6001232370002A37D0916105B9A0
:1033700062B600258368457798472570DCE7DFF85B
:10338000748098F80020002AD2D00025DFF86890D9
:103390002B4659F82340236820461B69013598477E
:1033A00008B12369984798F80020EBB29A42F0D808
:1033B0003378BDE7FFF776FE68B9104B1B780BB981
:1033C0003378B3E7337803F0FE033370AEE7002DB4
:1033D000B2D162B6B0E700F079F8EEE7084B1A60B8
:1033E000C5E700BF1090FF1F3599FF1F7C96FF1F98
:1033F0008896FF1F4499FF1F3899FF1F5440000013
:103400008C96FF1F2A4B2B4A6020E12118705970BF
:1034100013782948082B34D00A2B20D00C2B274BAB
:103420000CBF35213D2112228160C2609960DA60B3
:10343000234B21491B78214ACBB101230B62136234
:10344000204B1D491B781D4A012B13D9042B1BD877
:1034500084234B6253621C4B01221A707047174B36
:10346000392113228160C2609960DA60E0E70B6263
:103470001362E5E780234B625362134B01221A70FB
:1034800070470E4B0121ECE7082B06D885234B62D1
:1034900053620D4B01221A707047102B94BF862384
:1034A00087234B625362084B01221A70704700BF9A
:1034B000004007401190FF1F00B0034000B00B40D8
:1034C0004599FF1F1290FF1F4699FF1F704700BFCD
:1034D00010B584B072B6174A702441200F218023A2
:1034E0001470D0719171137013781B06FCD590681D
:1034F00062B6114B114C984238BF00EB800001A915
:1035000038BF40000A22FEF7E3FB01A92046002352
:1035100011F8012B01333AB10A2B20F8022FF7D111
:103520001623237004B010BD5B00DBB2237004B01F
:1035300010BD00BF00000240809698000491FF1F5C
:10354000024B0146186800F00BB800BF5096FF1FF1
:10355000024B0146186800F0B1BB00BF5096FF1F38
:103560002DE9F04F01F10B06162E83B0044624D846
:10357000102900F2BA8000F0A3FA102618220220C7
:10358000B54F3A44A2F1080153688B4200F0BA806B
:103590005A68D96822F003021A449D68E9608D6078
:1035A000516841F001012046516003F1080500F027
:1035B0008DFA284603B0BDE8F08F36F0070600F11B
:1035C0009480B14200F2918000F07AFAB6F5FC7F67
:1035D000C0F09A81730A00F08F80042B00F26F8193
:1035E000B30903F1390003F1380CC3009A4F3B448F
:1035F000A3F108055B689D4206D10CE0002980F22A
:103600002781DB689D4206D05A6822F00302911B95
:103610000F29F3DD60463D69DFF840C265457CD087
:103620006A6822F00302931B0F2B00F37B81002BAF
:10363000C7E904CC80F26C81B2F5007F80F01A817A
:10364000D308796801334FEA521E012202FA0EF2C2
:103650000A4357F833E0C5F808E007EBC30108391F
:10366000E9607A6047F83350CEF80C50831001219E
:103670009940914257D8114206D120F003004900E9
:10368000114200F10400FAD007EBC0094D4686460E
:10369000D5F80C80454508D11DE1002B80F224812E
:1036A000D8F80C80454500F01681D8F8042022F0A7
:1036B0000302931B0F2BF0DD2046D8E9025408EBE0
:1036C000060146F00106C8F80460EC60A56043F00E
:1036D0000104C7E90411C1E902CC4C6048F802308A
:1036E00000F0F4F908F1080502E00C23236000253E
:1036F000284603B0BDE8F08F4FF4007340204FF030
:103700003F0C73E7D3689A4208BF02307FF440AFA2
:103710003D69DFF848C1654582D17A68831001218F
:1037200099409142A7D9BD686B6823F003094E45C3
:1037300003D8A9EB06030F2B7ADCDFF824B1494B41
:10374000DBF800201B680132334405EB090A00F066
:10375000338103F580530F3323F47F6828F00F087B
:103760004146204600F00AFA411C024600F0F38070
:10377000824500F2EE803C4B1968414419600846CE
:1037800000F04E81DBF80010019301311BBFA2EB6A
:103790000A010918CBF80020196012F0070B00F09D
:1037A0001781CBF108010A44CBF5805190440831D0
:1037B000A1EB0801C1F30B0A51462046009200F02C
:1037C000DDF9421CDDE9002300F04F81801A00EB97
:1037D0000A081968BA6048F001005144BD425060BF
:1037E000196000F02981B9F10F0F40F22781686854
:1037F000A9F10C0C2CF0070C00F0010040EA0C00C1
:1038000068604FF0050E05EB0C00BCF10F0FC0E92E
:1038100001EE00F2328150681546144B1A688A4254
:1038200038BF1960124B1A688A4238BF196094E099
:10383000AA1943F0010346F001066E602046BA6003
:10384000536000F043F90835284603B0BDE8F08F17
:10385000D9681A44A1E600BF1C91FF1F2491FF1FE5
:103860002495FF1F7899FF1F4899FF1F7099FF1F2C
:103870007499FF1FB2F5206F4FEA522363D3142BC4
:1038800000F2B78003F15C01C9005B3307EB010E66
:103890007958AEF1080E8E4500F091804B6823F008
:1038A0000303934202D989688E45F7D1D1F80CE021
:1038B0007A68C5E9021ECEF80850CD60D6E6142B12
:1038C00059D9542B00F29D80330B03F16F0003F1A3
:1038D0006E0CC3008AE60EF1010E1EF0030F05F117
:1038E00008057FF4D5AE51E0424445465368D8F808
:1038F0000C1043F00103536055F8083F2046D9608F
:103900008B6000F0E3F8F3E6F00806F1080237E612
:103910002A442046536843F001035360083500F001
:10392000D5F8E5E6A919204646F0010643F0010462
:103930006E60C7E90411C1E902CC4C60AB5000F0E5
:10394000C5F80835D4E6930903F13901C9003833C5
:103950009CE7BD425FD0BD68686820F0030846451B
:10396000A8EB060302D80F2B3FF762AF204600F00A
:10397000ADF80025BCE603F15C0003F15B0CC3006D
:1039800034E659F808394B4540F0968010F0030FA3
:1039900000F1FF30F5D17B6823EA01037B60490029
:1039A00099423FF6C0AE19B9BDE649000EF1040ECA
:1039B0001942FAD0704667E603F11008D0E69A1073
:1039C0004FF001087B6808FA02F21A437A6070E748
:1039D00002EB08014942C1F30B0A5146204600920E
:1039E00000F0CCF8431CDDE900237FF4EFAEDA46AB
:1039F000EFE6542B25D8130B03F16F01C9006E338A
:103A000044E7B3F5AA7F25D8F30B03F1780003F15F
:103A1000770CC300EAE5294B186840441860B1E60A
:103A2000CAF30B0CBCF1000F7FF4ACAEBD68C84408
:103A300048F001006860F0E61546EEE601235360A9
:103A400094E7B3F5AA7F23D8D30B03F17801C9001B
:103A500077331BE740F25452934223D8B30C03F15F
:103A60007D0003F17C0CC300C0E5ABF1080BD8442A
:103A7000A8EB02084FF0000AABE605F1080120466A
:103A8000009300F01BF9BD68009B68681968C4E6E4
:103A900040F254518B420BD8930C03F17D01C900C5
:103AA0007C33F3E64FF47E737F204FF07E0C9DE570
:103AB0004FF47E717E23E9E67B6870E74899FF1F2B
:103AC000014800F097B800BFB89AFF1F014800F006
:103AD00093B800BFB89AFF1F830730B548D0541E73
:103AE000002A3FD0CAB2034601E0013C3AD303F8B2
:103AF000012B9D07F9D1032C2DD9CDB245EA05251F
:103B00000F2C45EA054536D9A4F1100222F00F0C1E
:103B100003F1200EE6444FEA121C03F1100242E9C1
:103B2000045542E9025510327245F8D10CF10102F8
:103B300014F00C0F03EB021204F00F0C13D0ACF1D5
:103B4000040323F003030433134442F8045B934259
:103B5000FBD10CF003042CB1C9B21C4403F8011BC7
:103B60009C42FBD130BD64461346002CF4D1F9E7EA
:103B700003461446BFE71A46A446E0E738B5074DAA
:103B80000022044608462A60FEF788F8431C00D04D
:103B900038BD2B68002BFBD0236038BDC09AFF1FB7
:103BA000014B1868704700BF5096FF1F70B50D4E4F
:103BB0000D4D761BB61006D0002455F8043B013499
:103BC0009847A642F9D1094E094D761B00F01EFB1D
:103BD000B61006D0002455F8043B01349847A6429D
:103BE000F9D170BD184200001842000024420000C4
:103BF00018420000704700BF704700BF024B13B16E
:103C0000024800F005B8704700000000C93E0000FF
:103C1000002301461A46184600F06AB9F8B5244F49
:103C20000C460646FFF74CFFBB685D68C4F57E6135
:103C30000F3125F003054B1923F47F6323F00F03A5
:103C4000A3F58054B4F5805F07DB00213046FFF711
:103C500095FFBB682B44984204D03046FFF736FFEF
:103C60000020F8BD61423046FFF788FF01300DD0DB
:103C7000104ABB682D1B45F001055D601368304696
:103C80001B1B1360FFF722FF0120F8BD0021304607
:103C9000FFF774FFBA68831A0F2BDEDD43F00103D0
:103CA0005360054B03491B68C01A0860D5E700BF85
:103CB0001C91FF1F4899FF1F2495FF1F002961D009
:103CC000F8B50C460646FFF7FBFE54F8042C7B4F74
:103CD000A4F1080522F0010105EB010CB868DCF83D
:103CE0000430604523F0030300F08B80D207CCF84A
:103CF000043032D454F8082CAD1A1144AA6807F1E4
:103D0000080082426AD00CEB0304D4F804E0EC68AB
:103D1000D4601EF0010FA26000F0978041F0010313
:103D20006B60CCF80010B1F5007F35D27868CB0815
:103D30000122490901338A40024357F833107A605F
:103D400007EBC302083AC5E9021247F83350CD60C9
:103D50003046BDE8F840FFF7B9BE0CEB03025268ED
:103D6000D00710D4194407F10800DCF8083083426A
:103D700073D0DCF80C20DA60936041F001036B60D3
:103D80006950D0E7704741F00103B1F5007F44F876
:103D9000043CCCF80010C9D3B1F5206F4FEA512391
:103DA00048D28B0903F1390003F13802C300F81837
:103DB000FB580838984259D05A6822F003028A42C8
:103DC00002D99B689842F7D1D868C5E9023085606E
:103DD000DD603046BDE8F840FFF778BE0CEB03022B
:103DE0005268D20763D40B44DCE90212CA609160C6
:103DF00043F001026A603046EB50BDE8F840FFF73F
:103E000065BE0B44D10707D454F8082CAD1A1344EF
:103E1000D5E90212CA60916043F001026A60284A43
:103E2000BD6012689A4293D8264B30461968FFF756
:103E3000F5FE8DE7142B0AD9542B1FD80B0B03F179
:103E40006F0003F16E02C300B1E719448DE703F17F
:103E50005C0003F15B02C300A9E741F00103C7E97D
:103E60000455C5E902006B60695071E779689210EA
:103E7000012404FA02F20A437A60A6E7B3F5AA7FA6
:103E800006D8CB0B03F1780003F17702C3008EE76D
:103E900040F25452934206D88B0C03F17D0003F19B
:103EA0007C02C30083E74FF47E737E227FE741F0FC
:103EB00001036B60CCF800104AE700BF1C91FF1FA4
:103EC0002895FF1F7899FF1F38B5074D074C2C1B0D
:103ED000A41005D0013C55F8043D9847002CF9D1B9
:103EE000BDE8384000F09EB900000000000000006E
:103EF0002DE9F047DFF874A00646DAF8000098468E
:103F00000F469146FFF776FE194B1C6824B365688F
:103F10001F2D24DC5EB96B1C0235DAF800006360EB
:103F200044F82570FFF768FE0020BDE8F08704EB39
:103F300085010123C1F88890D4F88821AB401A4349
:103F4000022EC4F88821C1F80881E4D1D4F88C216C
:103F50001A43C4F88C21DEE7064C1C60D7E7DAF878
:103F60000000FFF749FE4FF0FF30DEE75496FF1FD9
:103F7000BC9AFF1FC49AFF1F416461667275697421
:103F8000204D505231323120436170616369746950
:103F9000766520546F7563682073656E736F722049
:103FA00074657374000000004D5052313231206E40
:103FB0006F7420666F756E642C20636865636B2078
:103FC000776972696E673F004D5052313231206619
:103FD0006F756E642100FFFF20746F756368656400
:103FE000000000002072656C656173656400FFFF6E
:103FF00034800440800000001EFFFFFFFF0200002D
:1040000000001DFFFFFFFF0200000000190000007C
:1040100034800440400000001211FFFFFF02020044
:1040200000001310FFFFFF02020000001800000054
:104030000000000000000000CD060000F5060000B2
:1040400081060000C90600008506000091060000F8
:10405000B106000000FFFFFF080000000C00000098
:104060000A000000090000000B0000004008FE43A9
:1040700040A004404408FE4344A004400018FE430E
:1040800000C004403000FE43309004403400FE4342
:10409000349004401C18FE431CC004401018FE431A
:1040A00010C004400818FE4308C004400C18FE432A
:1040B0000CC004400C10FE430CB004401010FE4332
:1040C00010B004401810FE4318B004401C10FE430A
:1040D0001CB004401410FE4314B004400418FE4306
:1040E00004C004400010FE4300B004400008FE433A
:1040F00000A004400408FE4304A004400C08FE4352
:104100000CA004400808FE4308A004401418FE4315
:1041100014C004401818FE4318C004400410FE43A5
:1041200004B004400810FE4308B004401400FE43ED
:10413000149004404C08FE434CA004400420FE436D
:1041400004D004402410FE4324B004402010FE4359
:1041500020B004402810FE4328B004402C10FE4339
:104160002CB004400020FE4300D004404808FE4329
:1041700048A004401000FE431090044000000000DE
:1041800000000000512A0000492A0000452A0000D2
:10419000412A00003D2A0000392A0000352A00008B
:1041A000312A000000010000AC90FF1F1200000047
:1041B000000200001490FF1F950000000503090491
:1041C000DC90FF1F0000000000030000C090FF1FF4
:1041D0000000000001030904C490FF1F000000005C
:1041E00002030904EC90FF1F000000000303090410
:1041F0000491FF1F0000000000000000000000000C
:10420000000000001519151519FFFFFFF8B500BFD4
:10421000F8BC08BC9E467047FD3B0000350400001A
:04422000750600001F
:04422400F8B500BF2A
:1042280038B50A4B0A4DD3F8A040C3F8A04005E0C2
:1042380055F823309847631E1C4005D094FAA4F320
:10424800B3FA83F3002CF3D138BD00BF00D004408B
:10425800F48FFF1F38B50A4B0A4DD3F8A040C3F8B6
:10426800A04005E055F823309847631E1C4005D050
:1042780094FAA4F3B3FA83F3002CF3D138BD00BF4A
:1042880000C00440D48FFF1F38B50A4B0A4DD3F83D
:10429800A040C3F8A04005E055F823309847631EB6
:1042A8001C4005D094FAA4F3B3FA83F3002CF3D19D
:1042B80038BD00BF00B00440A48FFF1F38B50A4BBB
:1042C8000A4DD3F8A040C3F8A04005E055F82330C4
:1042D8009847631E1C4005D094FAA4F3B3FA83F3FD
:1042E800002CF3D138BD00BF00A00440548FFF1F3D
:1042F80038B50A4B0A4DD3F8A040C3F8A04005E0F2
:1043080055F823309847631E1C4005D094FAA4F34F
:10431800B3FA83F3002CF3D138BD00BF00900440FA
:104328001C8FFF1F000001000300060008000A00A0
:104338000D000F0012001400160019001B001E00CB
:1043480020002200250027002A002C002E00310022
:104358003300360038003A003D003F004200440078
:10436800460049004B004E005000520055005700CF
:104378005A005C005E0061006300660068006A0025
:104388006D006F0072007400760079007B007E007B
:104398003840000000000000E803000000000000B2
:1043A800006006401040000000000000000000000F
:1043B80000000000000000000000000000000000F5
:1043C80000000000000000000000000000000000E5
:1043D80000000000000000000000000000000000D5
:1043E80000000000000000000000000000000000C5
:1043F80000000000000000000000000000000000B5
:1044080000000000000000000000000000000000A4
:104418000000000000000000000000000000000094
:104428000000000000000000000000000000000084
:104438000000000000000000000000000000000074
:1044480000000000000000000000000038400000EC
:1044580000000000E80300000000000000700640B3
:10446800F03F000000000000000000000000000015
:104478000000000000000000000000000000000034
:104488000000000000000000000000000000000024
:104498000000000000000000000000000000000014
:1044A8000000000000000000000000000000000004
:1044B80000000000000000000000000000000000F4
:1044C80000000000000000000000000000000000E4
:1044D80000000000000000000000000000000000D4
:1044E80000000000000000000000000000000000C4
:1044F80000000000000000000000000000000000B4
:104508000000000000000000549CFF1F2D1D00004B
:104518002D1D00002D1D00002D1D00002D1D00006B
:104528002D1D00002D1D00002D1D00002D1D00005B
:104538002D1D00002D1D00002D1D00002D1D00004B
:104548002D1D00002D1D00002D1D00002D1D00003B
:104558002D1D00002D1D00002D1D00002D1D00002B
:104568002D1D00002D1D00002D1D00002D1D00001B
:104578002D1D00002D1D00002D1D00002D1D00000B
:104588002D1D00002D1D00002D1D00002D1D0000FB
:104598002D1D00002D1D00002D1D00002D1D0000EB
:1045A8002D1D00002D1D00002D1D00002D1D0000DB
:1045B8002D1D00002D1D00002D1D00002D1D0000CB
:1045C8002D1D00002D1D00002D1D00002D1D0000BB
:1045D8002D1D00002D1D00002D1D00002D1D0000AB
:1045E8002D1D00002D1D00002D1D00008441000020
:1045F80000000000E803000000000000FFFFFFFFCC
:10460800010A040009029500030100C032080B00EA
:10461800020202010009040000010202010005244F
:1046280000100105240101010424020605240600E6
:10463800010705810310004009040100020A000077
:104648000007050202400000070583024000000938
:1046580004020002010300000724010001250006EE
:1046680024020101050624020202050924030103AC
:1046780001020105092403020401010105090505D8
:1046880002400000000005250101010905840240DF
:1046980000000000052501010300000012011001BF
:1046A80000000040C01689047502010203010000E1
:1046B8000403090418035400650065006E007300C4
:1046C80079006400750069006E006F000E035000E9
:1046D8006F007200740020003100000018035400BD
:1046E800650065006E007300790020004D004900E8
:1046F800440049000C030000000000000000000016
:1047080000000000000000000000000000000000A1
:10471800000000001C91FF1F1C91FF1F2491FF1F28
:104728002491FF1F2C91FF1F2C91FF1F3491FF1F15
:104738003491FF1F3C91FF1F3C91FF1F4491FF1FC5
:104748004491FF1F4C91FF1F4C91FF1F5491FF1F75
:104758005491FF1F5C91FF1F5C91FF1F6491FF1F25
:104768006491FF1F6C91FF1F6C91FF1F7491FF1FD5
:104778007491FF1F7C91FF1F7C91FF1F8491FF1F85
:104788008491FF1F8C91FF1F8C91FF1F9491FF1F35
:104798009491FF1F9C91FF1F9C91FF1FA491FF1FE5
:1047A800A491FF1FAC91FF1FAC91FF1FB491FF1F95
:1047B800B491FF1FBC91FF1FBC91FF1FC491FF1F45
:1047C800C491FF1FCC91FF1FCC91FF1FD491FF1FF5
:1047D800D491FF1FDC91FF1FDC91FF1FE491FF1FA5
:1047E800E491FF1FEC91FF1FEC91FF1FF491FF1F55
:1047F800F491FF1FFC91FF1FFC91FF1F0492FF1F04
:104808000492FF1F0C92FF1F0C92FF1F1492FF1FB0
:104818001492FF1F1C92FF1F1C92FF1F2492FF1F60
:104828002492FF1F2C92FF1F2C92FF1F3492FF1F10
:104838003492FF1F3C92FF1F3C92FF1F4492FF1FC0
:104848004492FF1F4C92FF1F4C92FF1F5492FF1F70
:104858005492FF1F5C92FF1F5C92FF1F6492FF1F20
:104868006492FF1F6C92FF1F6C92FF1F7492FF1FD0
:104878007492FF1F7C92FF1F7C92FF1F8492FF1F80
:104888008492FF1F8C92FF1F8C92FF1F9492FF1F30
:104898009492FF1F9C92FF1F9C92FF1FA492FF1FE0
:1048A800A492FF1FAC92FF1FAC92FF1FB492FF1F90
:1048B800B492FF1FBC92FF1FBC92FF1FC492FF1F40
:1048C800C492FF1FCC92FF1FCC92FF1FD492FF1FF0
:1048D800D492FF1FDC92FF1FDC92FF1FE492FF1FA0
:1048E800E492FF1FEC92FF1FEC92FF1FF492FF1F50
:1048F800F492FF1FFC92FF1FFC92FF1F0493FF1FFF
:104908000493FF1F0C93FF1F0C93FF1F1493FF1FAB
:104918001493FF1F1C93FF1F1C93FF1F2493FF1F5B
:104928002493FF1F2C93FF1F2C93FF1F3493FF1F0B
:104938003493FF1F3C93FF1F3C93FF1F4493FF1FBB
:104948004493FF1F4C93FF1F4C93FF1F5493FF1F6B
:104958005493FF1F5C93FF1F5C93FF1F6493FF1F1B
:104968006493FF1F6C93FF1F6C93FF1F7493FF1FCB
:104978007493FF1F7C93FF1F7C93FF1F8493FF1F7B
:104988008493FF1F8C93FF1F8C93FF1F9493FF1F2B
:104998009493FF1F9C93FF1F9C93FF1FA493FF1FDB
:1049A800A493FF1FAC93FF1FAC93FF1FB493FF1F8B
:1049B800B493FF1FBC93FF1FBC93FF1FC493FF1F3B
:1049C800C493FF1FCC93FF1FCC93FF1FD493FF1FEB
:1049D800D493FF1FDC93FF1FDC93FF1FE493FF1F9B
:1049E800E493FF1FEC93FF1FEC93FF1FF493FF1F4B
:1049F800F493FF1FFC93FF1FFC93FF1F0494FF1FFA
:104A08000494FF1F0C94FF1F0C94FF1F1494FF1FA6
:104A18001494FF1F1C94FF1F1C94FF1F2494FF1F56
:104A28002494FF1F2C94FF1F2C94FF1F3494FF1F06
:104A38003494FF1F3C94FF1F3C94FF1F4494FF1FB6
:104A48004494FF1F4C94FF1F4C94FF1F5494FF1F66
:104A58005494FF1F5C94FF1F5C94FF1F6494FF1F16
:104A68006494FF1F6C94FF1F6C94FF1F7494FF1FC6
:104A78007494FF1F7C94FF1F7C94FF1F8494FF1F76
:104A88008494FF1F8C94FF1F8C94FF1F9494FF1F26
:104A98009494FF1F9C94FF1F9C94FF1FA494FF1FD6
:104AA800A494FF1FAC94FF1FAC94FF1FB494FF1F86
:104AB800B494FF1FBC94FF1FBC94FF1FC494FF1F36
:104AC800C494FF1FCC94FF1FCC94FF1FD494FF1FE6
:104AD800D494FF1FDC94FF1FDC94FF1FE494FF1F96
:104AE800E494FF1FEC94FF1FEC94FF1FF494FF1F46
:104AF800F494FF1FFC94FF1FFC94FF1F0495FF1FF5
:104B08000495FF1F0C95FF1F0C95FF1F1495FF1FA1
:104B18001495FF1FFFFFFFFF0000020000000000C8
:104B2800000000007C99FF1FE499FF1F4C9AFF1FAB
:104B3800000000000000000000000000000000006D
:104B4800000000000000000000000000000000005D
:104B5800000000000000000000000000000000004D
:104B6800000000000000000000000000000000003D
:104B7800000000000000000000000000000000002D
:104B8800000000000000000000000000000000001D
:104B9800000000000000000000000000000000000D
:104BA80000000000000000000000000000000000FD
:104BB80000000000000000000100000000000000EC
:104BC8000E33CDAB34126DE6ECDE05000B000000B1
:104BD80000000000000000000000000000000000CD
:104BE80000000000000000000000000000000000BD
:104BF80000000000000000000000000000000000AD
:104C0800000000000000000000000000000000009C
:104C1800000000000000000000000000000000008C
:104C2800000000000000000000000000000000007C
:104C3800000000000000000000000000000000006C
:084C48003095FF1FB49AFF1F15
:00000001FF
